:0400000038EF00F0E5
:0C000800D9CF04F0DACF05F05FEF8DF0E7
:10001800D8CF01F0E8CF02F0E0CF03F0F0A00ED087
:1000280081A004D0FF0E0001AE0703D00001AE2B63
:10003800000EAF23B023B123F0900FD0F0A40DD061
:1000480081A404D0FF0E0001B60703D00001B62B2F
:10005800000EB723B823B923F09403C0E0FF02C011
:0C006800E8FF01C0D8FF1000BAEF8CF0D8
:10F8D800000000C90092015B022403ED03B6047E18
:10F8E8000547061007D907A1086A09320AFB0AC3A7
:10F8F8000B8B0C530D1B0EE30EAB0F72103911005E
:10F9080012C7128E1355141B15E115A7166D173360
:10F9180018F818BD19821A461B0B1CCF1C931D56CC
:10F928001E191FDC1F9F2061212322E422A62367C2
:10F93800242725E725A72667272628E528A3296160
:10F948002A1E2BDB2B982C542D102ECC2E862F41C3
:10F9580030FB30B4316D322633DE3396344D350307
:10F9680036B9366F372438D8388C393F3AF23AA44A
:10F978003B563C073DB73D673E163FC53F734020A9
:10F9880041CD4179422543D0437A442345CC45743F
:10F99800461C47C34769480E49B349574AFA4A9D26
:10F9A8004B3F4CE04C804D204EBF4E5D4FFA4F9779
:10F9B800503351CE51685201539A533254C9545F4F
:10F9C80055F45589561D57B0574258D3586359F3C3
:10F9D80059815A0F5B9C5B285CB35C3D5DC65D4FEB
:10F9E8005ED65E5D5FE25F6760EB606E61F06171DD
:10F9F80062F1627063EE636B64E7646265DD6556AD
:10FA080066CE664567BC673168A56819698B69FC6D
:10FA1800696C6ADB6A4A6BB76B236C8E6CF86C6135
:10FA28006DC96D306E956EFA6E5E6FC06F22708212
:10FA380070E17040719D71F9715472AE7206735E17
:10FA480073B5730A745E74B17403755475A475F351
:10FA58007540768D76D87622776B77B377F9773FCE
:10FA6800788378C678087949798979C779047A4199
:10FA78007A7C7AB57AEE7A257B5C7B917BC47BF7BE
:10FA88007B297C597C887CB67CE27C0E7D387D6144
:10FA98007D897DB07DD57DF97D1C7E3E7E5E7E7E36
:10FAA8007E9C7EB97ED47EEF7E087F207F377F4C98
:10FAB8007F617F747F867F967FA67FB47FC17FCD6D
:10FAC8007FD77FE07FE87FEF7FF57FF97FFC7FFEC0
:10FAD8007FFF7FFE7FFC7FF97FF57FEF7FE87FE088
:10FAE8007FD77FCD7FC17FB47FA67F967F867F74C7
:10FAF8007F617F4C7F377F207F087FEF7ED47EB980
:10FB08007E9C7E7E7E5E7E3E7E1C7EF97DD57DB0AF
:10FB18007D897D617D387D0E7DE27CB67C887C594F
:10FB28007C297CF77BC47B917B5C7B257BEE7AB55B
:10FB38007A7C7A417A047AC779897949790879C6C9
:10FB48007883783F78F977B3776B772277D8768D93
:10FB5800764076F375A47554750375B1745E740AAE
:10FB680074B5735E730673AE725472F9719D714009
:10FB780071E17082702270C06F5E6FFA6E956E30A0
:10FB88006EC96D616DF86C8E6C236CB76B4A6BDB5C
:10FB98006A6C6AFC698B691969A5683168BC674534
:10FBA80067CE665666DD656265E7646B64EE637012
:10FBB80063F1627162F0616E61EB606760E25F5DE4
:10FBC8005FD65E4F5EC65D3D5DB35C285C9C5B0F97
:10FBD8005B815AF3596359D3584258B0571D578916
:10FBE80056F4555F55C95432549A5301536852CE4E
:10FBF8005133519750FA4F5D4FBF4E204E804DE024
:10FC08004C3F4C9D4BFA4A574AB3490E496948C381
:10FC1800471C477446CC4523457A44D0432543794D
:10FC280042CD4120417340C53F163F673EB73D076F
:10FC38003D563CA43BF23A3F3A8C39D83824386FC9
:10FC480037B93603364D359634DE3326336D32B444
:10FC580031FB304130862FCC2E102E542D982CDBC2
:10FC68002B1E2B612AA329E52826286727A726E724
:10FC78002527256724A623E422232261219F20DC4F
:10FC88001F191F561E931DCF1C0B1C461B821ABD25
:10FC980019F81833186D17A716E1151B1555148E8A
:10FCA80013C712001239117210AB0FE30E1B0E535B
:10FCB8000D8B0CC30BFB0A320A6A09A108D907107D
:10FCC8000747067E05B604ED0324035B029201C9CB
:10FCD80000000037FF6EFEA5FDDCFC13FC4AFB822A
:10FCE800FAB9F9F0F827F85FF796F6CEF505F53D7D
:10FCF800F475F3ADF2E5F11DF155F08EEFC7EE00A6
:10FD0800EE39ED72ECABEBE5EA1FEA59E993E8CD81
:10FD1800E708E743E67EE5BAE4F5E331E36DE2AAF6
:10FD2800E1E7E024E061DF9FDEDDDD1CDD5ADC99E0
:10FD3800DBD9DA19DA59D999D8DAD71BD75DD69F22
:10FD4800D5E2D425D468D3ACD2F0D134D17AD0BF9F
:10FD5800CF05CF4CCE93CDDACC22CC6ACBB3CAFD3B
:10FD6800C947C991C8DCC728C774C6C1C50EC55CD8
:10FD7800C4AAC3F9C249C299C1EAC03BC08DBFE059
:10FD8800BE33BE87BDDBBC30BC86BBDDBA34BA8CA3
:10FD9800B9E4B83DB897B7F2B64DB6A9B506B5639C
:10FDA800B4C1B320B380B2E0B141B1A3B006B06929
:10FDB800AFCDAE32AE98ADFFAC66ACCEAB37ABA133
:10FDC800AA0CAA77A9E3A850A8BEA72DA79DA60D9F
:10FDD800A67FA5F1A464A4D8A34DA3C3A23AA2B157
:10FDE800A12AA1A3A01EA0999F159F929E109E8F45
:10FDF8009D0F9D909C129C959B199B9E9A239AAA55
:10FE0800993299BB984498CF975B97E79675960473
:10FE18009694952595B6944994DD93729308939F8B
:10FE2800923792D0916B910691A2904090DE8F7E8E
:10FE38008F1F8FC08E638E078EAC8D528DFA8CA269
:10FE48008C4B8CF68BA28B4F8BFD8AAC8A5C8A0D0F
:10FE58008AC08973892889DE8895884D880788C172
:10FE6800877D873A87F886B78677863986FC85BF87
:10FE78008584854B851285DB84A4846F843C840942
:10FE880084D783A78378834A831E83F282C8829F9C
:10FE980082778250822B820782E481C281A281828A
:10FEA80081648147812C811181F880E080C980B408
:10FEB800809F808C807A806A805A804C803F803313
:10FEC8008029802080188011800B800780048002A0
:10FED8008001000A006400E80310273C04429F6A7E
:10FEE800429001424DBB40EC473E8E1FBB3C044252
:10FEF8005A8B420444429C4F4100803F4D45535326
:10FF08004147455F474F45535F484552450D0A00F5
:10FF18005243204D6F64650A4552523A20256920A4
:10FF2800200057616E646572696E0A2D2D2D2E2E84
:10FF38002D2D2D0053656C65637465640A53656CDB
:10FF480066546573740053656C662043616C0A5788
:10FF580061697420506C7A005243204D6F64650AC1
:10FF68005365617263682E2E0053656C6563746512
:10FF7800640A5243204D6F64650053656C65637471
:10FF880065640A556E6B6E6F776E005765206172F7
:10FF9800650A77696E6E696E67210053656C6563E3
:10FFA8007465640A57616E6465720053656C6563B5
:10FFB8007465640A44656275670053656C656374AB
:10FFC80065640A4D6174636800616E613A25690A67
:10FFD800747970652025690041542B434D47463D8F
:10FFE800310041542B4353510D0A0041542B434DCA
:08FFF80047533D002500000005
:020000040001F9
:100000003C6A3D6A3E6A3F6A4D6A060E4C6E4CC0C1
:1000100012F0010E136E146A122A01D0A4DA122E05
:10002000FDD713C032F014C033F0000E33BEFF0E04
:10003000346E356EFF0E32241E6EFF0E33201F6E9F
:10004000FF0E3420206EFF0E3520216E4D6A010E0A
:100050004C6E7DD032C040F033C041F034C042F02D
:1000600035C043F043344332423241324032405093
:100070003C24126E41503D20136E42503E20146EBF
:1000800043503F2046DAEEE3FF0E4024126EFF0E8F
:100090004120136EFF0E4220146EFF0E4320156E9A
:1000A0003C501214166E3D501314176E3E5014142B
:1000B000186E3F501514196E405016243C6E415076
:1000C00017203D6E425018203E6E435019203F6E5F
:1000D0004CC012F02CDA3C50125C3D5013583E508C
:1000E00014583F50800A165830E2800E126E010EEE
:1000F0002FDADECF2EF0DDCF2FF0800E126E010E44
:10010000DAD9800E146E010EEBD9800E126E010E3C
:10011000D2D92EC0DEFF2FC0DDFF000E126E010E01
:1001200017DADECF30F0DDCF31F0000E126E010EA7
:10013000C2D9000E146E010ED3D9000E126E010E3C
:10014000BAD930C0DEFF31C0DDFF4C4A4D2A4CC069
:1001500012F04DC013F0000E13BEFF0E146ED9D96D
:1001600001E378D7010E406E416A426A436A090E84
:100170001A6E1B6A1C6A1D6A38D1D8904034226EF0
:100180004134236E4234246E4334256E4C6A4D6AEA
:1001900011D11AC012F04CC013F04DC014F0122A45
:1001A00001D0E1D9122EFDD713C044F014C045F0A0
:1001B000000E45BEFF0E466E476E126A020E136EAB
:1001C00044C014F045C015F0D890143615361250BE
:1001D000142613501522D90E1424F66EF80E15208D
:1001E000B1D9F5CF2AF00A00F5CF2BF044C012F0B8
:1001F00045C013F0D89012361336D90E1224F66E7D
:10020000F80E13209FD9F5CF14F00900F5CF15F0A3
:10021000141E151E144A152A14C02CF015C02DF0FA
:100220002B342B322A322D342D322C324CC038F064
:100230004DC039F0000E39BEFF0E3A6E3B6EAAD0AB
:1002400040503824446E41503920456E42503A2087
:10025000466E43503B20476E2AC006F02BC007F085
:1002600019D9F6D8E9EC8DF0CFD812242E6E37507C
:1002700013202F6E2CC006F02DC007F0000E13D9EE
:10028000E7D8E9EC8DF0C0D8122637501322121EA1
:10029000131E124A132A12502E2613502F222AC040
:1002A00006F02BC007F0000EFED8D2D8E9EC8DF096
:1002B000ABD81224306E37501320316E2CC006F0AC
:1002C0002DC007F0E7D8C4D8E9EC8DF09DD81226F0
:1002D000375013221250302613503122800E126EE6
:1002E000010E136E0CD9DECF26F0DDCF27F0000E05
:1002F000126E010E136E03D9DECF28F0DDCF29F088
:1003000027342732263229342932283226C012F0E7
:1003100027C013F02E50125E2F50135A800E146E09
:10032000010E156EA9D828C012F029C013F0305064
:10033000125E3150135A000E146E010E156E9CD8C9
:1003400026C012F027C013F02E5012262F50132271
:10035000800E146E010E156ED8903834D96E393473
:10036000B5D828C012F029C013F0305012263150F1
:100370001322000E146E010E156ED8903834D96E0B
:100380003934A4D8225038262350392224503A2216
:1003900025503B223B50800A126E3250385C33505D
:1003A000395834503A583550800A125801E248D72B
:1003B0004C4A4D2A4CC012F0BAD84050125C415001
:1003C0001358425014584350800A165801E2E1D69F
:1003D000FF0E1A061B221C221D2222C040F023C041
:1003E00041F024C042F025C043F04350800A126E11
:1003F0003250405C33504158345042583550800A96
:100400001258D8B01200B9D606C048F007C049F05B
:1004100008C04AF009C04BF00E0E126E4B344B323E
:100420004A3249324832122EF9D7010E4814366E3C
:10043000376A48C012F049C013F04AC014F04BC0EC
:1004400015F01534153214321332123236501200B0
:10045000136ED8904434D96E4534DA6E1250D926D2
:100460001350DA22DECF0AF0DDCF0BF0000E0BBE08
:10047000FF0E0C6E0D6E1200D8904434D96E4534C8
:10048000DA6E1450D9261550DA2212C0DEFF13C0DE
:10049000DDFF1200000E07BEFF0E086E096E800E13
:1004A000126E010E120007BEFF0E086E096E000EDE
:1004B000126E010E1200136ED8903C34D96E3D348A
:1004C000DA6E1250D9261350DA221200DA6E145066
:1004D000D9261550DA2212C0DEFF13C0DDFF12004C
:1004E000156ED8904C34E16E4D34E26E1450E12616
:1004F0001550E222DECFE6FFDDCFE5FF1200D890F7
:100500003834D96E3934DA6E1250D9261350DA22C3
:100510001200156E2150800A166E12501E5C135088
:100520001F58145020581550800A165812004DC0FC
:1005300013F0000E13BEFF0E146E156E1550800AD8
:10054000166E1200F76EF86A000EF822090012000B
:10055000136ED8904C34D96E4D34DA6E1250D926C1
:100560001350DA221200D89013361436120000010C
:10057000886F20EE74F0140EDE6AE82EFDD7250E8B
:100580008D6F22C01AF088517FEC86F000018E6BCF
:100590008F6B7BD023C029F024C02AF098D9F76450
:1005A00003D00800F55005D0F6CFE1FFF7CFE2FF0A
:1005B000E750250A4CE123C029F024C02AF00001AD
:1005C0008E5129268F512A22292A000E2A2229C03B
:1005D000F6FF2AC0F7FF000EF86E0D0EF76403D089
:1005E0000800F55005D0F6CFE1FFF7CFE2FFE75066
:1005F000250A0BE1076A0001740E066EFF0E096EF4
:10060000FC0E086E92EC8DF01ED000018D51D96E5B
:10061000DA6ADECF89F0DDCF8AF0020E8D27FF0E79
:10062000136EDD0E126E89C014F08AC015F0600ED4
:10063000D8EC88F0076A0001740E066E096A600E35
:10064000086E92EC8DF000018E4B8F2B1BD023C0D7
:1006500029F024C02AF000013AD9F76403D0080039
:10066000F55005D0F6CFE1FFF7CFE2FFE7500001EC
:100670008B6F8C6B076A740E066E096A8B0E086EA0
:1006800092EC8DF000018E4B8F2B23C029F024C0FB
:100690002AF01DD9F76403D00800F55005D0F6CF35
:1006A000E1FFF7CFE2FFE750000909E000018F51B9
:1006B000800A800FC80ED8B48E5D01E26BD70001AE
:1006C000906B916B99D09051740FD96EDA6A0A0EC3
:1006D000DF6206D022281A6E000E7FEC86F089D0E9
:1006E00002D9BEEC8DF083807BD025EC88F0E7EC5E
:1006F0008EF0848800019051740FD96E8DD825EC4E
:1007000088F0E7EC8EF0849825EC88F0E7EC8EF02A
:1007100084880001CBD8D8902932D8902932010E94
:100720002916293A294687502918DF0B2918876E80
:10073000BDD8D8902932010E29162946845029188F
:10074000FD0B2918846EB2D8010E29168450291881
:10075000FE0B2918846E9051B2D829462946845040
:100760002918FB0B2918846E25EC88F0E7EC8EF035
:1007700035D000F0848800019051740FD96E4CD8A8
:1007800095D8D8902932D8902932010E2916875051
:100790002918FE0B2918876E89D8D8902932010EA6
:1007A0002916294687502918FD0B2918876E7ED8EF
:1007B000010E29162946294687502918FB0B2918AE
:1007C000876E90517CD8293A294684502918DF0B2E
:1007D0002918846E25EC88F0E7EC8EF0849805D01B
:1007E0005950010A82E0030AC4E07DD8BEEC8DF0C6
:1007F00083900001904B912B9051740FD96EDA6A5F
:10080000DF50D8B412009151800A800FC80ED8B4BE
:10081000905DD8B0120057D7DA6ADF50296E000E0B
:1008200029BE010E296E010E2916293A2946875044
:100830002918DF0B2918876E9051740FD96EDA6A68
:10084000DF50296E060E2A6ED89029322A2EFCD748
:10085000010E2916294684502918FD0B2918846E8B
:100860009051740FD96EDA6ADF50296E050E2A6E28
:10087000D89029322A2EFCD7010E29168450291827
:10088000FE0B2918846E9051740FD96EDA6ADF500E
:10089000296E293A0F0E2916010E291629462946D6
:1008A00084502918FB0B2918846E12009051740F84
:1008B000D96EDA6ADF50296ED89029321200740F8F
:1008C000D96EDA6ADF50296E010E2916010C8E519D
:1008D00029268F512A2229C0F6FF2AC0F7FF000ED1
:1008E000F86E0D0E1200020E0A6E0B6A0C6A0D6A8B
:1008F000000C00EC80F00001756B766B800EF7D871
:10090000DECF06F0DDCF07F0800E626F010E636F61
:10091000FBD8DECF08F0DDCF09F055EC8FF006C034
:1009200064F007C065F0000E0001666F010E676F8E
:10093000D8907535D96E7635DA6E6651D9266751FD
:10094000DA22DECF06F0DDCF07F0000E686F010E71
:10095000696FD8907535D96E7635DA6E6851D926BB
:100960006951DA22DECF08F0DDCF09F055EC8FF0C7
:1009700006500001642707506523800E6A6F010E40
:100980006B6FD8907535D96E7635DA6E6A51D92687
:100990006B51DA2264C0DEFF65C0DDFF716B726BE4
:1009A000736B400E746F6D6B6E6B6F6B706B800E44
:1009B0009ED8DECF62F0DDCF63F063AF06D086D085
:1009C000020E606FABD8602FFDD7800E90D8DECFBF
:1009D00062F0DDCF63F062C064F063C065F0000ECA
:1009E00065BFFF0E666F676F6751800A686F715150
:1009F000645D72516559735166597451800A685922
:100A000060E2DED771516D25606F72516E21616FAA
:100A100073516F21626F74517021636F800E646F28
:100A2000010E656FD8907535D96E7635DA6E6451E2
:100A3000D9266551DA22DECF66F0DDCF67F066C0D9
:100A400068F067C069F0000E69BFFF0E6A6F6B6FD8
:100A50006B51800A6C6F6051685D615169596251D8
:100A60006A596351800A6C5922E36DC060F06EC010
:100A700061F07151602772516123800E626F010E27
:100A8000636F42D86051DE5E6151DD5AD890713596
:100A9000606F7235616F7335626F7435636F60516B
:100AA0006D2761516E2362516F236351702370353E
:100AB00070336F336E336D33020E606F2FD8602F3B
:100AC000FDD774517111721173119CE1800E0FD812
:100AD0006DC0DEFF6EC0DDFF754B762B7651800A50
:100AE000800F200ED8B4755DD8B0120007D7606FA4
:100AF000010E616FD8907535D96E7635DA6E60511A
:100B0000D9266151DA221200D8907535D96E763522
:100B1000DA6E6251D9266351DA22120074357433C9
:100B20007333723371331200296EE4D815341532E1
:100B3000162EFCD7010E1516151A0E01E4511518C4
:100B4000FE0B1518E46FD1D815341532162EFCD7CC
:100B5000010E15161546E7511518FD0B1518E76F10
:100B60002950800A1C0F04E31C6A640E1B6E05D01A
:100B700029501B6E1C6A1BBE1C061BC029F014509A
:100B8000800A1C0F04E31E6A640E1D6E05D014500B
:100B90001D6E1E6A1DBE1E061DC014F02950800A5F
:100BA000156E9D0E800A155C04E220689C0E1F6E77
:100BB00005D029501F6E206A1FBE20061FC029F0D5
:100BC0001450800A156E9D0E800A155C04E222689E
:100BD0009C0E216E05D01450216E226A21BE220681
:100BE00021C014F087D815341532162EFCD715B055
:100BF0000ED029C015F0166A15BE160615506408E9
:100C0000236E1650D8A0E82A0008246E1ED029BEF4
:100C100006D02950256E266A25BE260612D02950F8
:100C2000066E076A06BE0706096A010E086E55ECD5
:100C30008FF0061E071E064A072A06C025F007C0C9
:100C400026F025C023F026C024F023C029F04DD87B
:100C500015341532162EFCD715B006D01450276E59
:100C6000286A27BE280609D0640E1424276EE86A75
:100C7000D8B0E82A14BEE806286E27C014F0295020
:100C80002CD855EC8FF006C00CF007C00DF00F6AA1
:100C9000640E0E6E4EEC8BF00CC017F00DC018F009
:100CA00014501BD855EC8FF006C00CF007C00DF0A7
:100CB0000F6A640E0E6E4EEC8BF00CC019F00DC076
:100CC0001AF019C006F01AC007F093EC8EF017C0A6
:100CD00006F018C007F075EF8EF0066E076A06BEC4
:100CE0000706096AD00E086ED00C14C015F0070E66
:100CF000166E070C29C015F0070E166E070C1D6E38
:100D00001A50400DF3501D24800F1E6E030E0A6E04
:100D1000000E0B6A0C6A0D6ABEEC8DF093D025ECC8
:100D200088F0E7EC8EF08488A1D8D8901B32D89058
:100D30001B32D8901B328ED81B3A0F0E1B16800E1A
:100D40001B26D8901B32D8901B32010EA1D88ED80A
:100D5000D8901B32010EA4D889D890D825EC88F001
:100D6000E7EC8EF0849825EC88F0E7EC8EF0848830
:100D70009ED870D8D8901B32D8901B32010E88D8DC
:100D80001EC01BF0D8901B32010E8AD81EC01BF06B
:100D900075D825EC88F0E7EC8EF08498120000F00E
:100DA00084881B6A1EAE01D01B2A54D8060E1C6E06
:100DB000D8901B321C2EFCD7010E6AD81EC01BF027
:100DC000050E1C6ED8901B321C2EFCD7010E68D865
:100DD0001EC01BF01B3A0F0E1B1650D868D8010E10
:100DE0001B1687501B18FE0B1B18876E1EC01BF0AE
:100DF000D8901B32D8901B32010E1B161B46875011
:100E00001B18FD0B1B18876E1EC01BF0D8901B32E1
:100E1000010E1B161B461B4687501B18FB0B1B188D
:100E2000876E1EC01BF0010E1B161B3A1B4684501A
:100E30001B18DF0B1B18846E25EC88F0E7EC8EF096
:100E4000849812005950010A01E169D7030AD8A415
:100E50001200A5D7010E1B161B3A1B4687501B1804
:100E6000DF0B1B18876E1EC01BF012001EC01BF08C
:100E70001B3A0F0E1B16800E1B26800C010E1B1634
:100E80001B461B4684501B18FB0B1B18846E12005C
:100E90001B161B4684501B18FD0B1B18846E12007A
:100EA0001B1684501B18FE0B1B18846E12001EC0EC
:100EB0001BF0D8901B32D8901B32D8901B321200F6
:100EC000010E596E0E01459B479D469746954693E8
:100ED000E38FA798F197D99BD89FDA9B849484904D
:100EE0008492879A84988390869E95909690969205
:100EF000969496969698999A02EC8FF0640E0A6EE4
:100F0000000E0B6A0C6A0D6ABEEC8DF08390869E13
:100F10009CD8E7EC8EF08488879A849284808484BD
:100F200094D8E7EC8EF0849896D8BEEC8DF08DD8EE
:100F3000E7EC8EF08488879A84928480848485D8B4
:100F4000E7EC8EF0849887D8BEEC8DF07ED8E7EC85
:100F50008EF08488879A84928480848476D8E7ECA3
:100F60008EF0849878D8BEEC8DF06FD8E7EC8EF0D8
:100F70008488879A84928480849467D8E7EC8EF082
:100F8000849869D8BEEC8DF060D8E7EC8EF0848848
:100F9000879A84928480849458D8E7EC8EF0849861
:100FA00054D8E7EC8EF08488878A84928490849465
:100FB0004CD8E7EC8EF0849848D8E7EC8EF0848823
:100FC000879A84928490849440D8E7EC8EF0849839
:100FD0003CD8E7EC8EF08488878A8482848084847D
:100FE00034D8E7EC8EF0849830D8E7EC8EF0848823
:100FF000879A84928490849428D8E7EC8EF0849821
:1010000024D8E7EC8EF08488879A84928490848434
:101010001CD8E7EC8EF0849818D8E7EC8EF0848822
:10102000879A84928490849410D8E7EC8EF0849808
:101030000CD8E7EC8EF08488879A8482848084942C
:1010400004D8E7EC8EF084981200280E066E076A2A
:10105000086A096A000C320E0A6E0B6A0C6A0D6A85
:10106000000CC9EC8FF006C021F007C022F008C0C8
:1010700023F009C024F00001AA51215C3B6EAB5162
:1010800022583C6EAC5123583D6EAD5124583E6EF3
:101090003E50800A800F08E1000E3D5C05E1050E20
:1010A0003C5C02E1DD0E3B5CD8B08BEC8FF05AC0AB
:1010B00021F0226A236A246A3E50800A256E21505C
:1010C0003B5C22503C5823503D582450800A255800
:1010D0000EE23B505A5C0A6E3C500B6A0B5A3D5074
:1010E0000C6A0C5A3E500D6A0D5ABEEC8DF0BAC017
:1010F000BCF0BBC0BDF08584858A859C4BEC8AF032
:10110000E7EC8EF020EEC5F010EE32F0090EDECFE7
:10111000E6FFE82EFCD720EE26F00C0EDE6AE82E65
:10112000FDD73F6A406A3F500001950FD96EDA6AD9
:101130003F50320FE16EE26AE75029EC8DF0DF6E2E
:101140003F4A402A4050800A800F090ED8B43F5CC5
:10115000EAE300019651790A18E1416A426A415076
:1011600000019E0FD96EDA6A4150260FE16EE26AE5
:10117000E75029EC8DF0DF6E414A422A4250800A46
:10118000800F0C0ED8B4415CEAE3858C000120EEA0
:1011900098F0DECFBAF0DDCFBBF0C9EC8FF006C01F
:1011A000AAF007C0ABF008C0ACF009C0ADF0120067
:1011B000206E140E186E68D02150250A07E02050CA
:1011C000D96EDA6A21C0DFFF202A5ED0196A71D891
:1011D00021505DE0640A02E00D0A56E11850D96E14
:1011E000DA6ADECF1BF0DDCF1CF0020E18261C5091
:1011F0006CD8D8B41B5C06E2030E19121B6C1C1EC3
:10120000D8B01C2A010E216E215047D8F5CF16F018
:101210000900F5CF17F016501B5C17501C5804E35B
:10122000212A2150050AF0E119C016F0030E161606
:1012300006E02050D96EDA6A2D0EDF6E202A21C01A
:101240001AF01FD01A5029D8F5CF08F00A00F5CFB0
:1012500009F01BC006F01CC007F00FEC8EF006C0B2
:101260000DF007C00EF0106A0A0E0F6E56EC8EF0ED
:101270000D50300F216E2050D96EDA6A21C0DFFF89
:10128000202A1A061A28DEE114D8216695D72050A4
:10129000D96EDA6A000EDF6E000C020DD90EF3244F
:1012A000F66EFE0EF420F76EF86A000EF8220900C2
:1012B000120012C0F6FF13C0F7FF124A132A000EE5
:1012C000F86E0800F5CF21F01200800AF36E800E50
:1012D000F35C000CD08EF28E9CEC8FF092EC8BF0D5
:1012E000E2EC8FF00001926FF7EC8FF0020DF3CF7C
:1012F00093F0FDEC8FF0040DF35093259225946F3D
:1013000036D0226AFF0E246E710E236E000EB7ECEB
:1013100082F038D0226AFF0E246EC20E236E000EB9
:10132000B7EC82F02FD0226AFF0E246EA30E236E3C
:10133000000EB7EC82F026D0226AFF0E246E3C0E1F
:10134000236E000EB7EC82F01DD0226AFF0E246ED1
:10135000B30E236E000EB7EC82F014D0226AFF0E9B
:10136000246E820E236E000EB7EC82F00BD09451E7
:10137000C8E0010ACFE0030AD6E0060ADDE0010A70
:10138000E4E0ECD72BEC88F0BEEC8DF0E9EC8FF0CC
:101390000001926F9205A4E0060E945D0DE3A0D7C4
:1013A00051EC8AF09DD7C0EC8FF09AD7B7EC8FF054
:1013B00097D72FEC8FF094D79451F2E0010AF3E025
:1013C000030AF4E0060AF5E0010A88E089D7979459
:1013D0009786979A979C8584858A31EC88F031ECC2
:1013E00088F000019651410A07E09651730A04E023
:1013F0009651790A01E0010C010E5A6E4C6A4D6A51
:10140000050E1A6EE90E34EC8EF045D8E7EC8EF03E
:101410008584858A859C3FD8E7EC8EF04E6A4F6ABA
:101420004E50430FD96EDA6A4E500001CE0FE16E76
:10143000E26AE75029EC8DF0DF6E4E4A4F2A4F509A
:10144000800A800F090ED8B44E5CEAE3858C46C052
:1014500058F0090E1A6E0001E00E34EC8EF0090E01
:101460001A6E0001D70E34EC8EF031EC88F00001DA
:101470009651730A0FE04C500A0A4D1001E1020C1C
:101480005A2A4C4A4D2A4D50800A800F0B0ED8B470
:101490004C5CB6E3000C040E066E076A086A096A23
:1014A000000C226AFF0E246E600E236E000EB7EC55
:1014B00082F0E7EC89F0556E15D0226AFF0E246E9B
:1014C000180E236E55C025F0266A000EB7EC82F088
:1014D000F40E0A6E010E0B6E000E0C6A0D6ABEEC65
:1014E0008DF0E7D75566E9D7AAEC8FF0546E226AE3
:1014F000FF0E246ED10E236E070EDAEC8FF0256EF0
:10150000266A54C027F0286A000EB7EC82F031EC4E
:1015100088F0080EDAEC8FF01ED84EEC8BF0C40E7B
:101520000C24506EFF0E0D20516E060EDAEC8FF07B
:1015300012D84EEC8BF0C40E0C24526EFF0E0D2010
:10154000536E50C014F0525094EC85F02BEC88F0A0
:10155000BEEC8DF0DCD7780DF3CF0CF0F4CF0DF0AE
:10156000000E0F6A0E681200669CF60E0E012D1713
:10157000F10E1D13F40E2C172F0E1713F60E2A174B
:101580003F0E1813668CF28EF28C220EAF6E0F0196
:10159000306BAC94679E6786679C679AAC98AB8EFD
:1015A000AB9CAB88AC8AAC9C9D989D8A220E1F6F29
:1015B000206B3295319F3187319D319B3299338F2A
:1015C000339D3389328B329DA398A38A220E2B6FD1
:1015D0002C6B2E952D9F2D872D9D2D9B2E992F8F1A
:1015E0002F9D2F892E8B2E9D6198618A95889594C9
:1015F000220E0E01FB6FFC6BFE95FD9FFD87FD9D8E
:10160000FD9BFE99FF8FFF9DFF89FE8BFE9D619CD8
:10161000618E12000C6A0D6A9794F29E0C6A0D6A34
:10162000C082C0A0FED7C09000F000F000F000F033
:10163000066AFE0E076EC2CF08F0C3CF09F006504F
:10164000082607500922800E0A6E010E0B6ED890F4
:101650000C34D96E0D34DA6E0A50D9260B50DA22CA
:1016600008C0DEFF09C0DDFF000E066E010E076E2A
:10167000D8900C34D96E0D34DA6E0650D926075046
:10168000DA22DE6ADD6A0C4A0D2A0D50800A800FCC
:10169000400ED8B40C5CC4E3F28E1200116A0F50F5
:1016A00065EC89F0D8B40E5C06E20E6C0F1ED8B063
:1016B0000F2A010E116E0D5065EC89F0D8B40C5C48
:1016C00006E20C6C0D1ED8B00D2A010E111A126A1A
:1016D000136A0F500E101BE0010E106E04D0D8904C
:1016E0000E360F36102A0FAEFAD7D89012361336B0
:1016F0000E500C5C0F500D5805E30E500C5E0F5051
:101700000D5A1280D8900F320E32102EEED7115093
:1017100004E0126C131ED8B0132A12C00CF013C0D0
:101720000DF012000AEC8BF079EC84F0516A010E96
:10173000506E50C006F051C007F068EC8FF006C044
:101740004EF007C04FF009D0B20E066E010ECCEC81
:101750008EF0FC0E4E26FF0E4F224F50800AF36E85
:10176000800EF35C010ED8B44E5CEEE20A0E066EFB
:10177000010ECCEC8EF00D0E066E010ECCEC8EF050
:10178000504A512A5150800A800F200ED8B4505C24
:10179000D0E3050E0A6E000E0B6A0C6A0D6ABEECF1
:1017A0008DF0C0D7086E0C0E496F3F0E361706C07D
:1017B00007F0300E0716D8900736D8900734361346
:1017C00036CF07F0C00E071605E1CA9408C0CBFF5C
:1017D000CA84C00C36CF07F0C00E07160750400A67
:1017E00005E1049508C005FF0485120036CF07F017
:1017F000C00E07160750800A05E13D9508C03EFF60
:101800003D85120036CF07F0C00E07160750C00AFC
:10181000D8A412003A9508C03BFF3A851200096E21
:101820003F0E0912FC0E06124951C0090914496FF6
:1018300049510F090614496F050EF66EF76A300E0E
:10184000F86E0800F5CF07F007A202D0086801D0B3
:10185000086A09503F0A02E1989012000950BF0A35
:1018600007E19890085002E096981200999A1200A9
:1018700009507F0A03E00928D8A412009890085064
:1018800003E09698969602D0999A999898961200A5
:10189000096E3F0E0912FC0E0612B950C009091458
:1018A000B96EB9500F090614B96E050EF66EF76AD7
:1018B000300EF86E0800F5CF07F007A202D00868D6
:1018C00001D0086A09503F0A02E1949412000950BD
:1018D000BF0A07E19494085002E0969C1200999E7A
:1018E000120009507F0A03E00928D8A4120094943A
:1018F000085003E0969C969A02D0999E999C9898DD
:101900001200086E0C0EB96EFC0E36170638E8464B
:101910001F0B030B361336CF07F0070E071605E132
:10192000CA9408C0CBFFCA84070C36CF07F0070E55
:1019300007160750010A05E1049508C005FF048554
:10194000120036CF07F0070E07160750020A05E10E
:101950003D9508C03EFF3D85120036CF07F0070ECB
:1019600007160750030AD8A412003A9508C03BFF97
:101970003A85120002EE64F013EEE8F0EE6AE550EC
:10198000E150FCE1E250FAE102EE00F0640EEE6A92
:10199000E806FDE101EE00F011EE00F0EE6AE55020
:1019A000E150FCE1E250FAE100EE95F0300EEE6A13
:1019B000E806FDE15A6A596A586A576A566A340E4F
:1019C000F66E1E0EF76E010EF86E00EEC5F010EE0C
:1019D00029F00900F5CFEEFFE550E150FAE10001F2
:1019E0006AEF89F0669CF80E0E012313969C4F0E49
:1019F0002113969E668CE691E9930F01048504837A
:101A00003D853D83AF0E066E330E81EC8CF0000EEB
:101A1000076A066A93EC8EF0FC0E066E3F0E48ECE9
:101A20008CF00C0EB96E490E0F01366FEF0E066E7C
:101A3000330ED2EC8BF0000E076A066A75EC8EF05E
:101A4000FC0E066E3F0E0FEC8CF0000E146A94EF45
:101A500085F00C6E0D6A0E6A0EC00AF0010E0B6E58
:101A60000A2A02D0D8900B360A2EFCD70B500C1441
:101A700002E0858401D08594859A050E066E000EDD
:101A8000076A086A096AE7EC8EF085A60CD00EC0DA
:101A90000AF0010E0B6E0A2A02D0D8900B360A2EDD
:101AA000FCD70B500D12858A0E2A070E0E64D4D770
:101AB00085844BEC8AF0E7EC8EF00D501200F2A416
:101AC00007D0C10ED66EF294F28AF0EC8FF025D0DA
:101AD0009EAA0AD00201000E5624D96EDA6A020EBE
:101AE000DA22AECFDFFF562AA450A6AA0AD0640E8F
:101AF0000001C225D96EDA6A020EDA222ACFDFFF90
:101B0000C22BA6AE0AD0580E5724D96EDA6A040E3C
:101B1000DA220E01FACEDFFF572A05C0DAFF04C031
:101B2000D9FF110007C00BF006C00AF002D00A4A24
:101B30000B2A0AC0D9FF0BC0DAFFDF5005E0F7D748
:101B40000A4A0B2A084A092A08C0F6FF09C0F7FF0B
:101B5000000EF86E0AC0D9FF0BC0DAFF0D0EF76455
:101B600003D00800F55005D0F6CFE1FFF7CFE2FF34
:101B7000E750DF6EDF50D8B41200E2D7C9EC8FF027
:101B800006C016F007C017F008C018F009C019F019
:101B9000C9EC8FF006C00EF007C00FF008C010F0BF
:101BA00009C011F016500E5C126E17500F58136ECC
:101BB00018501058146E19501158156E0A50125CB6
:101BC0000B5013580C5014580D501558D8B0120023
:101BD000DFD70E6A0F6A106A116A06A008D00A5091
:101BE0000E260B500F220C5010220D501122D890AF
:101BF0000A360B360C360D36D890093208320732C9
:101C000006320950061007100810E7E10EC006F072
:101C10000FC007F010C008F011C009F012000A6AE6
:101C20000B6A095008101BE0010E0C6E04D0D8900E
:101C3000083609360C2A09AEFAD7D8900A360B3680
:101C40000850065C0950075805E30850065E095025
:101C5000075A0A80D890093208320C2EEED70AC0F3
:101C600006F00BC007F01200206E859C1E6A1F6AEA
:101C700009D020501E24D96EDA6ADF5029EC8DF08D
:101C80001E4A1F2A1A501B6E1C6A1F50800A1D6EA6
:101C90001B501E5C1C50800A1D58EBE3858C5A506B
:101CA0000A6E0B6A0C6A0D6ABEEF8DF010500F10B1
:101CB00017E0010E116E04D0D8900F361036112A9D
:101CC00010AEFAD70F500D5C10500E5804E30F50B1
:101CD0000D5E10500E5AD89010320F32112EF2D7DE
:101CE0000DC00DF00EC00EF0120006C008F007C0C7
:101CF00009F0060ED89008360936E82EFBD708C042
:101D00000AF009C00BF00BC04AFF0AC008F0D890D7
:101D10000832D8900832300E08160F014951CF0B07
:101D20000810496F120006C008F007C009F0060E3F
:101D3000D89008360936E82EFBD708C00AF009C04B
:101D40000BF00BC0BAFF0AC008F0D8900832D89048
:101D50000832300E0816B950CF0B0810B96E1200B9
:101D6000200E456F700EC06E836B010E8B6F540E8C
:101D70008A6FC1940E018D9D8D9F8D9B468D998C90
:101D80000E0E866F876F8C6BC18E320E066E076AE1
:101D9000086A096AE7EF8EF0076E11D00E01FEA304
:101DA000FDD706C0F9FE1200ACA2FED706C0ADFFFB
:101DB00012000F0132A3FDD706C01DFF120007500D
:101DC000EDE0010AF1E0030AD8A41200F2D7FD0EFB
:101DD00005D0050EE82EFED700F0FE0E0626FF0EFB
:101DE0000722082209220950800A800F08E1000E0C
:101DF000085C05E1000E075C02E1010E065CD8A05C
:101E00001200E7D70001C005C111D8B41200B18C8F
:101E1000B18EB198B19AB18EA092B180000EC16F0F
:101E2000010EC06FD70ED56EF184F294F28AC10E06
:101E3000D66EC10C01420000000000000001450008
:101E40005A5A5A5A5A5A014300005A5A5A5A5A016F
:101E50004400010300000000014300010000226A69
:101E6000FF0E246E4E0E236E000EB7EC82F0E9ECEE
:101E70008FF00009FCE0E9EC8FF02B6E2B04D8A466
:101E80001200F9D79380938293849386669CF20E16
:101E90003717F10E3817668CF18AF09CF090F086B7
:101EA000F186F192F094F08AF10C06500802F3CF1B
:101EB0000AF0F4CF0BF006500902F3500B2607503E
:101EC0000802F3500B260AC006F00BC007F0120000
:101ED000800E086E010E096ED8900634D96E073454
:101EE000DA6E0850D9260950DA22DECF06F0DDCFAF
:101EF00007F012000F01539F0E01476B466B98804D
:101F00009882988498869888E683E685E687110EFD
:101F10000F01546F110C050E1A6EE90E34EC8EF0A1
:101F2000090E1A6E0001E00E34EC8EF0090E1A6EE6
:101F30000001D70E34EF8EF07AEC8FF0F2EC8CF0DB
:101F400060EC87F0B4EC8AF042EC8FF0B0EC8EF0ED
:101F5000D2EF8FF05850030A01E1010C580401E15F
:101F6000020C58500C0A01E1030C58501200226A6E
:101F7000FF0E246E2A0E236E000EB7EC82F0FFD700
:101F8000226AFF0E246E930E236E000EB7EC82F0D1
:101F9000FFD7B2C006F0B3C007F0B4C008F0B5C0B8
:101FA00009F01200C10ED66E0001B26BB36BB46BB8
:101FB000B56B1200066E06500001950FD96EDA6AF5
:101FC000DF5012000E01000EE4B3010E066E065043
:101FD00012000E01000EE4B7010E066E065012004C
:101FE0000001B22B000EB323B423B523000C000E66
:101FF00086B4010E066E06501200000E86B0010E69
:06200000066E06501200FE
:10FFF000A0F701F023F0FFF7FBFFFFFC1DF0F8F383
:00000001FF
