:040000007BEF00F0A2
:10000800FACF12F0FBCF13F0E9CF14F0D8EF8CF051
:10001800D8CF01F0E8CF02F0E0CF03F0FACF04F038
:10002800FBCF05F0E9CF06F0EACF07F0E1CF08F003
:10003800E2CF09F0D9CF0AF0DACF0BF0F3CF0CF00A
:10004800F4CF0DF0F6CF0EF0F7CF0FF0F8CF10F099
:10005800F5CF11F0F0A013D081A008D0FF0E26260E
:10006800FF0E2722FF0E2822FF0E05D0010E26269E
:10007800000E27222822292200D0F09015D0F0A4C3
:1000880013D081A408D0FF0E2E26FF0E2F22FF0EBC
:100098003022FF0E05D0010E2E26000E2F22302210
:1000A800312200D0F09400D011C0F5FF10C0F8FF45
:1000B8000FC0F7FF0EC0F6FF0DC0F4FF0CC0F3FF32
:1000C8000BC0DAFF0AC0D9FF09C0E2FF08C0E1FF90
:1000D80007C0EAFF06C0E9FF05C0FBFF04C0FAFF3E
:1000E80003C0E0FF02C0E8FF01C0D8FF100040EFE6
:0200F8008DF089
:10F8D200000000C90092015B022403ED03B6047E1E
:10F8E2000547061007D907A1086A09320AFB0AC3AD
:10F8F2000B8B0C530D1B0EE30EAB0F721039110064
:10F9020012C7128E1355141B15E115A7166D173366
:10F9120018F818BD19821A461B0B1CCF1C931D56D2
:10F922001E191FDC1F9F2061212322E422A62367C8
:10F93200242725E725A72667272628E528A3296166
:10F942002A1E2BDB2B982C542D102ECC2E862F41C9
:10F9520030FB30B4316D322633DE3396344D35030D
:10F9620036B9366F372438D8388C393F3AF23AA450
:10F972003B563C073DB73D673E163FC53F734020AF
:10F9820041CD4179422543D0437A442345CC457445
:10F99200461C47C34769480E49B349574AFA4A9D2C
:10F9A2004B3F4CE04C804D204EBF4E5D4FFA4F977F
:10F9B200503351CE51685201539A533254C9545F55
:10F9C20055F45589561D57B0574258D3586359F3C9
:10F9D20059815A0F5B9C5B285CB35C3D5DC65D4FF1
:10F9E2005ED65E5D5FE25F6760EB606E61F06171E3
:10F9F20062F1627063EE636B64E7646265DD6556B3
:10FA020066CE664567BC673168A56819698B69FC73
:10FA1200696C6ADB6A4A6BB76B236C8E6CF86C613B
:10FA22006DC96D306E956EFA6E5E6FC06F22708218
:10FA320070E17040719D71F9715472AE7206735E1D
:10FA420073B5730A745E74B17403755475A475F357
:10FA52007540768D76D87622776B77B377F9773FD4
:10FA6200788378C678087949798979C779047A419F
:10FA72007A7C7AB57AEE7A257B5C7B917BC47BF7C4
:10FA82007B297C597C887CB67CE27C0E7D387D614A
:10FA92007D897DB07DD57DF97D1C7E3E7E5E7E7E3C
:10FAA2007E9C7EB97ED47EEF7E087F207F377F4C9E
:10FAB2007F617F747F867F967FA67FB47FC17FCD73
:10FAC2007FD77FE07FE87FEF7FF57FF97FFC7FFEC6
:10FAD2007FFF7FFE7FFC7FF97FF57FEF7FE87FE08E
:10FAE2007FD77FCD7FC17FB47FA67F967F867F74CD
:10FAF2007F617F4C7F377F207F087FEF7ED47EB986
:10FB02007E9C7E7E7E5E7E3E7E1C7EF97DD57DB0B5
:10FB12007D897D617D387D0E7DE27CB67C887C5955
:10FB22007C297CF77BC47B917B5C7B257BEE7AB561
:10FB32007A7C7A417A047AC779897949790879C6CF
:10FB42007883783F78F977B3776B772277D8768D99
:10FB5200764076F375A47554750375B1745E740AB4
:10FB620074B5735E730673AE725472F9719D71400F
:10FB720071E17082702270C06F5E6FFA6E956E30A6
:10FB82006EC96D616DF86C8E6C236CB76B4A6BDB62
:10FB92006A6C6AFC698B691969A5683168BC67453A
:10FBA20067CE665666DD656265E7646B64EE637018
:10FBB20063F1627162F0616E61EB606760E25F5DEA
:10FBC2005FD65E4F5EC65D3D5DB35C285C9C5B0F9D
:10FBD2005B815AF3596359D3584258B0571D57891C
:10FBE20056F4555F55C95432549A5301536852CE54
:10FBF2005133519750FA4F5D4FBF4E204E804DE02A
:10FC02004C3F4C9D4BFA4A574AB3490E496948C387
:10FC1200471C477446CC4523457A44D04325437953
:10FC220042CD4120417340C53F163F673EB73D0775
:10FC32003D563CA43BF23A3F3A8C39D83824386FCF
:10FC420037B93603364D359634DE3326336D32B44A
:10FC520031FB304130862FCC2E102E542D982CDBC8
:10FC62002B1E2B612AA329E52826286727A726E72A
:10FC72002527256724A623E422232261219F20DC55
:10FC82001F191F561E931DCF1C0B1C461B821ABD2B
:10FC920019F81833186D17A716E1151B1555148E90
:10FCA20013C712001239117210AB0FE30E1B0E5361
:10FCB2000D8B0CC30BFB0A320A6A09A108D9071083
:10FCC2000747067E05B604ED0324035B029201C9D1
:10FCD20000000037FF6EFEA5FDDCFC13FC4AFB8230
:10FCE200FAB9F9F0F827F85FF796F6CEF505F53D83
:10FCF200F475F3ADF2E5F11DF155F08EEFC7EE00AC
:10FD0200EE39ED72ECABEBE5EA1FEA59E993E8CD87
:10FD1200E708E743E67EE5BAE4F5E331E36DE2AAFC
:10FD2200E1E7E024E061DF9FDEDDDD1CDD5ADC99E6
:10FD3200DBD9DA19DA59D999D8DAD71BD75DD69F28
:10FD4200D5E2D425D468D3ACD2F0D134D17AD0BFA5
:10FD5200CF05CF4CCE93CDDACC22CC6ACBB3CAFD41
:10FD6200C947C991C8DCC728C774C6C1C50EC55CDE
:10FD7200C4AAC3F9C249C299C1EAC03BC08DBFE05F
:10FD8200BE33BE87BDDBBC30BC86BBDDBA34BA8CA9
:10FD9200B9E4B83DB897B7F2B64DB6A9B506B563A2
:10FDA200B4C1B320B380B2E0B141B1A3B006B0692F
:10FDB200AFCDAE32AE98ADFFAC66ACCEAB37ABA139
:10FDC200AA0CAA77A9E3A850A8BEA72DA79DA60DA5
:10FDD200A67FA5F1A464A4D8A34DA3C3A23AA2B15D
:10FDE200A12AA1A3A01EA0999F159F929E109E8F4B
:10FDF2009D0F9D909C129C959B199B9E9A239AAA5B
:10FE0200993299BB984498CF975B97E79675960479
:10FE12009694952595B6944994DD93729308939F91
:10FE2200923792D0916B910691A2904090DE8F7E94
:10FE32008F1F8FC08E638E078EAC8D528DFA8CA26F
:10FE42008C4B8CF68BA28B4F8BFD8AAC8A5C8A0D15
:10FE52008AC08973892889DE8895884D880788C178
:10FE6200877D873A87F886B78677863986FC85BF8D
:10FE72008584854B851285DB84A4846F843C840948
:10FE820084D783A78378834A831E83F282C8829FA2
:10FE920082778250822B820782E481C281A2818290
:10FEA20081648147812C811181F880E080C980B40E
:10FEB200809F808C807A806A805A804C803F803319
:10FEC2008029802080188011800B800780048002A6
:10FED2008001000A006400E80310273C04429F6A84
:10FEE200429001424DBB40EC473E8E1FBB3C044258
:10FEF2005A8B420444429C4F4100803F4D4553532C
:10FF02004147455F474F45535F484552450D0A00FB
:10FF12005243204D6F64650A4552523A20256920AA
:10FF2200200057616E646572696E0A2D2D2D2E2E8A
:10FF32002D2D2D0053656C65637465640A53656CE1
:10FF420066546573740053656C662043616C0A578E
:10FF520061697420506C7A005243204D6F64650AC7
:10FF62005365617263682E2E0053656C6563746518
:10FF7200640A5243204D6F64650053656C65637477
:10FF820065640A556E6B6E6F776E005765206172FD
:10FF9200650A77696E6E696E67210053656C6563E9
:10FFA2007465640A57616E6465720053656C6563BB
:10FFB2007465640A44656275670053656C656374B1
:10FFC20065640A4D6174636800616E613A25690A6D
:10FFD200747970652025690041542B434D47463D95
:10FFE200310041542B4353510D0A0041542B434DD0
:0EFFF20047533D00416E613A2569002500002D
:020000040001F9
:100000000201DA6F21EE32F012EEC6F0130EDBCFF2
:10001000E3FFE806FCE2790E0201DD6F000E02014B
:10002000DE6F76C024F00201DA5150EC83F0000E4E
:100030000201E26F000EE16FB4D00201E151000154
:10004000772500017D6F0201E25100017821000156
:100050007E6F7DC0F6FF7EC0F7FF000EF86E0D0EBE
:10006000F76403D00800F55005D0F6CFE9FFF7CFCD
:10007000EAFFEF50250AD8A463D0010E0201E12562
:1000800000017D6F000E0201E22100017E6F77C04A
:100090007FF078C080F000017D5100017F270001D2
:1000A0007E51000180237FC0F6FF80C0F7FF000E65
:1000B000F86E0D0EF76403D00800F55005D0F6CFAA
:1000C000E9FFF7CFEAFFEF50250AD8A40BD0C60E00
:1000D000206E020E216EFD0E226EFF0E236E53EC7B
:1000E00090F02AD0DDC2D9FFDEC2DAFFDECFDBF22C
:1000F000DDCFDCF2020E0201DD27000EDE23B20EA0
:100100000001676F020E0001686FD70E0001696F72
:10011000FF0E00016A6FDBC26BF0DCC26CF0FAEC20
:1001200088F0C60E206E020E216EB20E226E020EF6
:10013000236E53EC90F000D00201E14BE22B2DD066
:100140000201E1510001772500017D6F0201E251BA
:100150000001782100017E6F7DC0F6FF7EC0F7FFB1
:10016000000EF86E0D0EF76403D00800F55005D0B0
:10017000F6CFE9FFF7CFEAFFEF500201DF6F000E85
:100180000201E06FC60E206E020E216EDF0E226E9F
:10019000020E236E53EC90F000D00201E14BE22BF3
:1001A00000D00201E1510001772500017D6F0201BD
:1001B000E2510001782100017E6F7DC0F6FF7EC014
:1001C000F7FF000EF86E0D0EF76403D00800F5502F
:1001D00005D0F6CFE9FFF7CFEAFFEF500009D8B41A
:1001E0000DD00201E2BF29D70201E25107E1C80E9A
:1001F0000201E15DD8B002D020D700D0000E02018C
:10020000E46F000EE36F33D2C60E0201E325D96E10
:10021000020E0201E421DA6E0A0EDE18D8A407D01D
:1002200000017629246E000E50EC83F01CD2020EE1
:100230000001606F000E616F000E626F000E636F51
:100240002FEC8EF08380FAD1280E206E000E216EE6
:10025000000E226E000E236E2FEC91F08488C60EE5
:100260000201E325D96E020E0201E421DA6EDF50AD
:1002700000017D6F00017D3B0F0E7D170001D890BE
:100280007D330001D8907D330001D8907D33010E7D
:1002900000017D1700017D3B7D47875000017D19DE
:1002A000DF0B7D19876EC60E0201E325D96E020EA3
:1002B0000201E421DA6EDF5000017D6F00017D3B19
:1002C0000F0E7D170001D8907D330001D8907D334B
:1002D000010E00017D1700017D47845000017D194A
:1002E000FD0B7D19846EC60E0201E325D96E020E48
:1002F0000201E421DA6EDF5000017D6F00017D3BD9
:100300000F0E7D170001D8907D33010E00017D177F
:10031000845000017D19FE0B7D19846EC60E02010A
:10032000E325D96E020E0201E421DA6EDF500001EE
:100330007D6F00017D3B0F0E7D17010E00017D17C3
:1003400000017D477D47845000017D19FB0B7D191D
:10035000846E280E206E000E216E000E226E000E9E
:10036000236E2FEC91F08498280E206E000E216EE3
:10037000000E226E000E236E2FEC91F08488C60EC4
:100380000201E325D96E020E0201E421DA6EDF508C
:1003900000017D6F0001D8907D330001D8907D333E
:1003A0000001D8907D33010E00017D1700017D3BD7
:1003B0007D47875000017D19DF0B7D19876EC60EC2
:1003C0000201E325D96E020E0201E421DA6EDF504C
:1003D00000017D6F0001D8907D330001D8907D33FE
:1003E000010E00017D1700017D47845000017D1939
:1003F000FD0B7D19846EC60E0201E325D96E020E37
:100400000201E421DA6EDF5000017D6F0001D89017
:100410007D33010E00017D17845000017D19FE0B14
:100420007D19846EC60E0201E325D96E020E02010B
:10043000E421DA6EDF5000017D6F010E00017D17AF
:1004400000017D477D47845000017D19FB0B7D191C
:10045000846E280E206E000E216E000E226E000E9D
:10046000236E2FEC91F0E8D000F08488C60E0201D4
:10047000E325D96E020E0201E421DA6EDF5000019D
:100480007D6F000E7DBF010E7D6F010E00017D1797
:1004900000017D3B7D47875000017D19DF0B7D19F1
:1004A000876EC60E0201E325D96E020E0201E42119
:1004B000DA6EDF5000017D6F060E00017E6F0001D5
:1004C000D8907D3300017E2FFAD7010E00017D17F1
:1004D00000017D47845000017D19FD0B7D19846E5C
:1004E000C60E0201E325D96E020E0201E421DA6E86
:1004F000DF5000017D6F050E00017E6F0001D89076
:100500007D3300017E2FFAD7010E00017D17845044
:1005100000017D19FE0B7D19846EC60E0201E325D4
:10052000D96E020E0201E421DA6EDF5000017D6F08
:1005300000017D3B0F0E7D17010E00017D170001AC
:100540007D477D47845000017D19FB0B7D19846E2A
:10055000C60E0201E325D96E020E0201E421DA6E15
:10056000DF5000017D6F0001D8907D330001D890ED
:100570007D330001D8907D33010E00017D17875037
:1005800000017D19FE0B7D19876EC60E0201E32561
:10059000D96E020E0201E421DA6EDF5000017D6F98
:1005A0000001D8907D330001D8907D33010E000109
:1005B0007D1700017D47875000017D19FD0B7D19D6
:1005C000876EC60E0201E325D96E020E0201E421F8
:1005D000DA6EDF5000017D6F0001D8907D33010E8F
:1005E00000017D1700017D477D47875000017D197F
:1005F000FB0B7D19876EC60E0201E325D96E020E34
:100600000201E421DA6EDF5000017D6F010E00016E
:100610007D1700017D3B7D47845000017D19DF0B74
:100620007D19846E280E206E000E216E000E226E43
:10063000000E236E2FEC91F0849808D03D50010AF3
:10064000D8B402D6030AD8B40FD700D0020E0001E6
:10065000606F000E616F000E626F000E636F2FEC13
:100660008EF0839000D00201E34BE42B00D0C60E45
:100670000201E325D96E020E0201E421DA6EDF5099
:10068000D8B412000201E4BFBFD50201E45107E172
:10069000C80E0201E35DD8B01200B6D512001200F8
:1006A0000001746F2450400DF35000017425800F39
:1006B0000001756F030E0001606F000E616F000E88
:1006C000626F000E636F2FEC8EF088D1280E206EC3
:1006D000000E216E000E226E000E236E2FEC91F0A4
:1006E0008488000175390F0B0001706F716B800EEB
:1006F00000017027000E71230001713571337033D2
:10070000000171357133703300017135713370330D
:10071000010E000170170001703B70478750000107
:100720007019DF0B7019876E000175390F0B00010E
:10073000706F716B800E00017027000E7123000135
:100740007135713370330001713571337033010EBF
:100750000001701700017047845000017019FD0BF3
:100760007019846E000175390F0B0001706F716B89
:10077000800E00017027000E712300017135713168
:100780000001736F000170310001726F010E0001F2
:100790007217845000017219FE0B7219846E75C0B5
:1007A00070F00001703B0F0E7017800E0001702773
:1007B000010E00017017000170477047845000015E
:1007C0007019FB0B7019846E280E206E000E216EBE
:1007D000000E226E000E236E2FEC91F08498280EEE
:1007E000206E000E216E000E226E000E236E2FEC86
:1007F00091F0848875C070F00001D89070330001CA
:10080000D89070330001D8907033010E000170173A
:100810000001703B7047875000017019DF0B7019A1
:10082000876E75C070F00001D89070330001D890C9
:100830007033010E000170170001704784500001F1
:100840007019FD0B7019846E75C070F00001D8909E
:100850007033010E00017017845000017019FE0BF7
:100860007019846E75C070F0010E000170170001E0
:1008700070477047845000017019FB0B7019846E2B
:10088000280E206E000E216E000E226E000E236ECA
:100890002FEC91F08498120000F084880001706BB6
:1008A00075AF02D00001702B010E0001701700011E
:1008B000703B7047875000017019DF0B7019876E0D
:1008C00075C070F0060E0001716F0001D890703392
:1008D0000001712FFAD7010E000170170001704757
:1008E000845000017019FD0B7019846E75C070F092
:1008F000050E0001716F0001D89070330001712F57
:10090000FAD7010E00017017845000017019FE0B18
:100910007019846E75C070F00001703B0F0E701777
:10092000010E0001701700017047704784500001EC
:100930007019FB0B7019846E75C070F00001D890AF
:1009400070330001D89070330001D8907033010EDD
:1009500000017017875000017019FE0B7019876E27
:1009600075C070F00001D89070330001D8907033DA
:10097000010E0001701700017047875000017019C7
:10098000FD0B7019876E75C070F00001D890703340
:10099000010E000170170001704770478750000179
:1009A0007019FB0B7019876E75C070F0010E000195
:1009B00070170001703B7047845000017019DF0B05
:1009C0007019846E280E206E000E216E000E226EAD
:1009D000000E236E2FEC91F0849812003D50010A16
:1009E000D8B474D6030AD8A4120056D71200010E48
:1009F0003D6E0E01459B0E01479D0E0146970E016F
:100A000046950E0146930E01E38FA7980E01F197CC
:100A10000E01D99B0E01D89F0E01DA9B849484901D
:100A20008492879A84988390869E959096909692C9
:100A3000969496969698999A16EC91F0640E000109
:100A4000606F000E616F000E626F000E636F2FEC1F
:100A50008EF08390869E280E206E000E216E000E72
:100A6000226E000E236E2FEC91F08488879A849278
:100A700084808484280E206E000E216E000E226E6B
:100A8000000E236E2FEC91F08498320E0001606FFF
:100A9000000E616F000E626F000E636F2FEC8EF020
:100AA000280E206E000E216E000E226E000E236EA8
:100AB0002FEC91F08488879A849284808484280E15
:100AC000206E000E216E000E226E000E236E2FECA3
:100AD00091F08498320E0001606F000E616F000E7D
:100AE000626F000E636F2FEC8EF0280E206E000EEA
:100AF000216E000E226E000E236E2FEC91F0848882
:100B0000879A849284808484280E206E000E216E41
:100B1000000E226E000E236E2FEC91F08498320EA0
:100B20000001606F000E616F000E626F000E636F58
:100B30002FEC8EF0280E206E000E216E000E226E1D
:100B4000000E236E2FEC91F08488879A8492848023
:100B50008494280E206E000E216E000E226E000E70
:100B6000236E2FEC91F08498050E0001606F000E4B
:100B7000616F000E626F000E636F2FEC8EF0280E17
:100B8000206E000E216E000E226E000E236E2FECE2
:100B900091F08488879A849284808494280E206EB1
:100BA000000E216E000E226E000E236E2FEC91F0CF
:100BB0008498280E206E000E216E000E226E000E0C
:100BC000236E2FEC91F08488878A84928490849499
:100BD000280E206E000E216E000E226E000E236E77
:100BE0002FEC91F08498280E206E000E216E000EDE
:100BF000226E000E236E2FEC91F08488879A8492E7
:100C000084908494280E206E000E216E000E226EB9
:100C1000000E236E2FEC91F08498280E206E000EAB
:100C2000216E000E226E000E236E2FEC91F0848850
:100C3000878A848284808484280E206E000E216E30
:100C4000000E226E000E236E2FEC91F08498280E79
:100C5000206E000E216E000E226E000E236E2FEC11
:100C600091F08488879A849284908494280E206ED0
:100C7000000E216E000E226E000E236E2FEC91F0FE
:100C80008498280E206E000E216E000E226E000E3B
:100C9000236E2FEC91F08488879A849284908484C8
:100CA000280E206E000E216E000E226E000E236EA6
:100CB0002FEC91F08498280E206E000E216E000E0D
:100CC000226E000E236E2FEC91F08488879A849216
:100CD00084908494280E206E000E216E000E226EE9
:100CE000000E236E2FEC91F08498280E206E000EDB
:100CF000216E000E226E000E236E2FEC91F0848880
:100D0000879A848284808494280E206E000E216E3F
:100D1000000E226E000E236E2FEC91F084981200CC
:100D200000017F6F7FC069F0070E00016A6F00014C
:100D30006935693300016A2FFAD7010E000169177E
:100D4000010E0001691B0E01E45100016919FE0B3F
:100D500069190E01E46F68C069F0070E00016A6F3F
:100D600000016935693300016A2FFAD7010E0001CD
:100D70006917000169470E01E75100016919FD0B70
:100D800069190E01E76F00017F51800A1C0FD8A07E
:100D900006D0000E0001726F640E716F08D0000162
:100DA0007F510001716F726B71BF720700D071C00B
:100DB0007FF000016851800A1C0FD8A006D0000EF9
:100DC0000001746F640E736F08D000016851000158
:100DD000736F746B73BF740700D073C068F0000149
:100DE0007F51800AE30FD8B006D0FF0E0001766F66
:100DF0009C0E756F08D000017F510001756F766BF6
:100E000075BF760700D075C07FF000016851800A79
:100E1000E30FD8B006D0FF0E0001786F9C0E776FFD
:100E200008D0000168510001776F786B77BF7807B1
:100E300000D077C068F07FC069F0070E00016A6FCC
:100E400000016935693300016A2FFAD70001695141
:100E500000016B6F6C6B6BBF6C0700016BB116D040
:100E60007FC069F000016A6B69BF6A070001691FF2
:100E70006A1F694B6A2B640E000169250001796FB6
:100E8000000E00016A2100017A6F25D000017FBFAA
:100E900008D000017F5100017B6F7C6B7BBF7C071A
:100EA00015D000017F51206E216A20BE2106000E60
:100EB000236E010E226E9DEC91F0201E211E204A11
:100EC000212A20C07BF021C07CF000D07BC079F0CB
:100ED0007CC07AF000D079C07FF068C069F0070E5E
:100EE00000016A6F00016935693300016A2FFAD782
:100EF0000001695100016B6F6C6B6BBF6C070001E7
:100F00006BB108D00001685100017D6F7E6B7DBF21
:100F10007E070ED0640E0001682500017D6FE86A2F
:100F2000D8B0E82A000168BFE80600017E6F00D053
:100F30007DC068F000017F51206E216A20BE21062D
:100F4000000E236ED00E226E9DEC91F020C060F05A
:100F500021C061F0000E0001636F640E626F70ECDF
:100F60008CF060C06DF061C06EF000016851206EC1
:100F7000216A20BE2106000E236ED00E226E9DEC4B
:100F800091F020C060F021C061F0000E0001636F9D
:100F9000640E626F70EC8CF060C06FF061C070F036
:100FA0006FC020F070C021F0C4EC90F06DC020F054
:100FB0006EC021F0A5EC90F01200CDC078F0CEC04C
:100FC00079F0CFC07AF0D0C07BF00001781F791F94
:100FD0007A1F7B1F782B000E79237A237B23F3EC77
:100FE00091F00001785120240001926F00017951A5
:100FF00021200001936F00017A5122200001946F9B
:1010000000017B5123200001956F000195BF10D096
:10101000000195510001941108E1DD0E0001925D7F
:10102000050E00019359D8A003D083EC90F000D0B6
:10103000D6C078F00001796B7A6B7B6B0001785138
:101040000001925D000179510001935900017A512C
:101050000001945900019551800A00017C6F000144
:101060007B51800A00017C59D8B02AD092C078F018
:1010700093C079F094C07AF095C07BF00001781F9E
:10108000791F7A1F7B1F782B000E79237A237B230D
:101090000001D651000178250001606F000E0001AB
:1010A00079210001616F000E00017A210001626F59
:1010B000000E00017B210001636F2FEC8EF000D049
:1010C000D1C0D3F0D2C0D4F08584858A859C040E2B
:1010D000206E000E216E000E226E000E236E2FEC8D
:1010E00091F020EED7F010EE89F0080EDBCFE3FF91
:1010F000E806FCE220EEC1F010EE7DF00B0EDBCF37
:10110000E3FFE806FCE2000E0001976F000E966F09
:10111000000197BF0AD00001975120E1090E00019C
:10112000965DD8B01BD001D019D0AC0E0001962529
:10113000D96E000E00019721DA6E890E0001962506
:10114000E16E000E00019721E26EE7509AEC8DF0FF
:10115000DF6E0001964B972BDBD700D0790E000194
:10116000AD19D8A435D0000E0001996F000E986F0C
:10117000000199BF0AD0000199512AE10C0E00012B
:10118000985DD8B025D001D023D0090E0001982554
:101190000001786F000E000199210001796FAC0EFB
:1011A00000017825D96E000E00017921DA6E7D0EDE
:1011B00000019825E16E000E00019921E26EE750D2
:1011C0009AEC8DF0DF6E0001984B992BD1D700D0AF
:1011D000858C20EEAFF0DECFD1F0DDCFD2F0F3EC96
:1011E00091F020C0CDF021C0CEF022C0CFF023C0BE
:1011F000D0F012006B0E00016D6F000E00016E6FDB
:10120000B9D0250E00017319D8B40AD067C0D9FF30
:1012100068C0DAFF73C0DFFF0001674B682BAAD0FC
:10122000000E00016F6F04D0B7D019D0A3D017D033
:1012300069C0F6FF6AC0F7FF0001694B6A2B000E18
:10124000F86E0800F5CF73F000017351000AD8B4AE
:10125000A3D0640AD8B403D00D0AD8A48BD06DC033
:10126000D9FF6EC0DAFFDECF71F0DDCF72F0020E73
:1012700000016D27000E6E23000172AF09D0030E2E
:1012800000016F130001716D721FD8B0722B00D076
:10129000010E0001736F050E00017319D8B41DD043
:1012A00001D01BD000017351020DD30EF324F66E52
:1012B000FE0EF420F76EF86A000EF8220900F550D1
:1012C0000001715D0900F55000017259D8A005D0E8
:1012D00001D003D00001732BDED76FC025F0030EC1
:1012E0002516D8B40AD067C0D9FF68C0DAFF2D0E22
:1012F000DF6E0001674B682B00D073C070F032D0F6
:1013000000017051020DD30EF324F66EFE0EF42090
:10131000F76EF86A000EF8220900F5CF22F00A00F5
:10132000F5CF23F071C020F072C021F0ECEC8FF00B
:1013300020C063F021C064F0000E0001666F0A0E49
:10134000656F20EC90F000016351300F0001736F66
:1013500067C0D9FF68C0DAFF73C0DFFF0001674BC9
:10136000682B00D00001700700017029D8B402D0AA
:10137000C7D700D069C0F6FF6AC0F7FF0001694B0C
:101380006A2B000EF86E0800F5CF73F00001735160
:10139000D8B402D036D700D067C0D9FF68C0DAFF12
:1013A000000EDF6E1200120097949786979A979C12
:1013B0008584858ADDEC87F0DDEC87F0410E000145
:1013C000AD19D8B40CD0730E0001AD19D8B407D044
:1013D000790E0001AD19D8B402D0010E1200010E31
:1013E0000001D66F000E0001A46F000EA36F000174
:1013F000A4BF0AD00001A45106E10B0E0001A35DB9
:10140000D8B08CD001D08AD0FB0E0001706F000ED6
:101410000001716F050E0001726F7DEC8FF0040EFC
:10142000206E000E216E000E226E000E236E2FEC39
:1014300091F08584858A859C040E206E000E216EB5
:10144000000E226E000E236E2FEC91F0000E0001B4
:10145000A66F000EA56F0001A6BF0AD00001A6511D
:1014600025E1090E0001A55DD8B020D001D01ED025
:101470009A0E0001A525D96E000E0001A621DA6E94
:10148000E00E0001A525E16E000E0001A621E26E2E
:10149000E7509AEC8DF0DF6E0001A54BA62B000102
:1014A000A6BFE6D70001A65101E1DBD7858C9DC020
:1014B000D5F0F20E0001706F000E0001716F090E81
:1014C0000001726F7DEC8FF0E90E0001706F000E6D
:1014D0000001716F090E0001726F7DEC8FF0DDEC81
:1014E00087F0730E0001AD19D8B418D001D016D012
:1014F0000A0E0001A3190001A411D8A402D0020E03
:1015000012000001D62B0001A34BA42B0001A4BFA5
:101510007BD70001A45102E170D700D0000E120069
:101520001200D08EB1EC91F000D0FCEC91F00001F3
:10153000A86F0CEC92F00001A96F0001D890A935BA
:101540000001AA6F13EC92F00001AB6F0001D8907C
:10155000AB370001D890AB350001AA250001A825C2
:101560000101F56F4ED0000E0001766F6B0E000189
:10157000776FFF0E0001786F000E00EC80F053D003
:10158000000E0001766FBC0E0001776FFF0E0001A8
:10159000786F000E00EC80F046D0000E0001766FF0
:1015A0009D0E0001776FFF0E0001786F000E00ECBA
:1015B00080F039D0000E0001766F360E0001776F93
:1015C000FF0E0001786F000E00EC80F02CD0000EB2
:1015D0000001766FAD0E0001776FFF0E0001786F8E
:1015E000000E00EC80F01FD0000E0001766F7C0E24
:1015F0000001776FFF0E0001786F000E00EC80F0A5
:1016000012D00101F551000AD8B4ADD7010AD8B4FF
:10161000B7D7030AD8B4C1D7060AD8B4CBD7010AC2
:10162000D8B4D5D7E1D7320E0001606F000E616FDC
:10163000000E626F000E636F2FEC8EF004EC92F0E0
:10164000E806D8B472D7060E0101F5616ED70FD047
:101650004BEC8BF06AD7CEEC91F067D7C0EC91F0F1
:1016600064D7FCEC90F061D723EC92F05ED70101D7
:10167000F551000AD8B4ECD7010AD8B4ECD7030A64
:10168000D8B4ECD7060AD8B4ECD7010AD8B4ECD752
:101690004CD77BEF00F0000E0001766F5A0E000170
:1016A000776FFF0E0001786F000E00EC80F0D4EC35
:1016B00089F01DD0000E0001766F120E0001776FC9
:1016C000FF0E0001786FF4C179F000017A6B000E13
:1016D00000EC80F0F40E0001606F010E616F000EEF
:1016E000626F000E636F2FEC8EF0D4EC89F0010175
:1016F000F46F00D00101F4510101D8A4DBD7E1EC73
:1017000090F00101F36F000E0001766FCB0E000127
:10171000776FFF0E0001786F070EDCEC91F000018F
:10172000A76F0001A7510001796F7A6BF3C17BF0BD
:1017300000017C6B000E00EC80F000D0DDEC87F047
:10174000080EDCEC91F00001A76F0001A751780DA5
:10175000F3CF60F0F4CF61F0000E0001636F6269B7
:1017600070EC8CF0C40E000160250101EF6FFF0EDC
:10177000000161210101F06F060EDCEC91F0000127
:10178000A76F0001A751780DF3CF60F0F4CF61F09F
:10179000000E0001636F626970EC8CF0C40E0001F2
:1017A00060250101F16FFF0E000161210101F26F5F
:1017B000EFC168F00101F15190EC86F0320E0001AA
:1017C000606F000E616F000E626F000E636F2FEC92
:1017D0008EF0B4D71200669CF60E0E012D17F10E96
:1017E0000E011D13F40E0E012C172F0E0E011713F0
:1017F000F60E0E012A173F0E0E011813668CF28E9C
:10180000F28C220EAF6E000E0F01306FAC94679E0B
:101810006786679C679AAC98AB8EAB9CAB88AC8AAA
:10182000AC9C9D989D8A220E0F011F6F000E0F0128
:10183000206F0F0132950F01319F0F0131870F018A
:10184000319D0F01319B0F0132990F01338F0F0131
:10185000339D0F0133890F01328B0F01329DA39805
:10186000A38A220E0F012B6F000E0F012C6F0F01A8
:101870002E950F012D9F0F012D870F012D9D0F011B
:101880002D9B0F012E990F012F8F0F012F9D0F01FF
:101890002F890F012E8B0F012E9D6198618A9588EB
:1018A0009594220E0E01FB6F000E0E01FC6F0E01CF
:1018B000FE950E01FD9F0E01FD870E01FD9D0E019F
:1018C000FD9B0E01FE990E01FF8F0E01FF9D0E0183
:1018D000FF890E01FE8B0E01FE9D619C618E120040
:1018E000000E0001656F000163AF09D00001626D59
:1018F000631FD8B0632B010E0001656F00D000019B
:1019000061AF09D00001606D611FD8B0612B010E7D
:101910000001651B00D0000E0001676F000E666FAE
:101920000001625100016311D8B431D0010E0001F1
:10193000646F07D00001D890623763370001642BD1
:1019400000D0000163BF02D0F5D700D00001D890CD
:1019500066376737000162510001605D0001635125
:1019600000016159D8A00BD0000162510001605FF5
:10197000000163510001615B0001668100D000013C
:10198000D890633362330001642FE0D700D00001A8
:1019900065510001D8B406D00001666D671FD8B04C
:1019A000672B00D066C060F067C061F012001200C3
:1019B000EACF15F0E1CF16F0E2CF17F0D9CF18F04B
:1019C000DACF19F0F3CF1AF0F4CF1BF0F6CF1CF0FA
:1019D000F7CF1DF0F8CF1EF0F5CF1FF0F2A408D01E
:1019E000C10ED66EF294F28A1AEC92F02CD000D08E
:1019F0009EAA0CD03850010D000EF324D96E010EB2
:101A0000F420DA6EAECFDFFF382A00D0A450A6AAA9
:101A10000CD03950010DC80EF324D96E030EF420FA
:101A2000DA6E2ACFDFFF392A00D0A6AE0CD03B50A9
:101A3000010DBC0EF324D96E050EF420DA6EFACE39
:101A4000DFFF3B2A00D01FC0F5FF1EC0F8FF1DC0FE
:101A5000F7FF1CC0F6FF1BC0F4FF1AC0F3FF19C04C
:101A6000DAFF18C0D9FF17C0E2FF16C0E1FF15C0AA
:101A7000EAFF14C0E9FF13C0FBFF12C0FAFF110018
:101A800003EEC8F013EEE8F0EE6AE550E150FCE139
:101A9000E250FAE103EE00F0C80EEE6AE806FDE15E
:101AA00002EE00F0B20EEE6AE806FDE101EE00F093
:101AB000C60EEE6AE806FDE100EEACF02B0EEE6A13
:101AC000E806FDE100EE26F0180EEE6AE806FDE1FC
:101AD000110EF66E230EF76E010EF86E01EEC6F0D3
:101AE00010EE29F00900F5CFEEFFE550E150FAE1E4
:101AF000E80EF66E220EF76E010EF86E00EED7F0CD
:101B000010EE29F00900F5CFEEFFE550E150FAE1C3
:101B1000420EF66E240EF76E010EF86E0900F5CF38
:101B20003EF00900F5CF3FF00900F5CF40F000018D
:101B300091EF8AF00001606F000E0001616F000EEE
:101B40000001626F32D035D062C024F0010E256EE4
:101B5000242A02D0D8902536242EFCD72550000107
:101B600060150009D8B402D0858401D08594859A87
:101B7000050E206E000E216E000E226E000E236EEA
:101B80002FEC91F085A60ED062C024F0010E256ED8
:101B9000242A02D0D8902536242EFCD725500001C7
:101BA000611300D0858A0001622B070E0001626577
:101BB000CBD78584040E206E000E216E000E226E9F
:101BC000000E236E2FEC91F0000161511200120003
:101BD000226E000E216E3F0E2212FC0E20120F010B
:101BE0004951C00922140F01496F0F0149510F09D2
:101BF00020140F01496F050EF66E000EF76E300EC1
:101C0000F86E08000001F5A202D0216803D0000E92
:101C1000216E00D03F0E2218D8A402D09890120056
:101C2000BF0E2218D8A408D098902150D8B402D062
:101C300096981200999A12007F0E2218D8B403D0F9
:101C40002228D8A4120098902150D8B403D0969896
:101C5000969602D0999A9998989612001200F3ECF1
:101C600091F020C06CF021C06DF022C06EF023C056
:101C70006FF000D06CC064F06DC065F06EC066F0AF
:101C80006FC067F00001641F651F661F671F642B2C
:101C9000000E652366236723F3EC91F00001645185
:101CA00020240001686F0001655121200001696F47
:101CB00000016651222000016A6F00016751232054
:101CC00000016B6F000160510001685D000161510E
:101CD000000169590001625100016A590001635114
:101CE00000016B59D8A0C6D71200226E0C0E0F014E
:101CF000496F3F0E0F01361720C021F0300E21161C
:101D0000D8902136D89021340F01361336CF21F0E8
:101D1000C00E2116D8A405D0CA9422C0CBFFCA8415
:101D200012000F013651C00B400AD8A407D00F0192
:101D3000049522C005FF0F01048512000F013651E2
:101D4000C00B800AD8A407D00F013D9522C03EFFEA
:101D50000F013D8512000F013651C00BC00AD8A4F7
:101D600012000F013A9522C03BFF0F013A85120085
:101D70001200226E000E216E3F0E2212FC0E201267
:101D8000B950C0092214B96EB9500F092014B96EA8
:101D9000050EF66E000EF76E300EF86E08000001AC
:101DA000F5A202D0216803D0000E216E00D03F0EB4
:101DB0002218D8A402D094941200BF0E2218D8A4DE
:101DC00008D094942150D8B402D0969C1200999EC9
:101DD00012007F0E2218D8B403D02228D8A41200F3
:101DE00094942150D8B403D0969C969A02D0999E90
:101DF000999C989812001200669CF80E0E0123130D
:101E0000969C4F0E0E012113969E668C0E01E69154
:101E10000E01E9930F0104850F0104830F013D8535
:101E20000F013D83AF0E206E330E3EEC8FF0000E9F
:101E3000216E000E206EC4EC90F0FC0E206E3F0E62
:101E4000B9EC8EF00C0EB96E490E0F01366FEF0E25
:101E5000206E330E75EC8EF0000E216E000E206E9B
:101E6000A5EC90F0FC0E206E3F0EE8EC8DF0000E1D
:101E70000001686F000E90EC86F01200226E0C0ECE
:101E8000B96EFC0E0F0136172038E8461F0B030B06
:101E90000F01361336CF21F0070E2116D8A405D036
:101EA000CA9422C0CBFFCA8412000F013651070B1F
:101EB000E806D8A407D00F01049522C005FF0F0142
:101EC000048512000F013651070B020AD8A407D06F
:101ED0000F013D9522C03EFF0F013D8512000F010D
:101EE0003651070B030AD8A412000F013A9522C0FD
:101EF0003BFF0F013A8512001200859C000E000185
:101F0000776F000E766F11D00001765100017025B9
:101F1000D96E0001775100017121DA6EDF509AEC21
:101F20008DF00001764B772B00D00001725100013B
:101F3000736F746B000173510001765D000177517E
:101F4000800A0001756F00017451800A0001755903
:101F5000D8A0DAD7858C0001D6510001606F616B83
:101F6000626B636B2FEC8EF012000E01458BC18407
:101F70000E018D9D0E018D9F0E018D9B3F0E0E015A
:101F80008A6F0E01468D998C0E0E0E01866F0E0E15
:101F90000E01876FC18E320E206E000E216E000E74
:101FA000226E000E236E2FEC91F000D0C08200D084
:101FB000C0A0FED7000E0001766FF60E0001776F0D
:101FC000FF0E0001786FC2CF79F0C3CF7AF0000E18
:101FD00000EC80F0EBD71200000E0001626F000EE3
:101FE000616F22502310D8B426D0010E0001606F1B
:101FF00006D0D890223623360001602B00D023BEB5
:1020000002D0F7D700D00001D89061376237225054
:10201000205C23502158D8A007D02250205E2350A6
:10202000215A0001618100D0D89023322232000170
:10203000602FE9D700D061C020F062C021F012000B
:102040000001655100016611D8B428D0010E246E3C
:1020500006D00001D89065376637242A00D00001E9
:1020600066BF02D0F6D700D0000165510001635D64
:102070000001665100016459D8A009D000016551E2
:102080000001635F000166510001645B00D0000144
:10209000D89066336533242EE7D700D063C063F051
:1020A00064C064F0120020C024F021C025F003D0E9
:1020B000244A252A00D024C0D9FF25C0DAFFDF50EA
:1020C000D8B407D0F5D705D0244A252A224A232A96
:1020D00000D022C0F6FF23C0F7FF000EF86E24C028
:1020E000D9FF25C0DAFF0D0EF76403D00800F550C4
:1020F00005D0F6CFE9FFF7CFEAFFEF50DF6EDF50F4
:10210000D8A4E2D71200FB0E0001706F000E000190
:10211000716F050E0001726F7DEC8FF0F20E000101
:10212000706F000E0001716F090E0001726F7DEC7F
:102130008FF0E90E0001706F000E0001716F090E43
:102140000001726F7DEC8FF0120020C022F021C0E0
:1021500023F0060ED89022362336E82EFBD722C075
:1021600024F023C025F025C04AFF24C022F0D890D7
:102170002232D8902232300E22160F014951CF0B55
:1021800022100F01496F120020C022F021C023F05D
:10219000060ED89022362336E82EFBD722C024F034
:1021A00023C025F025C0BAFF24C022F0D8902232E7
:1021B000D8902232300E2216B950CF0B2210B96EB1
:1021C0001200030E0001D519D8A403D0010E12008D
:1021D0000FD00001D505D8A403D0020E120008D0FC
:1021E0000C0E0001D519D8A403D0030E120000D0A4
:1021F0000001D55112001200000E0001766F480E4A
:102200000001776FFF0E0001786F000E00EC80F088
:1022100000D004EC92F00009D8A402D0FAD700D084
:1022200004EC92F0E806D8B4FBD71200360437105D
:10223000D8B4120001D01200B18CB18EB198B19A0D
:10224000B18EA092B180000E376E010E366ED70EA1
:10225000D56EF184F294F28AC10ED66E1200FD0E94
:1022600005D0050EE82EFED700F0FE0E2026FF0E4C
:102270002122FF0E2222FF0E232200D023BE1200B5
:10228000235022102110EDE12004D8B0EAD712002B
:102290000F01539F000E0E01476F000E0E01466F97
:1022A000988098829884988698880E01E6830E011B
:1022B000E6850E01E687110E0F01546F1200938020
:1022C000938293849386669CF20E0E013717F10E6B
:1022D0000E013817668CF18AF09CF090F086F1863A
:1022E000F192F094F08A1200014200000000000018
:1022F000000145005A5A5A5A5A5A014300005A5A84
:102300005A5A5A0144000103000000000143000131
:1023100000303030303030303030303030303030ED
:1023200030303030300041540D0A4F4B0D0A000060
:102330000000000000000000000020502202F3CF47
:1023400024F0F4CF25F020502302F350252621500D
:102350002202F350252624C020F025C021F01200CF
:10236000120048EC91F0FCEC8EF0F7EC84F0EBEC12
:102370008BF05FEC91F0B5EC8FF0E8EC91F012008F
:10238000000E0001766F240E0001776FFF0E000132
:10239000786F000E00EC80F0FFD71200000E0001F5
:1023A000766F8D0E0001776FFF0E0001786F000EC3
:1023B00000EC80F0FFD71200206E2050010DAC0E13
:1023C000F324D96E000EF420DA6EDF5012001200F2
:1023D000C10ED66E000E2A6E000E2B6E000E2C6EF5
:1023E000000E2D6E12002AC020F02BC021F02CC050
:1023F00022F02DC023F01200000E0E01E4B3010EF6
:10240000206E205012001200000E0E01E4B7010EE3
:10241000206E205012001200000E86B4010E206EB5
:10242000205012001200000E86B0010E206E2050C7
:1024300012001200010E2A26000E2B222C222D2221
:082440001200256900001200E2
:10FFF000A0F701F023F0FFF7FBFFFFFC1DF0F8F383
:00000001FF
