:0400000038EF00F0E5
:0C000800D9CF04F0DACF05F007EF89F043
:10001800D8CF01F0E8CF02F0E0CF03F0F0A00ED087
:1000280081A004D0FF0E0001B10703D00001B12B5D
:10003800000EB223B323B423F0900FD0F0A40DD058
:1000480081A404D0FF0E0001B90703D00001B92B29
:10005800000EBA23BB23BC23F09403C0E0FF02C008
:0C006800E8FF01C0D8FF1000D2EF88F0C4
:10FEC4000001000A006400E80310273C04429F6A12
:10FED400429001424DBB40EC473E8E1FBB3C044266
:10FEE4005A8B420444429C4F4100803F4D4553533A
:10FEF4004147455F474F45535F484552450D0A000A
:10FF04005243204D6F64650A4552523A20256920B8
:10FF1400200057616E646572696E0A2D2D2D2E2E98
:10FF24002D2D2D0053656C65637465640A53656CEF
:10FF340066546573740053656C662043616C0A579C
:10FF440061697420506C7A005243204D6F64650AD5
:10FF54005365617263682E2E0053656C6563746526
:10FF6400640A5243204D6F64650053656C65637485
:10FF740065640A556E6B6E6F776E0057652061720B
:10FF8400650A77696E6E696E67210053656C6563F7
:10FF94007465640A57616E6465720053656C6563C9
:10FFA4007465640A44656275670053656C656374BF
:10FFB40065640A4D6174636800616E613A25690A7B
:10FFC40074797065202569005374617274696E6771
:10FFD4000A4648540041542B434D47463D310041A5
:10FFE400542B4353510D0A0041542B434D47533D69
:0CFFF40000416E613A2569002500000004
:020000040001F9
:100000000001886F20EE74F0140EDE6AE82EFDD732
:10001000250E8D6F22C01AF08851ADEC82F00001E0
:100020008E6B8F6B7BD023C029F024C02AF098D927
:10003000F76403D00800F55005D0F6CFE9FFF7CFFD
:10004000EAFFEF50250A4CE123C029F024C02AF032
:1000500000018E5129268F512A22292A000E2A2298
:1000600029C0F6FF2AC0F7FF000EF86E0D0EF764E8
:1000700003D00800F55005D0F6CFE9FFF7CFEAFF2F
:10008000EF50250A0BE1076A0001740E066EFF0EA1
:10009000096EFC0E086E69EC89F01ED000018D51CE
:1000A000D96EDA6ADECF89F0DDCF8AF0020E8D27B5
:1000B000FF0E136EC90E126E89C014F08AC015F0BF
:1000C000600E06EC85F0076A0001740E066E096A80
:1000D000600E086E69EC89F000018E4B8F2B1BD0EF
:1000E00023C029F024C02AF000013AD9F76403D0D4
:1000F0000800F55005D0F6CFE9FFF7CFEAFFEF5043
:1001000000018B6F8C6B076A740E066E096A8B0E8A
:10011000086E69EC89F000018E4B8F2B23C029F00B
:1001200024C02AF01DD9F76403D00800F55005D08B
:10013000F6CFE9FFF7CFEAFFEF50000909E0000131
:100140008F51800A800FC80ED8B48E5D01E26BD744
:100150000001906B916B99D09051740FD96EDA6A4F
:100160000A0EDF6206D022281A6E000EADEC82F075
:1001700089D002D995EC89F083807BD053EC84F050
:1001800061EC8AF0848800019051740FD96E8DD88B
:1001900053EC84F061EC8AF0849853EC84F061ECC9
:1001A0008AF084880001CBD8D8902932D89029329F
:1001B000010E2916293A294687502918DF0B2918DC
:1001C000876EBDD8D8902932010E29162946845051
:1001D0002918FD0B2918846EB2D8010E29168450F7
:1001E0002918FE0B2918846E9051B2D82946294649
:1001F00084502918FB0B2918846E53EC84F061ECB1
:100200008AF035D000F0848800019051740FD96EC7
:100210004CD895D8D8902932D8902932010E291679
:1002200087502918FE0B2918876E89D8D890293253
:10023000010E2916294687502918FD0B2918876EAB
:100240007ED8010E29162946294687502918FB0B0E
:100250002918876E90517CD8293A2946845029184C
:10026000DF0B2918846E53EC84F061EC8AF08498DB
:1002700005D05850010A82E0030AC4E07DD895EC0D
:1002800089F083900001904B912B9051740FD96E9F
:10029000DA6ADF50D8B412009151800A800FC80E7C
:1002A000D8B4905DD8B0120057D7DA6ADF50296E03
:1002B000000E29BE010E296E010E2916293A294683
:1002C00087502918DF0B2918876E9051740FD96E4B
:1002D000DA6ADF50296E060E2A6ED89029322A2E4D
:1002E000FCD7010E2916294684502918FD0B291820
:1002F000846E9051740FD96EDA6ADF50296E050E44
:100300002A6ED89029322A2EFCD7010E2916845045
:100310002918FE0B2918846E9051740FD96EDA6A71
:10032000DF50296E293A0F0E2916010E291629468B
:10033000294684502918FB0B2918846E120090510D
:10034000740FD96EDA6ADF50296ED8902932120004
:10035000740FD96EDA6ADF50296E010E2916010C6E
:100360008E5129268F512A2229C0F6FF2AC0F7FF75
:10037000000EF86E0D0E1200020E0A6E0B6A0C6A69
:100380000D6A000C296EE4D815341532162EFCD7F0
:10039000010E1516151A0E01E4511518FE0B15184D
:1003A000E46FD1D815341532162EFCD7010E151670
:1003B0001546E7511518FD0B1518E76F2950800AEF
:1003C0001C0F04E31C6A640E1B6E05D029501B6EC3
:1003D0001C6A1BBE1C061BC029F01450800A1C0F8F
:1003E00004E31E6A640E1D6E05D014501D6E1E6A55
:1003F0001DBE1E061DC014F02950800A156E9D0EEC
:10040000800A155C04E220689C0E1F6E05D02950FE
:100410001F6E206A1FBE20061FC029F01450800ADC
:10042000156E9D0E800A155C04E222689C0E216EFA
:1004300005D01450216E226A21BE220621C014F07C
:1004400087D815341532162EFCD715B00ED029C01A
:1004500015F0166A15BE160615506408236E165060
:10046000D8A0E82A0008246E1ED029BE06D0295044
:10047000256E266A25BE260612D02950066E076A0A
:1004800006BE0706096A010E086ECFEC8AF0061E4A
:10049000071E064A072A06C025F007C026F025C019
:1004A00023F026C024F023C029F04DD8153415328E
:1004B000162EFCD715B006D01450276E286A27BE1A
:1004C000280609D0640E1424276EE86AD8B0E82AFA
:1004D00014BEE806286E27C014F029502CD8CFECA3
:1004E0008AF006C00CF007C00DF00F6A640E0E6EA5
:1004F00039EC87F00CC017F00DC018F014501BD861
:10050000CFEC8AF006C00CF007C00DF00F6A640E45
:100510000E6E39EC87F00CC019F00DC01AF019C03E
:1005200006F01AC007F044EC8AF017C006F018C0B5
:1005300007F026EF8AF0066E076A06BE0706096A0C
:10054000D00E086ED00C14C015F0070E166E070CF6
:1005500029C015F0070E166E070C1D6E1A50400DBF
:10056000F3501D24800F1E6E030E0A6E000E0B6AE0
:100570000C6A0D6A95EC89F093D053EC84F061EC31
:100580008AF08488A1D8D8901B32D8901B32D8909A
:100590001B328ED81B3A0F0E1B16800E1B26D890CE
:1005A0001B32D8901B32010E97D88ED8D8901B32B0
:1005B000010EA4D889D898D853EC84F061EC8AF065
:1005C000849853EC84F061EC8AF084889ED870D8CB
:1005D000D8901B32D8901B32010E7ED81EC01BF063
:1005E000D8901B32010E8AD81EC01BF07DD853EC68
:1005F00084F061EC8AF08498120000F084881B6A11
:100600001EAE01D01B2A54D8060E1C6ED8901B3289
:100610001C2EFCD7010E60D81EC01BF0050E1C6EF0
:10062000D8901B321C2EFCD7010E68D81EC01BF0C0
:100630001B3A0F0E1B1658D868D8010E1B16875090
:100640001B18FE0B1B18876E1EC01BF0D8901B32A8
:10065000D8901B32010E1B161B4687501B18FD0B32
:100660001B18876E1EC01BF0D8901B32010E1B1684
:100670001B461B4687501B18FB0B1B18876E1EC0A2
:100680001BF0010E1B161B3A1B4684501B18DF0B78
:100690001B18846E53EC84F061EC8AF0849812008D
:1006A0005850010A01E169D7030AD8A41200A5D75E
:1006B000010E1B161B3A1B4687501B18DF0B1B181D
:1006C000876E1EC01BF012001EC01BF01B3A0F0EDF
:1006D0001B16800E1B26800C1B161B4684501B18F5
:1006E000FD0B1B18846E1200010E1B161B461B46C9
:1006F00084501B18FB0B1B18846E12001B168450B1
:100700001B18FE0B1B18846E12001EC01BF0D89025
:100710001B32D8901B32D8901B321200010E586E3B
:100720000E01459B479D469746954693E38FA798B4
:10073000F197D99BD89FDA9B849484908492879A6E
:1007400084988390869E959096909692969496968D
:100750009698999A7CEC8AF0640E0A6E000E0B6AE9
:100760000C6A0D6A95EC89F08390869E9CD861ECAA
:100770008AF08488879A84928480848494D861ECF7
:100780008AF0849896D895EC89F08DD861EC8AF03F
:100790008488879A84928480848485D861EC8AF0E6
:1007A000849887D895EC89F07ED861EC8AF08488AB
:1007B000879A84928480848476D861EC8AF08498C5
:1007C00078D895EC89F06FD861EC8AF08488879AA4
:1007D00084928480849467D861EC8AF0849869D884
:1007E00095EC89F060D861EC8AF08488879A8492CD
:1007F0008480849458D861EC8AF0849854D861EC51
:100800008AF08488878A8492849084944CD861EC9E
:100810008AF0849848D861EC8AF08488879A849218
:100820008490849440D861EC8AF084983CD861EC40
:100830008AF08488878A84828480848434D861ECB6
:100840008AF0849830D861EC8AF08488879A849200
:100850008490849428D861EC8AF0849824D861EC40
:100860008AF08488879A8492849084841CD861EC6E
:100870008AF0849818D861EC8AF08488879A8492E8
:100880008490849410D861EC8AF084980CD861EC40
:100890008AF08488879A84828480849404D861EC66
:1008A0008AF084981200280E066E076A086A096AA0
:1008B000000C320E0A6E0B6A0C6A0D6A000C31ECE9
:1008C0008BF006C021F007C022F008C023F009C059
:1008D00024F00001AD51215C3B6EAE5122583C6EBC
:1008E000AF5123583D6EB05124583E6E3E50800AA1
:1008F000800F08E1000E3D5C05E1050E3C5C02E165
:10090000DD0E3B5CD8B0F3EC8AF059C021F0226ACE
:10091000236A246A3E50800A256E21503B5C225097
:100920003C5823503D582450800A25580EE23B5035
:10093000595C0A6E3C500B6A0B5A3D500C6A0C5ABB
:100940003E500D6A0D5A95EC89F0BDC0BFF0BEC097
:10095000C0F08584858A859C78EC86F061EC8AF00D
:1009600020EEC6F010EE32F0090EDECFE6FFE82EE4
:10097000FCD720EE26F00C0EDE6AE82EFDD73F6A8B
:10098000406A3F500001980FD96EDA6A3F50320F2B
:10099000E16EE26AE7509CEC88F0DF6E3F4A402A45
:1009A0004050800A800F090ED8B43F5CEAE3000192
:1009B0009951790A18E1416A426A41500001A10F38
:1009C000D96EDA6A4150260FE16EE26AE7509CEC7C
:1009D00088F0DF6E414A422A4250800A800F0C0E96
:1009E000D8B4415CEAE3858C000120EE9BF0DECFB9
:1009F000BDF0DDCFBEF031EC8BF006C0ADF007C02E
:100A0000AEF008C0AFF009C0B0F01200206E140EB6
:100A1000186E68D02150250A07E02050D96EDA6A96
:100A200021C0DFFF202A5ED0196A65D821505DE021
:100A3000640A02E00D0A56E11850D96EDA6ADECF78
:100A40001BF0DDCF1CF0020E18261C506CD8D8B459
:100A50001B5C06E2030E19121B6C1C1ED8B01C2A6C
:100A6000010E216E215053D8F5CF16F00900F5CFB5
:100A700017F016501B5C17501C5804E3212A215014
:100A8000050AF0E119C016F0030E161606E0205014
:100A9000D96EDA6A2D0EDF6E202A21C01AF01FD01F
:100AA0001A5035D8F5CF08F00A00F5CF09F01BC071
:100AB00006F01CC007F0C0EC89F006C00DF007C0BE
:100AC0000EF0106A0A0E0F6E07EC8AF00D50300F10
:100AD000216E2050D96EDA6A21C0DFFF202A1A0663
:100AE0001A28DEE108D8216695D72050D96EDA6A37
:100AF000000EDF6E000C12C0F6FF13C0F7FF124AA3
:100B0000132A000EF86E0800F5CF21F01200020D36
:100B1000C50EF324F66EFE0EF420F76EF86A000E92
:100B2000F82209001200800AF36E800EF35C000CBC
:100B3000D08EF28E04EC8BF042EC8BF0506E5EECBB
:100B40008BF0020DF3CF51F064EC8BF0040DF350F9
:100B500051245024526E36D0226AFF0E246E5D0E50
:100B6000236E000E00EC80F038D0226AFF0E246E57
:100B7000AE0E236E000E00EC80F02FD0226AFF0E26
:100B8000246E8F0E236E000E00EC80F026D0226AB9
:100B9000FF0E246E280E236E000E00EC80F01DD098
:100BA000226AFF0E246E9F0E236E000E00EC80F072
:100BB00014D0226AFF0E246E6E0E236E000E00EC1F
:100BC00080F00BD05250C8E0010ACFE0030AD6E013
:100BD000060ADDE0010AE4E0ECD759EC84F095EC7C
:100BE00089F049EC8BF0506E5004A6E0060E525C82
:100BF00010E3A2D77EEC86F09FD728EC8BF09CD731
:100C00001FEC8BF099D7A9EC8AF096D76AEC8BF0A1
:100C100093D75250EFE0010AF0E0030AF1E0060A30
:100C2000F2E0010AF3E088D797949786979A979C09
:100C30008584858A5FEC84F05FEC84F00001995133
:100C4000410A07E09951730A04E09951790A01E0D9
:100C5000010C010E596E4C6A4D6A050E1A6EEA0EB1
:100C6000E5EC89F045D861EC8AF08584858A859C1D
:100C70003FD861EC8AF04E6A4F6A4E50430FD96EEE
:100C8000DA6A4E500001CF0FE16EE26AE7509CEC49
:100C900088F0DF6E4E4A4F2A4F50800A800F090EAF
:100CA000D8B44E5CEAE3858C46C057F0090E1A6E44
:100CB0000001E10EE5EC89F0090E1A6E0001D80E74
:100CC000E5EC89F05FEC84F000019951730A0FE0C4
:100CD0004C500A0A4D1001E1020C592A4C4A4D2A87
:100CE0004D50800A800F0B0ED8B44C5CB6E3000C5C
:100CF000040E066E076A086A096A000C226AFF0E73
:100D0000246E4C0E236E000E00EC80F014EC86F086
:100D1000976F15D0226AFF0E246E040E236E97C0C3
:100D200025F0266A000E00EC80F0F40E0A6E010E2B
:100D30000B6E000E0C6A0D6A95EC89F0E7D7976789
:100D4000E9D712EC8BF0966F226AFF0E246EBD0E6F
:100D5000236E070E3AEC8BF0256E266A96C027F0BC
:100D6000286A000E00EC80F05FEC84F0080E3AEC8C
:100D70008BF020D839EC87F0C40E0C240001926F60
:100D8000FF0E0D20936F060E3AEC8BF013D839EC62
:100D900087F0C40E0C240001946FFF0E0D20956F98
:100DA00092C014F09451C2EC81F059EC84F095ECAF
:100DB00089F0DAD7780DF3CF0CF0F4CF0DF0000EF8
:100DC0000F6A0E681200669CF60E0E012D17F10ECA
:100DD0001D13F40E2C172F0E1713F60E2A173F0EA5
:100DE0001813668CF28EF28C220EAF6E0F01306BF0
:100DF000AC94679E6786679C679AAC98AB8EAB9CF9
:100E0000AB88AC8AAC9C9D989D8A220E1F6F206B8C
:100E10003295319F3187319D319B3299338F339D8C
:100E20003389328B329DA398A38A220E2B6F2C6BB1
:100E30002E952D9F2D872D9D2D9B2E992F8F2F9D8C
:100E40002F892E8B2E9D6198618A95889594220E0C
:100E50000E01FB6FFC6BFE95FD9FFD87FD9DFD9BCD
:100E6000FE99FF8FFF9DFF89FE8BFE9D619C618E29
:100E70001200116A0F5093EC85F0D8B40E5C06E2B4
:100E80000E6C0F1ED8B00F2A010E116E0D5093EC90
:100E900085F0D8B40C5C06E20C6C0D1ED8B00D2A9F
:100EA000010E111A126A136A0F500E101BE0010E88
:100EB000106E04D0D8900E360F36102A0FAEFAD727
:100EC000D890123613360E500C5C0F500D5805E3B7
:100ED0000E500C5E0F500D5A1280D8900F320E3209
:100EE000102EEED7115004E0126C131ED8B0132A46
:100EF00012C00CF013C00DF01200086E0C0E496FFA
:100F00003F0E361706C007F0300E0716D89007368A
:100F1000D8900734361336CF07F0C00E071605E118
:100F2000CA9408C0CBFFCA84C00C36CF07F0C00EED
:100F300007160750400A05E1049508C005FF04851F
:100F4000120036CF07F0C00E07160750800A05E1E1
:100F50003D9508C03EFF3D85120036CF07F0C00E1C
:100F600007160750C00AD8A412003A9508C03BFFE4
:100F70003A851200096E3F0E0912FC0E0612495105
:100F8000C0090914496F49510F090614496F050E2C
:100F9000F66EF76A300EF86E0800F5CF07F007A27C
:100FA00002D0086801D0086A09503F0A02E198900F
:100FB00012000950BF0A07E19890085002E0969885
:100FC0001200999A120009507F0A03E00928D8A458
:100FD00012009890085003E09698969602D0999A3D
:100FE000999898961200096E3F0E0912FC0E06128F
:100FF000B950C0090914B96EB9500F090614B96E79
:10100000050EF66EF76A300EF86E0800F5CF07F0A1
:1010100007A202D0086801D0086A09503F0A02E11D
:10102000949412000950BF0A07E19494085002E01A
:10103000969C1200999E120009507F0A03E009282D
:10104000D8A412009494085003E0969C969A02D07B
:10105000999E999C98981200086E0C0EB96EFC0E21
:1010600036170638E8461F0B030B361336CF07F04A
:10107000070E071605E1CA9408C0CBFFCA84070C07
:1010800036CF07F0070E07160750010A05E1049551
:1010900008C005FF0485120036CF07F0070E0716BB
:1010A0000750020A05E13D9508C03EFF3D8512004C
:1010B00036CF07F0070E07160750030AD8A4120010
:1010C0003A9508C03BFF3A851200669CF80E0E0167
:1010D0002313969C4F0E2113969E668CE691E993FE
:1010E0000F01048504833D853D83AF0E066E330EEC
:1010F0002CEC88F0000E076A066A44EC8AF0FC0EBD
:10110000066E3F0EF3EC87F00C0EB96E490E0F0120
:10111000366FEF0E066E330E7DEC87F0000E076A19
:10112000066A26EC8AF0FC0E066E3F0EBAEC87F0DB
:10113000000E146AC2EF81F00C6E0D6A0E6A0EC0CA
:101140000AF0010E0B6E0A2A02D0D8900B360A2E36
:10115000FCD70B500C1402E0858401D08594859A4D
:10116000050E066E000E076A086A096A61EC8AF0CD
:1011700085A60CD00EC00AF0010E0B6E0A2A02D012
:10118000D8900B360A2EFCD70B500D12858A0E2AEA
:10119000070E0E64D4D7858478EC86F061EC8AF073
:1011A0000D50120002EE80F013EEE8F0EE6AE5500A
:1011B000E150FCE1E250FAE102EE00F0800EEE6A4E
:1011C000E806FDE101EE00F0E40EEE6AE806FDE15E
:1011D00000EE98F02E0EEE6AE806FDE100EE53F008
:1011E000070EEE6AE806FDE1280EF66E150EF76EA4
:1011F000010EF86E00EEC6F010EE29F00900F5CFF2
:10120000EEFFE550E150FAE1000198EF85F0F2A41D
:1012100007D0C10ED66EF294F28A57EC8BF025D02F
:101220009EAA0AD00101000E5324D96EDA6A010E7B
:10123000DA22AECFDFFF532AA450A6AA0AD0800E2E
:101240005424D96EDA6A020EDA220F012ACFDFFFA8
:10125000542AA6AE0AD0740E5624D96EDA6A040E49
:10126000DA220E01FACEDFFF562A05C0DAFF04C0EB
:10127000D9FF1100200E456FC1840E018D9D8D9FF9
:101280008D9B3F0E8A6F468D998C0E0E866F876FF1
:10129000C18E320E066E000E076A086A096A61EC9A
:1012A0008AF0226AFF0E246ECC0E236E000E00EC34
:1012B00080F0C082C0A0FED7226AFF0E246EF50E19
:1012C000236EC2CF25F0C3CF26F0000E00EC80F0D5
:1012D000F0D707C00BF006C00AF002D00A4A0B2A6A
:1012E0000AC0D9FF0BC0DAFFDF5005E0F7D70A4A82
:1012F0000B2A084A092A08C0F6FF09C0F7FF000EAA
:10130000F86E0AC0D9FF0BC0DAFF0D0EF76403D0E8
:101310000800F55005D0F6CFE9FFF7CFEAFFEF5010
:10132000DF6EDF50D8B41200E2D731EC8BF006C08C
:1013300016F007C017F008C018F009C019F031EC1A
:101340008BF006C00EF007C00FF008C010F009C007
:1013500011F016500E5C126E17500F58136E185085
:101360001058146E19501158156E0A50125C0B501B
:1013700013580C5014580D501558D8B01200DFD720
:101380000B6A0C6A095008101BE0010E0A6E04D0AB
:10139000D890083609360A2A09AEFAD7D8900B3603
:1013A0000C360850065C0950075805E30850065EE5
:1013B0000950075A0B80D890093208320A2EEED70E
:1013C0000BC006F00CC007F01200206E859C1E6A50
:1013D0001F6A09D020501E24D96EDA6ADF509CECB7
:1013E00088F01E4A1F2A1A501B6E1C6A1F50800A62
:1013F0001D6E1B501E5C1C50800A1D58EBE3858C33
:1014000059500A6E0B6A0C6A0D6A95EF89F01050FC
:101410000F1017E0010E116E04D0D8900F36103661
:10142000112A10AEFAD70F500D5C10500E5804E37D
:101430000F500D5E10500E5AD89010320F32112EF0
:10144000F2D70DC00DF00EC00EF0120006C008F06D
:1014500007C009F0060ED89008360936E82EFBD7EB
:1014600008C00AF009C00BF00BC04AFF0AC008F020
:10147000D8900832D8900832300E08160F01495122
:10148000CF0B0810496F120006C008F007C009F022
:10149000060ED89008360936E82EFBD708C00AF0A9
:1014A00009C00BF00BC0BAFF0AC008F0D890083290
:1014B000D8900832300E0816B950CF0B0810B96E0C
:1014C0001200FD0E05D0050EE82EFED700F0FE0E30
:1014D0000626FF0E0722082209220950800A800FE3
:1014E00008E1000E085C05E1000E075C02E1010E58
:1014F000065CD8A01200E7D70001C305C411D8B418
:101500001200B18CB18EB198B19AB18EA092B18017
:10151000000EC46F010EC36FD70ED56EF184F29426
:10152000F28AC10ED66EC10C01420000000000001C
:10153000000145005A5A5A5A5A5A014300005A5A51
:101540005A5A5A01440001030000000001430001FF
:101550000000226AFF0E246E3A0E236E000E00EC8D
:1015600080F049EC8BF00009FCE049EC8BF02B6E2D
:101570002B04D8A41200F9D7938093829384938686
:10158000669CF20E3717F10E3817668CF18AF09CC4
:10159000F090F086F186F192F094F08AF10C06500A
:1015A0000802F3CF0AF0F4CF0BF006500902F35013
:1015B0000B2607500802F3500B260AC006F00BC09A
:1015C00007F012000F01539F0E01476B466B988086
:1015D0009882988498869888E683E685E687110E37
:1015E0000F01546F110C050E1A6EEA0EE5EC89F02E
:1015F000090E1A6E0001E10EE5EC89F0090E1A6E73
:101600000001D80EE5EF89F0E2EC8AF065EC88F095
:101610008EEC83F0E3EC86F0BCEC8AF03AEC89F0D7
:1016200050EF8BF05750030A01E1010C570401E120
:10163000020C57500C0A01E1030C57501200226AA9
:10164000FF0E246E160E236E000E00EC80F0FFD706
:10165000226AFF0E246E7F0E236E000E00EC80F0D7
:10166000FFD7B5C006F0B6C007F0B7C008F0B8C0E5
:1016700009F01200066E06500001980FD96EDA6A62
:10168000DF5012000E01000EE4B3010E066E06508C
:1016900012000E01000EE4B7010E066E0650120095
:1016A000C10ED66EB56BB66BB76BB86B120000018E
:1016B000B52B000EB623B723B823000C000E86B45A
:1016C000010E066E06501200000E86B0010E066E68
:0616D0000650120012009A
:10FFF000A0F701F023F0FFF7FBFFFFFC1DF0F8F383
:00000001FF
