:040000007BEF00F0A2
:10000800FACF12F0FBCF13F0E9CF14F0DEEF89F04E
:10001800D8CF01F0E8CF02F0E0CF03F0FACF04F038
:10002800FBCF05F0E9CF06F0EACF07F0E1CF08F003
:10003800E2CF09F0D9CF0AF0DACF0BF0F3CF0CF00A
:10004800F4CF0DF0F6CF0EF0F7CF0FF0F8CF10F099
:10005800F5CF11F0F0A013D081A008D0FF0E242610
:10006800FF0E2522FF0E2622FF0E05D0010E2426A4
:10007800000E25222622272200D0F09015D0F0A4C9
:1000880013D081A408D0FF0E2826FF0E2922FF0EC8
:100098002A22FF0E05D0010E2826000E29222A2228
:1000A8002B2200D0F09400D011C0F5FF10C0F8FF4B
:1000B8000FC0F7FF0EC0F6FF0DC0F4FF0CC0F3FF32
:1000C8000BC0DAFF0AC0D9FF09C0E2FF08C0E1FF90
:1000D80007C0EAFF06C0E9FF05C0FBFF04C0FAFF3E
:1000E80003C0E0FF02C0E8FF01C0D8FF1000A3EF83
:0200F8008AF08C
:10F91400000000C90092015B022403ED03B6047EDB
:10F924000547061007D907A1086A09320AFB0AC36A
:10F934000B8B0C530D1B0EE30EAB0F721039110021
:10F9440012C7128E1355141B15E115A7166D173324
:10F9540018F818BD19821A461B0B1CCF1C931D5690
:10F964001E191FDC1F9F2061212322E422A6236786
:10F97400242725E725A72667272628E528A3296124
:10F984002A1E2BDB2B982C542D102ECC2E862F4187
:10F9940030FB30B4316D322633DE3396344D3503CB
:10F9A40036B9366F372438D8388C393F3AF23AA40E
:10F9B4003B563C073DB73D673E163FC53F7340206D
:10F9C40041CD4179422543D0437A442345CC457403
:10F9D400461C47C34769480E49B349574AFA4A9DEA
:10F9E4004B3F4CE04C804D204EBF4E5D4FFA4F973D
:10F9F400503351CE51685201539A533254C9545F13
:10FA040055F45589561D57B0574258D3586359F386
:10FA140059815A0F5B9C5B285CB35C3D5DC65D4FAE
:10FA24005ED65E5D5FE25F6760EB606E61F06171A0
:10FA340062F1627063EE636B64E7646265DD655670
:10FA440066CE664567BC673168A56819698B69FC31
:10FA5400696C6ADB6A4A6BB76B236C8E6CF86C61F9
:10FA64006DC96D306E956EFA6E5E6FC06F227082D6
:10FA740070E17040719D71F9715472AE7206735EDB
:10FA840073B5730A745E74B17403755475A475F315
:10FA94007540768D76D87622776B77B377F9773F92
:10FAA400788378C678087949798979C779047A415D
:10FAB4007A7C7AB57AEE7A257B5C7B917BC47BF782
:10FAC4007B297C597C887CB67CE27C0E7D387D6108
:10FAD4007D897DB07DD57DF97D1C7E3E7E5E7E7EFA
:10FAE4007E9C7EB97ED47EEF7E087F207F377F4C5C
:10FAF4007F617F747F867F967FA67FB47FC17FCD31
:10FB04007FD77FE07FE87FEF7FF57FF97FFC7FFE83
:10FB14007FFF7FFE7FFC7FF97FF57FEF7FE87FE04B
:10FB24007FD77FCD7FC17FB47FA67F967F867F748A
:10FB34007F617F4C7F377F207F087FEF7ED47EB943
:10FB44007E9C7E7E7E5E7E3E7E1C7EF97DD57DB073
:10FB54007D897D617D387D0E7DE27CB67C887C5913
:10FB64007C297CF77BC47B917B5C7B257BEE7AB51F
:10FB74007A7C7A417A047AC779897949790879C68D
:10FB84007883783F78F977B3776B772277D8768D57
:10FB9400764076F375A47554750375B1745E740A72
:10FBA40074B5735E730673AE725472F9719D7140CD
:10FBB40071E17082702270C06F5E6FFA6E956E3064
:10FBC4006EC96D616DF86C8E6C236CB76B4A6BDB20
:10FBD4006A6C6AFC698B691969A5683168BC6745F8
:10FBE40067CE665666DD656265E7646B64EE6370D6
:10FBF40063F1627162F0616E61EB606760E25F5DA8
:10FC04005FD65E4F5EC65D3D5DB35C285C9C5B0F5A
:10FC14005B815AF3596359D3584258B0571D5789D9
:10FC240056F4555F55C95432549A5301536852CE11
:10FC34005133519750FA4F5D4FBF4E204E804DE0E7
:10FC44004C3F4C9D4BFA4A574AB3490E496948C345
:10FC5400471C477446CC4523457A44D04325437911
:10FC640042CD4120417340C53F163F673EB73D0733
:10FC74003D563CA43BF23A3F3A8C39D83824386F8D
:10FC840037B93603364D359634DE3326336D32B408
:10FC940031FB304130862FCC2E102E542D982CDB86
:10FCA4002B1E2B612AA329E52826286727A726E7E8
:10FCB4002527256724A623E422232261219F20DC13
:10FCC4001F191F561E931DCF1C0B1C461B821ABDE9
:10FCD40019F81833186D17A716E1151B1555148E4E
:10FCE40013C712001239117210AB0FE30E1B0E531F
:10FCF4000D8B0CC30BFB0A320A6A09A108D9071041
:10FD04000747067E05B604ED0324035B029201C98E
:10FD140000000037FF6EFEA5FDDCFC13FC4AFB82ED
:10FD2400FAB9F9F0F827F85FF796F6CEF505F53D40
:10FD3400F475F3ADF2E5F11DF155F08EEFC7EE0069
:10FD4400EE39ED72ECABEBE5EA1FEA59E993E8CD45
:10FD5400E708E743E67EE5BAE4F5E331E36DE2AABA
:10FD6400E1E7E024E061DF9FDEDDDD1CDD5ADC99A4
:10FD7400DBD9DA19DA59D999D8DAD71BD75DD69FE6
:10FD8400D5E2D425D468D3ACD2F0D134D17AD0BF63
:10FD9400CF05CF4CCE93CDDACC22CC6ACBB3CAFDFF
:10FDA400C947C991C8DCC728C774C6C1C50EC55C9C
:10FDB400C4AAC3F9C249C299C1EAC03BC08DBFE01D
:10FDC400BE33BE87BDDBBC30BC86BBDDBA34BA8C67
:10FDD400B9E4B83DB897B7F2B64DB6A9B506B56360
:10FDE400B4C1B320B380B2E0B141B1A3B006B069ED
:10FDF400AFCDAE32AE98ADFFAC66ACCEAB37ABA1F7
:10FE0400AA0CAA77A9E3A850A8BEA72DA79DA60D62
:10FE1400A67FA5F1A464A4D8A34DA3C3A23AA2B11A
:10FE2400A12AA1A3A01EA0999F159F929E109E8F08
:10FE34009D0F9D909C129C959B199B9E9A239AAA18
:10FE4400993299BB984498CF975B97E79675960437
:10FE54009694952595B6944994DD93729308939F4F
:10FE6400923792D0916B910691A2904090DE8F7E52
:10FE74008F1F8FC08E638E078EAC8D528DFA8CA22D
:10FE84008C4B8CF68BA28B4F8BFD8AAC8A5C8A0DD3
:10FE94008AC08973892889DE8895884D880788C136
:10FEA400877D873A87F886B78677863986FC85BF4B
:10FEB4008584854B851285DB84A4846F843C840906
:10FEC40084D783A78378834A831E83F282C8829F60
:10FED40082778250822B820782E481C281A281824E
:10FEE40081648147812C811181F880E080C980B4CC
:10FEF400809F808C807A806A805A804C803F8033D7
:10FF04008029802080188011800B80078004800263
:10FF14008001000A006400E80310273C04429F6A41
:10FF2400429001424DBB40EC473E8E1FBB3C044215
:10FF34005A8B420444429C4F4100803F4D455353E9
:10FF44004147455F474F45535F484552450D0A00B9
:10FF54005243204D6F64650A4552523A2025692068
:10FF6400200057616E646572696E0A2D2D2D2E2E48
:10FF74002D2D2D004D61696E436F6D700A696E6998
:10FF8400744661696C0053656C662043616C0A5762
:10FF940061697420506C7A005243204D6F64650A85
:10FFA4005365617263682E2E005765206172650A7D
:10FFB40077696E6E696E672100616E613A25690A20
:10FFC40074797065202569005374617274696E6771
:10FFD4000A4648540041542B434D47463D310041A5
:10FFE400542B4353510D0A0041542B434D47533D69
:0CFFF40000416E613A2569002500000004
:020000040001F9
:100000000201DA6F21EE32F012EEC6F0130EDBCFF2
:10001000E3FFE806FCE27E0E0201DD6F000E020146
:10002000DE6F7BC074F00201DA5113EC85F0000E34
:100030000201E26F000EE16FC0D00201E151000148
:100040007C250001826F0201E25100017D21000147
:10005000836F82C0F6FF83C0F7FF000EF86E0D0EAF
:10006000F76403D00800F55005D0F6CFE9FFF7CFCD
:10007000EAFFEF50250AD8A46BD0010E0201E1255A
:100080000001826F000E0201E2210001836F7CC03B
:1000900084F07DC085F000018251000184270001B9
:1000A00083510001852384C0F6FF85C0F7FF000E51
:1000B000F86E0D0EF76403D00800F55005D0F6CFAA
:1000C000E9FFF7CFEAFFEF50250AD8A40FD0C60EFC
:1000D0000001606F020E0001616FFC0E0001626F93
:1000E000FF0E0001636F7AEC8EF02ED0DDC2D9FFD7
:1000F000DEC2DAFFDECFDBF2DDCFDCF2020E020180
:10010000DD27000EDE23B20E00016C6F020E00012F
:100110006D6FC90E00016E6FFF0E00016F6FDBC2C5
:1001200070F0DCC271F016EC88F0C60E0001606F52
:10013000020E0001616FB20E0001626F020E00013B
:10014000636F7AEC8EF000D00201E14BE22B31D0EC
:100150000201E15100017C250001826F0201E251A0
:1001600000017D210001836F82C0F6FF83C0F7FF8D
:10017000000EF86E0D0EF76403D00800F55005D0A0
:10018000F6CFE9FFF7CFEAFFEF500201DF6F000E75
:100190000201E06FC60E0001606F020E0001616F88
:1001A000DF0E0001626F020E0001636F7AEC8EF0C9
:1001B00000D00201E14BE22B00D00201E15100012D
:1001C0007C250001826F0201E25100017D210001C6
:1001D000836F82C0F6FF83C0F7FF000EF86E0D0E2E
:1001E000F76403D00800F55005D0F6CFE9FFF7CF4C
:1001F000EAFFEF500009D8B40DD00201E2BF1DD7CD
:100200000201E25107E1C80E0201E15DD8B002D05F
:1002100014D700D0000E0201E46F000EE36F39D254
:10022000C60E0201E325D96E020E0201E421DA6E48
:100230000A0EDE18D8A408D000017B290001746FD3
:10024000000E13EC85F021D2020E0001646F000E47
:10025000656F000E666F000E676FF1EC8BF08380A8
:10026000FFD1280E0001606F000E616F000E626FFB
:10027000000E636F8CEC8FF08488C60E0201E325BC
:10028000D96E020E0201E421DA6EDF500001826FA6
:100290000001823B0F0E82170001D89082330001CB
:1002A000D89082330001D8908233010E000182176A
:1002B0000001823B8247875000018219DF0B8219BF
:1002C000876EC60E0201E325D96E020E0201E421FB
:1002D000DA6EDF500001826F0001823B0F0E821741
:1002E0000001D89082330001D8908233010E0001C2
:1002F000821700018247845000018219FD0B821988
:10030000846EC60E0201E325D96E020E0201E421BD
:10031000DA6EDF500001826F0001823B0F0E821700
:100320000001D8908233010E000182178450000131
:100330008219FE0B8219846EC60E0201E325D96E66
:10034000020E0201E421DA6EDF500001826F00012B
:10035000823B0F0E8217010E0001821700018247B7
:100360008247845000018219FB0B8219846E280E8B
:100370000001606F000E616F000E626F000E636F10
:100380008CEC8FF08498280E0001606F000E616F76
:10039000000E626F000E636F8CEC8FF08488C60EC7
:1003A0000201E325D96E020E0201E421DA6EDF506C
:1003B0000001826F0001D89082330001D89082330F
:1003C0000001D8908233010E000182170001823BA8
:1003D0008247875000018219DF0B8219876EC60E93
:1003E0000201E325D96E020E0201E421DA6EDF502C
:1003F0000001826F0001D89082330001D8908233CF
:10040000010E000182170001824784500001821909
:10041000FD0B8219846EC60E0201E325D96E020E11
:100420000201E421DA6EDF500001826F0001D890F2
:100430008233010E00018217845000018219FE0BE5
:100440008219846EC60E0201E325D96E020E0201E6
:10045000E421DA6EDF500001826F010E0001821785
:10046000000182478247845000018219FB0B8219E8
:10047000846E280E0001606F000E616F000E626FC7
:10048000000E636F8CEC8FF0E9D000F08488C60E0C
:100490000201E325D96E020E0201E421DA6EDF507B
:1004A0000001826F000E82BF010E826F010E0001FB
:1004B00082170001823B8247875000018219DF0BBF
:1004C0008219876EC60E0201E325D96E020E020163
:1004D000E421DA6EDF500001826F060E0001836FA7
:1004E0000001D89082330001832FFAD7010E00015A
:1004F000821700018247845000018219FD0B821986
:10050000846EC60E0201E325D96E020E0201E421BB
:10051000DA6EDF500001826F050E0001836F00016B
:10052000D89082330001832FFAD7010E0001821781
:10053000845000018219FE0B8219846EC60E0201DE
:10054000E325D96E020E0201E421DA6EDF500001CC
:10055000826F0001823B0F0E8217010E000182178D
:10056000000182478247845000018219FB0B8219E7
:10057000846EC60E0201E325D96E020E0201E4214B
:10058000DA6EDF500001826F0001D89082330001E3
:10059000D89082330001D8908233010E0001821777
:1005A000875000018219FE0B8219876EC60E020168
:1005B000E325D96E020E0201E421DA6EDF5000015C
:1005C000826F0001D89082330001D8908233010EEF
:1005D0000001821700018247875000018219FD0B3C
:1005E0008219876EC60E0201E325D96E020E020142
:1005F000E421DA6EDF500001826F0001D89082336F
:10060000010E0001821700018247824787500001D6
:100610008219FB0B8219876EC60E0201E325D96E83
:10062000020E0201E421DA6EDF500001826F010E3A
:10063000000182170001823B824784500001821929
:10064000DF0B8219846E280E0001606F000E616F4F
:10065000000E626F000E636F8CEC8FF0849808D0F0
:100660003C50010AD8B4FDD5030AD8B40ED700D047
:10067000020E0001646F000E656F000E666F000EC3
:10068000676FF1EC8BF0839000D00201E34BE42B19
:1006900000D0C60E0201E325D96E020E0201E4214C
:1006A000DA6EDF50D8B412000201E4BFB9D50201FE
:1006B000E45107E1C80E0201E35DD8B01200B0D5E5
:1006C00012001200010E3C6E0E01459B0E01479D6B
:1006D0000E0146970E0146950E0146930E01E38FDB
:1006E000A7980E01F1970E01D99B0E01D89F0E011C
:1006F000DA9B849484908492879A84988390869ECF
:10070000959096909692969496969698999AFDECD6
:100710008FF0640E0001646F000E656F000E666F4F
:10072000000E676FF1EC8BF08390869E280E00011F
:10073000606F000E616F000E626F000E636F8CECD5
:100740008FF08488879A849284808484280E0001A4
:10075000606F000E616F000E626F000E636F8CECB5
:100760008FF08498320E0001646F000E656F000EEA
:10077000666F000E676FF1EC8BF0280E0001606F62
:10078000000E616F000E626F000E636F8CEC8FF0D5
:100790008488879A849284808484280E0001606F04
:1007A000000E616F000E626F000E636F8CEC8FF0B5
:1007B0008498320E0001646F000E656F000E666F44
:1007C000000E676FF1EC8BF0280E0001606F000ED9
:1007D000616F000E626F000E636F8CEC8FF0848887
:1007E000879A849284808484280E0001606F000EB2
:1007F000616F000E626F000E636F8CEC8FF0849857
:10080000320E0001646F000E656F000E666F000E01
:10081000676FF1EC8BF0280E0001606F000E616FC6
:10082000000E626F000E636F8CEC8FF08488879AE5
:10083000849284808494280E0001606F000E616FA2
:10084000000E626F000E636F8CEC8FF08498320E96
:100850000001646F000E656F000E666F000E676F1B
:10086000F1EC8BF0280E0001606F000E616F000E3E
:10087000626F000E636F8CEC8FF08488879A84928D
:1008800084808494280E0001606F000E616F000E5A
:10089000626F000E636F8CEC8FF08498280E00015D
:1008A000606F000E616F000E626F000E636F8CEC64
:1008B0008FF08488878A849284908494280E000123
:1008C000606F000E616F000E626F000E636F8CEC44
:1008D0008FF08498280E0001606F000E616F000E8B
:1008E000626F000E636F8CEC8FF08488879A84921D
:1008F00084908494280E0001606F000E616F000EDA
:10090000626F000E636F8CEC8FF08498280E0001EC
:10091000606F000E616F000E626F000E636F8CECF3
:100920008FF08488878A848284808484280E0001E2
:10093000606F000E616F000E626F000E636F8CECD3
:100940008FF08498280E0001606F000E616F000E1A
:10095000626F000E636F8CEC8FF08488879A8492AC
:1009600084908494280E0001606F000E616F000E69
:10097000626F000E636F8CEC8FF08498280E00017C
:10098000606F000E616F000E626F000E636F8CEC83
:100990008FF08488879A849284908484280E000142
:1009A000606F000E616F000E626F000E636F8CEC63
:1009B0008FF08498280E0001606F000E616F000EAA
:1009C000626F000E636F8CEC8FF08488879A84923C
:1009D00084908494280E0001606F000E616F000EF9
:1009E000626F000E636F8CEC8FF08498280E00010C
:1009F000606F000E616F000E626F000E636F8CEC13
:100A00008FF08488879A848284808494280E0001E1
:100A1000606F000E616F000E626F000E636F8CECF2
:100A20008FF0849812000001796F00017451400D1D
:100A3000F35000017925800F00017A6F030E000149
:100A4000646F000E656F000E666F000E676FF1EC4D
:100A50008BF08DD1280E0001606F000E616F000ECB
:100A6000626F000E636F8CEC8FF0848800017A391E
:100A70000F0B0001756F766B800E00017527000E5D
:100A8000762300017635763375330001763576337B
:100A900075330001763576337533010E0001751715
:100AA0000001753B7547875000017519DF0B7519FB
:100AB000876E00017A390F0B0001756F766B800E1F
:100AC00000017527000E76230001763576337533E5
:100AD0000001763576337533010E0001751700017C
:100AE0007547845000017519FD0B7519846E00015E
:100AF0007A390F0B0001756F766B800E0001752738
:100B0000000E76230001763576310001786F000102
:100B100075310001776F010E0001771784500001D5
:100B20007719FE0B7719846E7AC075F00001753B5A
:100B30000F0E7517800E00017527010E0001751745
:100B4000000175477547845000017519FB0B751935
:100B5000846E280E0001606F000E616F000E626FE0
:100B6000000E636F8CEC8FF08498280E0001606F8C
:100B7000000E616F000E626F000E636F8CEC8FF0E1
:100B800084887AC075F00001D89075330001D89040
:100B900075330001D8907533010E000175170001FF
:100BA000753B7547875000017519DF0B7519876E06
:100BB0007AC075F00001D89075330001D890753374
:100BC000010E000175170001754784500001751969
:100BD000FD0B7519846E7AC075F00001D8907533DD
:100BE000010E00017517845000017519FE0B75196F
:100BF000846E7AC075F0010E00017517000175470B
:100C00007547845000017519FB0B7519846E280E09
:100C10000001606F000E616F000E626F000E636F67
:100C20008CEC8FF08498120000F084880001756BC2
:100C30007AAF02D00001752B010E0001751700017B
:100C4000753B7547875000017519DF0B7519876E65
:100C50007AC075F0060E0001766F0001D8907533EA
:100C60000001762FFAD7010E0001751700017547B4
:100C7000845000017519FD0B7519846E7AC075F0EA
:100C8000050E0001766F0001D89075330001762FB4
:100C9000FAD7010E00017517845000017519FE0B7B
:100CA0007519846E7AC075F00001753B0F0E7517CB
:100CB000010E00017517000175477547845000014A
:100CC0007519FB0B7519846E7AC075F00001D89008
:100CD00075330001D89075330001D8907533010E3B
:100CE00000017517875000017519FE0B7519876E85
:100CF0007AC075F00001D89075330001D890753333
:100D0000010E000175170001754787500001751924
:100D1000FD0B7519876E7AC075F00001D890753398
:100D2000010E0001751700017547754787500001D6
:100D30007519FB0B7519876E7AC075F0010E0001ED
:100D400075170001753B7547845000017519DF0B5D
:100D50007519846E280E0001606F000E616F000E21
:100D6000626F000E636F8CEC8FF0849812003C5021
:100D7000010AD8B46FD6030AD8A4120055D71200BE
:100D80000001856F85C06FF0070E0001706F0001D4
:100D90006F356F330001702FFAD7010E00016F1706
:100DA000010E00016F1B0E01E45100016F19FE0BD3
:100DB0006F190E01E46F6EC06FF0070E0001706FC7
:100DC00000016F356F330001702FFAD7010E00015B
:100DD0006F1700016F470E01E75100016F19FD0BFE
:100DE0006F190E01E76F00018551800A1C0FD8A012
:100DF00006D0000E0001786F640E776F08D00001F6
:100E000085510001776F786B77BF780700D077C086
:100E100085F000016E51800A1C0FD8A006D0000E8C
:100E200000017A6F640E796F08D000016E510001E5
:100E3000796F7A6B79BF7A0700D079C06EF00001C4
:100E40008551800AE30FD8B006D0FF0E00017C6FF9
:100E50009C0E7B6F08D00001855100017B6F7C6B7D
:100E60007BBF7C0700D07BC085F000016E51800AFB
:100E7000E30FD8B006D0FF0E00017E6F9C0E7D6F91
:100E800008D000016E5100017D6F7E6B7DBF7E0733
:100E900000D07DC06EF085C06FF0070E0001706F4E
:100EA00000016F356F330001702FFAD700016F51C9
:100EB0000001716F726B71BF7207000171B116D0C2
:100EC00085C06FF00001706B6FBF700700016F1F6E
:100ED000701F6F4B702B640E00016F2500017F6F38
:100EE000000E000170210001806F2AD0000185BF33
:100EF00008D0000185510001816F826B81BF82079C
:100F00001AD0000185510001606F616B60BF6107FD
:100F1000000E0001636F010E626FABEC8FF00001F9
:100F2000601F0001611F0001604B612B60C081F0F8
:100F300061C082F000D081C07FF082C080F000D01C
:100F40007FC085F06EC06FF0070E0001706F00016A
:100F50006F356F330001702FFAD700016F51000118
:100F6000716F726B71BF7207000171B108D000011F
:100F70006E510001836F846B83BF84070ED0640EB3
:100F800000016E250001836FE86AD8B0E82A0001ED
:100F90006EBFE8060001846F00D083C06EF00001D0
:100FA00085510001606F616B60BF6107000E000139
:100FB000636FD00E626FABEC8FF060C066F061C003
:100FC00067F0000E0001696F640E686F76EC89F0BF
:100FD00066C073F067C074F000016E510001606F6D
:100FE000616B60BF6107000E0001636FD00E626F1E
:100FF000ABEC8FF060C066F061C067F0000E0001DE
:10100000696F640E686F76EC89F066C075F067C032
:1010100076F075C060F076C061F049EC8FF073C077
:1010200060F074C061F025EC8FF01200700E0001CA
:10103000736F000E0001746FBAD0250E000179198C
:10104000D8B40AD06CC0D9FF6DC0DAFF79C0DFFF19
:1010500000016C4B6D2BABD0000E0001756F04D0FE
:10106000B8D019D0A4D017D06EC0F6FF6FC0F7FF6C
:1010700000016E4B6F2B000EF86E0800F5CF79F073
:1010800000017951000AD8B4A4D0640AD8B403D0BE
:101090000D0AD8A48CD073C0D9FF74C0DAFFDECF9C
:1010A00077F0DDCF78F0020E00017327000E742375
:1010B000000178AF09D0030E000175130001776DB0
:1010C000781FD8B0782B00D0010E0001796F050E83
:1010D00000017919D8B41DD001D01BD0000179517D
:1010E000020D150EF324F66EFF0EF420F76EF86A6B
:1010F000000EF8220900F5500001775D0900F55057
:1011000000017859D8A005D001D003D00001792B77
:10111000DED775C072F0030E00017217D8B40AD082
:101120006CC0D9FF6DC0DAFF2D0EDF6E00016C4B75
:101130006D2B00D079C076F032D000017651020DCF
:10114000150EF324F66EFF0EF420F76EF86A000E0B
:10115000F8220900F5CF62F00A00F5CF63F077C0FE
:1011600060F078C061F04FEC8DF060C067F061C056
:1011700068F0000E00016A6F0A0E696F44EC8EF091
:1011800000016751300F0001796F6CC0D9FF6DC04D
:10119000DAFF79C0DFFF00016C4B6D2B00D000013E
:1011A000760700017629D8B402D0C7D700D06EC028
:1011B000F6FF6FC0F7FF00016E4B6F2B000EF86E4D
:1011C0000800F5CF79F000017951D8B402D035D7B5
:1011D00000D06CC0D9FF6DC0DAFF000EDF6E1200C8
:1011E0001200669CF60E0E012D17F10E0E011D1356
:1011F000F40E0E012C172F0E0E011713F60E0E0112
:101200002A173F0E0E011813668CF28EF28C220EF6
:10121000AF6E000E0F01306FAC94679E6786679CBF
:10122000679AAC98AB8EAB9CAB88AC8AAC9C9D9813
:101230009D8A220E0F011F6F000E0F01206F0F01FC
:1012400032950F01319F0F0131870F01319D0F0141
:10125000319B0F0132990F01338F0F01339D0F0125
:1012600033890F01328B0F01329DA398A38A220E7E
:101270000F012B6F000E0F012C6F0F012E950F0128
:101280002D9F0F012D870F012D9D0F012D9B0F010C
:101290002E990F012F8F0F012F9D0F012F890F0105
:1012A0002E8B0F012E9D6198618A95889594220E50
:1012B0000E01FB6F000E0E01FC6F0E01FE950E017C
:1012C000FD9F0E01FD870E01FD9D0E01FD9B0E0190
:1012D000FE990E01FF8F0E01FF9D0E01FF890E0189
:1012E000FE8B0E01FE9D619C618E1200000E0001BE
:1012F0006B6F000169AF09D00001686D691FD8B03C
:10130000692B010E00016B6F00D0000167AF09D09F
:101310000001666D671FD8B0672B010E00016B1BC3
:1013200000D0000E00016D6F000E6C6F000168515F
:1013300000016911D8B431D0010E00016A6F07D0E5
:101340000001D8906837693700016A2B00D000018E
:1013500069BF02D0F5D700D00001D8906C376D3747
:10136000000168510001665D000169510001675983
:10137000D8A00BD0000168510001665F00016951DF
:101380000001675B00016C8100D00001D8906933D7
:10139000683300016A2FE0D700D000016B510001D3
:1013A000D8B406D000016C6D6D1FD8B06D2B00D085
:1013B0006CC066F06DC067F012001200EACF15F045
:1013C000E1CF16F0E2CF17F0D9CF18F0DACF19F04D
:1013D000F3CF1AF0F4CF1BF0F6CF1CF0F7CF1DF0CF
:1013E000F8CF1EF0F5CF1FF0F2A408D0C10ED66ED4
:1013F000F294F28A95EC90F02CD000D09EAA0CD0FA
:101400003650010D000EF324D96E010EF420DA6E71
:10141000AECFDFFF362A00D0A450A6AA0CD037509A
:10142000010DC80EF324D96E030EF420DA6E2ACF14
:10143000DFFF372A00D0A6AE0CD03950010DBC0E0C
:10144000F324D96E050EF420DA6EFACEDFFF392AC6
:1014500000D01FC0F5FF1EC0F8FF1DC0F7FF1CC065
:10146000F6FF1BC0F4FF1AC0F3FF19C0DAFF18C063
:10147000D9FF17C0E2FF16C0E1FF15C0EAFF14C094
:10148000E9FF13C0FBFF12C0FAFF11008CEC90F0D3
:1014900060C078F061C079F062C07AF063C07BF020
:1014A00000D078C070F079C071F07AC072F07BC063
:1014B00073F00001701F711F721F731F702B000EDD
:1014C0007123722373238CEC90F0000170510001A2
:1014D00060250001746F000171510001612100015C
:1014E000756F00017251000162210001766F0001E9
:1014F0007351000163210001776F6CC060F06DC013
:1015000061F06EC062F06FC063F0E80E0001646FBE
:10151000030E656F000E666F000E676FCEEC8DF0E8
:10152000000160510001745D0001615100017559B5
:1015300000016251000176590001635100017759A1
:10154000D8A0AFD7120003EEC8F013EEE8F0EE6AB1
:10155000E550E150FCE1E250FAE103EE00F0C80E84
:10156000EE6AE806FDE102EE00F0B20EEE6AE80671
:10157000FDE101EE00F0C60EEE6AE806FDE100EEC8
:10158000B9F0250EEE6AE806FDE100EE20F01E0E31
:10159000EE6AE806FDE1B00EF66E200EF76E010E63
:1015A000F86E01EEC6F010EE29F00900F5CFEEFF5F
:1015B000E550E150FAE15A0EF66E200EF76E010E7C
:1015C000F86E00EE8DF010EE2CF00900F5CFEEFF76
:1015D000E550E150FAE13A0EF66E210EF76E010E7B
:1015E000F86E0900F5CF3EF00900F5CF3FF0090095
:1015F000F5CF40F0000190EF8DF00001626F000E1A
:101600000001616F3F0E00016213FC0E00016013C8
:101610000F014951C009000162150F01496F0F0107
:1016200049510F09000160150F01496F050EF66E53
:10163000000EF76E300EF86E08000001F5A203D020
:101640000001616904D0000E0001616F00D03F0EFF
:1016500000016219D8A402D098901200BF0E0001B8
:101660006219D8A40AD09890000161510001D8B441
:1016700002D096981200999A12007F0E000162190A
:10168000D8B404D000016229D8A4120098900001B7
:1016900061510001D8B403D09698969602D0999AD9
:1016A00099989896120012000001626F000E0001D6
:1016B000616F3F0E00016213FC0E00016013B95010
:1016C000C00900016215B96EB9500F09000160151B
:1016D000B96E050EF66E000EF76E300EF86E08004D
:1016E0000001F5A203D00001616904D0000E0001E1
:1016F000616F00D03F0E00016219D8A402D094940B
:101700001200BF0E00016219D8A40AD094940001FF
:1017100061510001D8B402D0969C1200999E12002B
:101720007F0E00016219D8B404D000016229D8A448
:1017300012009494000161510001D8B403D0969C2A
:10174000969A02D0999E999C9898120012000001D6
:10175000676F00016751C7EC8FF064C062F0000151
:101760006751ADEC8EF00001686F00016851000117
:10177000D8B407D000016751E2EC8FF00001685146
:10178000120065C062F000016751ADEC8EF00001FF
:10179000686F000168510001D8B407D0000167519B
:1017A000E2EC8FF000016851120066C062F00001A7
:1017B0006751ADEC8EF00001686F000168510001C7
:1017C000D8B407D000016751E2EC8FF000016851F6
:1017D000120000016751E2EC8FF000016851120025
:1017E00012008CEC90F060C070F061C071F062C0CB
:1017F00072F063C073F000D070C068F071C069F01F
:1018000072C06AF073C06BF00001681F691F6A1F25
:101810006B1F682B000E69236A236B238CEC90F0FE
:10182000000168510001602500016C6F00016951E1
:101830000001612100016D6F00016A510001622108
:1018400000016E6F00016B510001632100016F6F99
:101850000001645100016C5D0001655100016D598A
:101860000001665100016E590001675100016F5976
:10187000D8A0C2D712000001626F0C0E0F01496F91
:101880003F0E0F01361760C061F0300E0001611786
:101890000001D89061370001D89061350F013613EF
:1018A00036CF61F0C00E00016117D8A405D0CA94EC
:1018B00062C0CBFFCA8412000F013651C00B400A30
:1018C000D8A407D00F01049562C005FF0F0104855D
:1018D00012000F013651C00B800AD8A407D00F01A7
:1018E0003D9562C03EFF0F013D8512000F0136514C
:1018F000C00BC00AD8A412000F013A9562C03BFF8A
:101900000F013A8512001200669CF80E0E01231397
:10191000969C4F0E0E012113969E668C0E01E69149
:101920000E01E9930F0104850F0104830F013D852A
:101930000F013D83AF0E0001606F330ECCEC8CF0D5
:10194000000E0001616F000E606F49EC8FF0FC0E1D
:101950000001606F3F0E54EC8BF00C0EB96E490E17
:101960000F01366FEF0E0001606F330E3BEC8CF011
:10197000000E0001616F000E606F25EC8FF0FC0E11
:101980000001606F3F0EFDEC8AF0000E00016E6FEB
:10199000000EC0EC86F012000001626F0C0EB96EF2
:1019A000FC0E0F01361700016039E8461F0B030BD0
:1019B0000F01361336CF61F0070E00016117D8A46E
:1019C00005D0CA9462C0CBFFCA8412000F01365101
:1019D000070BE806D8A407D00F01049562C005FFE5
:1019E0000F01048512000F013651070B020AD8A41B
:1019F00007D00F013D9562C03EFF0F013D851200EB
:101A00000F013651070B030AD8A412000F013A95B3
:101A100062C03BFF0F013A8512001200020EC7ECB4
:101A20008FF03C0E0001626F020EADEC8EF0030EE3
:101A30000001626F020EADEC8EF0020EE2EC8FF050
:101A4000020EC7EC8FF03D0E0001626F020EADEC8E
:101A50008EF0000E0001696F050E0001696501D06E
:101A600019D000016951010DF35000016425D96EB0
:101A7000F45000016521DA6EDF500001666F676B7C
:101A800066C060F067C061F0020ED7EC8EF0000116
:101A9000692BE2D7020EE2EC8FF012001200000E6A
:101AA0000001666F000E656F000162510001631155
:101AB000D8B431D0010E0001646F07D00001D89076
:101AC000623763370001642B00D0000163BF02D08E
:101AD000F5D700D00001D890653766370001625114
:101AE0000001605D0001635100016159D8A00BD075
:101AF000000162510001605F000163510001615B00
:101B00000001658100D00001D89063336233000189
:101B1000642FE0D700D065C060F066C061F01200AD
:101B2000D08EF28E6DEC90F000D0F29E0BEC8EF029
:101B300000018C6FF28E010E00016C6F000E6D6F54
:101B4000000E6E6F000E6F6F46EC8AF0860E00017D
:101B5000646F000E0001656F0EEC8DF000018C517A
:101B60000001D8B40DD0000E00017B6F780E00018B
:101B70007C6FFF0E00017D6F000E00EC80F000D046
:101B8000010E00016C6F000E6D6F000E6E6F000E87
:101B90006F6F46EC8AF0C9D77BEF00F0000E0001B2
:101BA000686F000E696F000E6A6F000E6B6F00D0D9
:101BB000000160A111D000016451000168270001FB
:101BC0006551000169230001665100016A2300018B
:101BD000675100016B2300D00001D890643765374E
:101BE000663767370001D8906333623361336033FF
:101BF00000016051000161110001621100016311D7
:101C0000D8A4D6D768C060F069C061F06AC062F03D
:101C10006BC063F0120003CF69F03C0E0001646FEB
:101C2000000E0001656F500E0001666F020EA7ECFA
:101C30008BF000016A6F3C0E0001646F010E000121
:101C4000656F200E0001666F020EA7EC8BF000019D
:101C50006A273C0E0001646F020E0001656F000EE2
:101C60000001666F020EA7EC8BF000016A270001ED
:101C70006A51800A820FD8B003D00F01199F00D09B
:101C800000016A51120012000001695100016A113D
:101C9000D8B42BD0010E00016B6F07D00001D89093
:101CA00069376A3700016B2B00D000016ABF02D090
:101CB000F5D700D0000169510001675D00016A514C
:101CC00000016859D8A009D0000169510001675F7F
:101CD00000016A510001685B00D00001D8906A33AE
:101CE000693300016B2FE6D700D067C067F068C08A
:101CF00068F0120060C064F061C065F004D00001BB
:101D0000644B652B00D064C0D9FF65C0DAFFDF509B
:101D1000D8B409D0F4D707D00001644B652B00017B
:101D2000624B632B00D062C0F6FF63C0F7FF000E6A
:101D3000F86E64C0D9FF65C0DAFF0D0EF76403D0FA
:101D40000800F55005D0F6CFE9FFF7CFEAFFEF50D6
:101D5000DF6EDF50D8A4E0D712000001636F0001EE
:101D60006305D8A410D062C0C9FF010E6BEC8FF0E0
:101D7000C5AC02D0FF0E1200C6AE03D0C69EFE0E4A
:101D80001200000E120062C003FF020E6BEC8FF017
:101D90000F0118AD02D0FF0E12000F0119AF04D0D1
:101DA0000F01199FFE0E1200000E1200120000011A
:101DB000626F000E0001636F00016205D8A40DD0B0
:101DC000C58600D0C7A0FED760C0D9FF61C0DAFFCA
:101DD000C9CFDFFFC588C59612000F01188700D054
:101DE0000F011AA1FDD760C0D9FF61C0DAFF03CF90
:101DF000DFFF0F0118890F01189712001200000170
:101E0000606F00016005D8A40DD094869488280ED8
:101E1000C66E000EC56E400E696E9F0EC86E800EB7
:101E2000C76E1200958A958C280E0F01196F000E4F
:101E30000F01186F400E0F01396F9F0E0F01026FD7
:101E4000800E0F011A6F1200120060C062F061C0B4
:101E500063F0060ED890000162376337E82EFAD798
:101E600062C064F063C065F065C04AFF64C062F0A0
:101E70000001D89062330001D8906233300E000127
:101E800062170F014951CF0B000162110F01496F19
:101E9000120060C062F061C063F0060ED8900001CD
:101EA00062376337E82EFAD762C064F063C065F02A
:101EB00065C0BAFF64C062F00001D89062330001CF
:101EC000D8906233300E00016217B950CF0B000179
:101ED0006211B96E12000001616F00016105D8B492
:101EE00002D00DD000D0C5CF60F01F0E00016017EA
:101EF000D8A4F9D7C7A41200F6D7120000D018CF83
:101F000060F01F0E00016017D8A4F9D70F011AA5C1
:101F10001200F5D712001200FD0E05D0050EE82EB6
:101F2000FED700F0FE0E00016027FF0E6123FF0EBA
:101F30006223FF0E632300D0000163BF1200000183
:101F400063510001621100016111E8E100016005C7
:101F5000D8B0E4D712000001605100016203F3CF52
:101F600064F0F4CF65F00001605100016303F350A9
:101F7000000165270001615100016203F350000177
:101F8000652764C060F065C061F0120012000001B6
:101F9000626F00016205D8A409D0010E6BEC8FF0CE
:101FA000C58000D0C5A01200FDD71200020E6BEC58
:101FB0008FF00F01188100D00F0118A11200FCD77B
:101FC000120012000001626F00016205D8A409D05E
:101FD000010E6BEC8FF0C58400D0C5A41200FDD7B4
:101FE0001200020E6BEC8FF00F01188500D00F016C
:101FF00018A51200FCD71200120034043510D8B412
:10200000120001D01200B18CB18EB198B19AB18E8C
:10201000A092B180000E356E010E346ED70ED56ED3
:10202000F184F294F28AC10ED66E12000F01539F12
:10203000000E0E01476F000E0E01466F98809882C9
:102040009884988698880E01E6830E01E6850E0135
:10205000E687110E0F01546F1200014200000000CC
:102060000000000145005A5A5A5A5A5A502000019D
:102070004300005A5A5A5A5A014400010300000012
:102080000001430001009380938293849386669CB1
:10209000F20E0E013717F10E0E013817668CF18A19
:1020A000F09CF090F086F186F192F094F08A1200A4
:1020B0003030303030303030303030303030303020
:1020C000303030300041540D0A4F4B0D0A000000F3
:1020D0000000000000000000000016EC90F084EC0E
:1020E0008CF062EC83F0F1EC88F043EC90F0020E9F
:1020F000FFEC8EF0010EFFEC8EF080EC90F0120001
:10210000C10ED66E000E0001DA6F000EDB6F000EFE
:10211000DC6F000EDD6F1200DAC060F0DBC061F032
:10212000DCC062F0DDC063F01200010E0001DA27AE
:0E213000000EDB23DC23DD23120025690000F6
:10FFF000A0F701F023F0FFF7FBFFFFFC1DF0F8F383
:00000001FF
