:040000007BEF00F0A2
:10000800FACF12F0FBCF13F0E9CF14F0EEEF8CF03B
:10001800D8CF01F0E8CF02F0E0CF03F0FACF04F038
:10002800FBCF05F0E9CF06F0EACF07F0E1CF08F003
:10003800E2CF09F0D9CF0AF0DACF0BF0F3CF0CF00A
:10004800F4CF0DF0F6CF0EF0F7CF0FF0F8CF10F099
:10005800F5CF11F0F0A013D081A008D0FF0E222612
:10006800FF0E2322FF0E2422FF0E05D0010E2226AA
:10007800000E23222422252200D0F09015D0F0A4CF
:1000880013D081A408D0FF0E2A26FF0E2B22FF0EC4
:100098002C22FF0E05D0010E2A26000E2B222C2220
:1000A8002D2200D0F09400D011C0F5FF10C0F8FF49
:1000B8000FC0F7FF0EC0F6FF0DC0F4FF0CC0F3FF32
:1000C8000BC0DAFF0AC0D9FF09C0E2FF08C0E1FF90
:1000D80007C0EAFF06C0E9FF05C0FBFF04C0FAFF3E
:1000E80003C0E0FF02C0E8FF01C0D8FF100056EFD0
:0200F8008DF089
:10F91600000000C90092015B022403ED03B6047ED9
:10F926000547061007D907A1086A09320AFB0AC368
:10F936000B8B0C530D1B0EE30EAB0F72103911001F
:10F9460012C7128E1355141B15E115A7166D173322
:10F9560018F818BD19821A461B0B1CCF1C931D568E
:10F966001E191FDC1F9F2061212322E422A6236784
:10F97600242725E725A72667272628E528A3296122
:10F986002A1E2BDB2B982C542D102ECC2E862F4185
:10F9960030FB30B4316D322633DE3396344D3503C9
:10F9A60036B9366F372438D8388C393F3AF23AA40C
:10F9B6003B563C073DB73D673E163FC53F7340206B
:10F9C60041CD4179422543D0437A442345CC457401
:10F9D600461C47C34769480E49B349574AFA4A9DE8
:10F9E6004B3F4CE04C804D204EBF4E5D4FFA4F973B
:10F9F600503351CE51685201539A533254C9545F11
:10FA060055F45589561D57B0574258D3586359F384
:10FA160059815A0F5B9C5B285CB35C3D5DC65D4FAC
:10FA26005ED65E5D5FE25F6760EB606E61F061719E
:10FA360062F1627063EE636B64E7646265DD65566E
:10FA460066CE664567BC673168A56819698B69FC2F
:10FA5600696C6ADB6A4A6BB76B236C8E6CF86C61F7
:10FA66006DC96D306E956EFA6E5E6FC06F227082D4
:10FA760070E17040719D71F9715472AE7206735ED9
:10FA860073B5730A745E74B17403755475A475F313
:10FA96007540768D76D87622776B77B377F9773F90
:10FAA600788378C678087949798979C779047A415B
:10FAB6007A7C7AB57AEE7A257B5C7B917BC47BF780
:10FAC6007B297C597C887CB67CE27C0E7D387D6106
:10FAD6007D897DB07DD57DF97D1C7E3E7E5E7E7EF8
:10FAE6007E9C7EB97ED47EEF7E087F207F377F4C5A
:10FAF6007F617F747F867F967FA67FB47FC17FCD2F
:10FB06007FD77FE07FE87FEF7FF57FF97FFC7FFE81
:10FB16007FFF7FFE7FFC7FF97FF57FEF7FE87FE049
:10FB26007FD77FCD7FC17FB47FA67F967F867F7488
:10FB36007F617F4C7F377F207F087FEF7ED47EB941
:10FB46007E9C7E7E7E5E7E3E7E1C7EF97DD57DB071
:10FB56007D897D617D387D0E7DE27CB67C887C5911
:10FB66007C297CF77BC47B917B5C7B257BEE7AB51D
:10FB76007A7C7A417A047AC779897949790879C68B
:10FB86007883783F78F977B3776B772277D8768D55
:10FB9600764076F375A47554750375B1745E740A70
:10FBA60074B5735E730673AE725472F9719D7140CB
:10FBB60071E17082702270C06F5E6FFA6E956E3062
:10FBC6006EC96D616DF86C8E6C236CB76B4A6BDB1E
:10FBD6006A6C6AFC698B691969A5683168BC6745F6
:10FBE60067CE665666DD656265E7646B64EE6370D4
:10FBF60063F1627162F0616E61EB606760E25F5DA6
:10FC06005FD65E4F5EC65D3D5DB35C285C9C5B0F58
:10FC16005B815AF3596359D3584258B0571D5789D7
:10FC260056F4555F55C95432549A5301536852CE0F
:10FC36005133519750FA4F5D4FBF4E204E804DE0E5
:10FC46004C3F4C9D4BFA4A574AB3490E496948C343
:10FC5600471C477446CC4523457A44D0432543790F
:10FC660042CD4120417340C53F163F673EB73D0731
:10FC76003D563CA43BF23A3F3A8C39D83824386F8B
:10FC860037B93603364D359634DE3326336D32B406
:10FC960031FB304130862FCC2E102E542D982CDB84
:10FCA6002B1E2B612AA329E52826286727A726E7E6
:10FCB6002527256724A623E422232261219F20DC11
:10FCC6001F191F561E931DCF1C0B1C461B821ABDE7
:10FCD60019F81833186D17A716E1151B1555148E4C
:10FCE60013C712001239117210AB0FE30E1B0E531D
:10FCF6000D8B0CC30BFB0A320A6A09A108D907103F
:10FD06000747067E05B604ED0324035B029201C98C
:10FD160000000037FF6EFEA5FDDCFC13FC4AFB82EB
:10FD2600FAB9F9F0F827F85FF796F6CEF505F53D3E
:10FD3600F475F3ADF2E5F11DF155F08EEFC7EE0067
:10FD4600EE39ED72ECABEBE5EA1FEA59E993E8CD43
:10FD5600E708E743E67EE5BAE4F5E331E36DE2AAB8
:10FD6600E1E7E024E061DF9FDEDDDD1CDD5ADC99A2
:10FD7600DBD9DA19DA59D999D8DAD71BD75DD69FE4
:10FD8600D5E2D425D468D3ACD2F0D134D17AD0BF61
:10FD9600CF05CF4CCE93CDDACC22CC6ACBB3CAFDFD
:10FDA600C947C991C8DCC728C774C6C1C50EC55C9A
:10FDB600C4AAC3F9C249C299C1EAC03BC08DBFE01B
:10FDC600BE33BE87BDDBBC30BC86BBDDBA34BA8C65
:10FDD600B9E4B83DB897B7F2B64DB6A9B506B5635E
:10FDE600B4C1B320B380B2E0B141B1A3B006B069EB
:10FDF600AFCDAE32AE98ADFFAC66ACCEAB37ABA1F5
:10FE0600AA0CAA77A9E3A850A8BEA72DA79DA60D60
:10FE1600A67FA5F1A464A4D8A34DA3C3A23AA2B118
:10FE2600A12AA1A3A01EA0999F159F929E109E8F06
:10FE36009D0F9D909C129C959B199B9E9A239AAA16
:10FE4600993299BB984498CF975B97E79675960435
:10FE56009694952595B6944994DD93729308939F4D
:10FE6600923792D0916B910691A2904090DE8F7E50
:10FE76008F1F8FC08E638E078EAC8D528DFA8CA22B
:10FE86008C4B8CF68BA28B4F8BFD8AAC8A5C8A0DD1
:10FE96008AC08973892889DE8895884D880788C134
:10FEA600877D873A87F886B78677863986FC85BF49
:10FEB6008584854B851285DB84A4846F843C840904
:10FEC60084D783A78378834A831E83F282C8829F5E
:10FED60082778250822B820782E481C281A281824C
:10FEE60081648147812C811181F880E080C980B4CA
:10FEF600809F808C807A806A805A804C803F8033D5
:10FF06008029802080188011800B80078004800261
:10FF16008001000A006400E80310273C04429F6A3F
:10FF2600429001424DBB40EC473E8E1FBB3C044213
:10FF36005A8B420444429C4F4100803F4D455353E7
:10FF46004147455F474F45535F484552450D0A00B7
:10FF56005243204D6F64650A4552523A2025692066
:10FF6600200057616E646572696E0A2D2D2D2E2E46
:10FF76002D2D2D005069787920436F6D0A2066611A
:10FF8600696C757265005069787920436F6D0A2037
:10FF9600737563636573730053656C662043616CA8
:10FFA6000A5761697420506C7A005243204D6F6481
:10FFB600650A5365617263682E2E0057652061726B
:10FFC600650A77696E6E696E672100616E613A2512
:10FFD600690A747970652025690041542B434D47A1
:10FFE600463D310041542B4353510D0A0041542BD9
:0AFFF600434D47533D002500000075
:020000040001F9
:100000000201DA6F21EE32F012EEC6F0130EDBCFF2
:10001000E3FFE806FCE27B0E0201DD6F000E020149
:10002000DE6F78C020F00201DA5112EC85F0000E8C
:100030000201E26F000EE16FC0D00201E151000148
:10004000792500017F6F0201E25100017A21000150
:10005000806F7FC0F6FF80C0F7FF000EF86E0D0EB8
:10006000F76403D00800F55005D0F6CFE9FFF7CFCD
:10007000EAFFEF50250AD8A46BD0010E0201E1255A
:1000800000017F6F000E0201E2210001806F79C044
:1000900081F07AC082F000017F51000181270001C8
:1000A00080510001822381C0F6FF82C0F7FF000E5D
:1000B000F86E0D0EF76403D00800F55005D0F6CFAA
:1000C000E9FFF7CFEAFFEF50250AD8A40FD0C60EFC
:1000D0000001606F020E0001616FFC0E0001626F93
:1000E000FF0E0001636FD9EC90F02ED0DDC2D9FF76
:1000F000DEC2DAFFDECFDBF2DDCFDCF2020E020180
:10010000DD27000EDE23B20E00016B6F020E000130
:100110006C6FDD0E00016D6FFF0E00016E6FDBC2B4
:100120006FF0DCC270F036EC89F0C60E0001606F33
:10013000020E0001616FB20E0001626F020E00013B
:10014000636FD9EC90F000D00201E14BE22B31D08B
:100150000201E1510001792500017F6F0201E251A6
:1001600000017A210001806F7FC0F6FF80C0F7FF99
:10017000000EF86E0D0EF76403D00800F55005D0A0
:10018000F6CFE9FFF7CFEAFFEF500201DF6F000E75
:100190000201E06FC60E0001606F020E0001616F88
:1001A000DF0E0001626F020E0001636FD9EC90F068
:1001B00000D00201E14BE22B00D00201E15100012D
:1001C000792500017F6F0201E25100017A210001CF
:1001D000806F7FC0F6FF80C0F7FF000EF86E0D0E37
:1001E000F76403D00800F55005D0F6CFE9FFF7CF4C
:1001F000EAFFEF500009D8B40DD00201E2BF1DD7CD
:100200000201E25107E1C80E0201E15DD8B002D05F
:1002100014D700D0000E0201E46F000EE36F38D255
:10022000C60E0201E325D96E020E0201E421DA6E48
:100230000A0EDE18D8A407D000017829206E000E1F
:1002400012EC85F021D2020E0001646F000E656F82
:10025000000E666F000E676F0AEC91F08380FFD18D
:10026000280E0001606F000E616F000E626F000EBD
:10027000636F97EC91F08488C60E0201E325D96E76
:10028000020E0201E421DA6EDF5000017F6F0001EF
:100290007F3B0F0E7F170001D8907F330001D8906D
:1002A0007F330001D8907F33010E00017F170001DA
:1002B0007F3B7F47875000017F19DF0B7F19876ED7
:1002C000C60E0201E325D96E020E0201E421DA6EA8
:1002D000DF5000017F6F00017F3B0F0E7F17000191
:1002E000D8907F330001D8907F33010E00017F1733
:1002F00000017F47845000017F19FD0B7F19846E38
:10030000C60E0201E325D96E020E0201E421DA6E67
:10031000DF5000017F6F00017F3B0F0E7F17000150
:10032000D8907F33010E00017F17845000017F19A0
:10033000FE0B7F19846EC60E0201E325D96E020EF4
:100340000201E421DA6EDF5000017F6F00017F3B84
:100350000F0E7F17010E00017F1700017F477F47B7
:10036000845000017F19FB0B7F19846E280E000159
:10037000606F000E616F000E626F000E636F97EC8E
:1003800091F08498280E0001606F000E616F000EDE
:10039000626F000E636F97EC91F08488C60E0201C5
:1003A000E325D96E020E0201E421DA6EDF5000016E
:1003B0007F6F0001D8907F330001D8907F33000118
:1003C000D8907F33010E00017F1700017F3B7F47EC
:1003D000875000017F19DF0B7F19876EC60E02015F
:1003E000E325D96E020E0201E421DA6EDF5000012E
:1003F0007F6F0001D8907F330001D8907F33010ECA
:1004000000017F1700017F47845000017F19FD0B19
:100410007F19846EC60E0201E325D96E020E020119
:10042000E421DA6EDF5000017F6F0001D8907F3346
:10043000010E00017F17845000017F19FE0B7F1908
:10044000846EC60E0201E325D96E020E0201E4217C
:10045000DA6EDF5000017F6F010E00017F1700018F
:100460007F477F47845000017F19FB0B7F19846E03
:10047000280E0001606F000E616F000E626F000EAB
:10048000636F97EC91F0E9D000F08488C60E02010A
:10049000E325D96E020E0201E421DA6EDF5000017D
:1004A0007F6F000E7FBF010E7F6F010E00017F176F
:1004B00000017F3B7F47875000017F19DF0B7F19C9
:1004C000876EC60E0201E325D96E020E0201E421F9
:1004D000DA6EDF5000017F6F060E0001806F0001B1
:1004E000D8907F330001802FFAD7010E00017F17CB
:1004F00000017F47845000017F19FD0B7F19846E36
:10050000C60E0201E325D96E020E0201E421DA6E65
:10051000DF5000017F6F050E0001806F0001D89051
:100520007F330001802FFAD7010E00017F1784501E
:1005300000017F19FE0B7F19846EC60E0201E325B0
:10054000D96E020E0201E421DA6EDF5000017F6FE6
:1005500000017F3B0F0E7F17010E00017F17000186
:100560007F477F47845000017F19FB0B7F19846E02
:10057000C60E0201E325D96E020E0201E421DA6EF5
:10058000DF5000017F6F0001D8907F330001D890C9
:100590007F330001D8907F33010E00017F17875011
:1005A00000017F19FE0B7F19876EC60E0201E3253D
:1005B000D96E020E0201E421DA6EDF5000017F6F76
:1005C0000001D8907F330001D8907F33010E0001E5
:1005D0007F1700017F47875000017F19FD0B7F19AE
:1005E000876EC60E0201E325D96E020E0201E421D8
:1005F000DA6EDF5000017F6F0001D8907F33010E6B
:1006000000017F1700017F477F47875000017F1956
:10061000FB0B7F19876EC60E0201E325D96E020E11
:100620000201E421DA6EDF5000017F6F010E00014C
:100630007F1700017F3B7F47845000017F19DF0B4C
:100640007F19846E280E0001606F000E616F000E2E
:10065000626F000E636F97EC91F0849808D0395068
:10066000010AD8B4FDD5030AD8B40ED700D0020EC3
:100670000001646F000E656F000E666F000E676FFD
:100680000AEC91F0839000D00201E34BE42B00D000
:10069000C60E0201E325D96E020E0201E421DA6ED4
:1006A000DF50D8B412000201E4BFBAD50201E45110
:1006B00007E1C80E0201E35DD8B01200B1D5120007
:1006C0001200010E396E0E01459B0E01479D0E0171
:1006D00046970E0146950E0146930E01E38FA798AB
:1006E0000E01F1970E01D99B0E01D89F0E01DA9BE6
:1006F000849484908492879A84988390869E95901F
:1007000096909692969496969698999A23EC92F053
:10071000640E0001646F000E656F000E666F000EC0
:10072000676F0AEC91F08390869E280E0001606F3F
:10073000000E616F000E626F000E636F97EC91F018
:100740008488879A849284808484280E0001606F54
:10075000000E616F000E626F000E636F97EC91F0F8
:100760008498320E0001646F000E656F000E666F94
:10077000000E676F0AEC91F0280E0001606F000E0A
:10078000616F000E626F000E636F97EC91F08488CA
:10079000879A849284808484280E0001606F000E02
:1007A000616F000E626F000E636F97EC91F084989A
:1007B000320E0001646F000E656F000E666F000E52
:1007C000676F0AEC91F0280E0001606F000E616FF8
:1007D000000E626F000E636F97EC91F08488879A29
:1007E000849284808484280E0001606F000E616F03
:1007F000000E626F000E636F97EC91F08498320EDA
:100800000001646F000E656F000E666F000E676F6B
:100810000AEC91F0280E0001606F000E616F000E6F
:10082000626F000E636F97EC91F08488879A8492D0
:1008300084808494280E0001606F000E616F000EAA
:10084000626F000E636F97EC91F08498050E0001C3
:10085000646F000E656F000E666F000E676F0AEC26
:1008600091F0280E0001606F000E616F000E626F44
:10087000000E636F97EC91F08488879A849284804D
:100880008494280E0001606F000E616F000E626F8D
:10089000000E636F97EC91F08498280E0001606F52
:1008A000000E616F000E626F000E636F97EC91F0A7
:1008B0008488878A849284908494280E0001606FD3
:1008C000000E616F000E626F000E636F97EC91F087
:1008D0008498280E0001606F000E616F000E626F39
:1008E000000E636F97EC91F08488879A84928490CD
:1008F0008494280E0001606F000E616F000E626F1D
:10090000000E636F97EC91F08498280E0001606FE1
:10091000000E616F000E626F000E636F97EC91F036
:100920008488878A848284808484280E0001606F92
:10093000000E616F000E626F000E636F97EC91F016
:100940008498280E0001606F000E616F000E626FC8
:10095000000E636F97EC91F08488879A849284905C
:100960008494280E0001606F000E616F000E626FAC
:10097000000E636F97EC91F08498280E0001606F71
:10098000000E616F000E626F000E636F97EC91F0C6
:100990008488879A849284908484280E0001606FF2
:1009A000000E616F000E626F000E636F97EC91F0A6
:1009B0008498280E0001606F000E616F000E626F58
:1009C000000E636F97EC91F08488879A84928490EC
:1009D0008494280E0001606F000E616F000E626F3C
:1009E000000E636F97EC91F08498280E0001606F01
:1009F000000E616F000E626F000E636F97EC91F056
:100A00008488879A848284808494280E0001606F91
:100A1000000E616F000E626F000E636F97EC91F035
:100A20008498120000016C6F2050400DF3500001BB
:100A30006C25800F00016D6F030E0001646F000EC6
:100A4000656F000E666F000E676F0AEC91F08DD136
:100A5000280E0001606F000E616F000E626F000EC5
:100A6000636F97EC91F0848800016D390F0B0001E2
:100A7000686F696B800E00016827000E6923000112
:100A800069356933683300016935693368330001BA
:100A9000693569336833010E000168170001683B4E
:100AA0006847875000016819DF0B6819876E0001DD
:100AB0006D390F0B0001686F696B800E00016827AC
:100AC000000E692300016935693368330001693517
:100AD00069336833010E00016817000168478450CC
:100AE00000016819FD0B6819846E00016D390F0B48
:100AF0000001686F696B800E00016827000E692392
:100B000000016935693100016B6F00016831000136
:100B10006A6F010E00016A17845000016A19FE0B0A
:100B20006A19846E6DC068F00001683B0F0E68178B
:100B3000800E00016827010E000168170001684758
:100B40006847845000016819FB0B6819846E280EF1
:100B50000001606F000E616F000E626F000E636F28
:100B600097EC91F08498280E0001606F000E616F81
:100B7000000E626F000E636F97EC91F084886DC079
:100B800068F00001D89068330001D8906833000104
:100B9000D8906833010E000168170001683B684770
:100BA000875000016819DF0B6819876E6DC068F007
:100BB0000001D89068330001D8906833010E00011D
:100BC000681700016847845000016819FD0B681917
:100BD000846E6DC068F00001D8906833010E00018A
:100BE0006817845000016819FE0B6819846E6DC087
:100BF00068F0010E000168170001684768478450DB
:100C000000016819FB0B6819846E280E0001606FE3
:100C1000000E616F000E626F000E636F97EC91F033
:100C20008498120000F084880001686B6DAF02D0D8
:100C30000001682B010E000168170001683B68473E
:100C4000875000016819DF0B6819876E6DC068F066
:100C5000060E0001696F0001D89068330001692F0A
:100C6000FAD7010E0001681700016847845000019F
:100C70006819FD0B6819846E6DC068F0050E0001DF
:100C8000696F0001D89068330001692FFAD7010E0F
:100C900000016817845000016819FE0B6819846E02
:100CA0006DC068F00001683B0F0E6817010E00016F
:100CB0006817000168476847845000016819FB0BFA
:100CC0006819846E6DC068F00001D8906833000127
:100CD000D89068330001D8906833010E000168177E
:100CE000875000016819FE0B6819876E6DC068F0A7
:100CF0000001D89068330001D8906833010E0001DC
:100D0000681700016847875000016819FD0B6819D2
:100D1000876E6DC068F00001D8906833010E000145
:100D20006817000168476847875000016819FB0B86
:100D30006819876E6DC068F0010E00016817000128
:100D4000683B6847845000016819DF0B6819846E9E
:100D5000280E0001606F000E616F000E626F000EC2
:100D6000636F97EC91F0849812003950010AD8B45F
:100D70006FD6030AD8A4120055D712000001836F62
:100D800083C06DF0070E00016E6F00016D356D338D
:100D900000016E2FFAD7010E00016D17010E000140
:100DA0006D1B0E01E45100016D19FE0B6D190E0152
:100DB000E46F6CC06DF0070E00016E6F00016D35C1
:100DC0006D3300016E2FFAD7010E00016D1700017F
:100DD0006D470E01E75100016D19FD0B6D190E01F4
:100DE000E76F00018351800A1C0FD8A006D0000EC7
:100DF0000001766F640E756F08D000018351000109
:100E0000756F766B75BF760700D075C083F00001F3
:100E10006C51800A1C0FD8A006D0000E0001786F1C
:100E2000640E776F08D000016C510001776F786B0A
:100E300077BF780700D077C06CF000018351800A3B
:100E4000E30FD8B006D0FF0E00017A6F9C0E796FC9
:100E500008D0000183510001796F7A6B79BF7A075E
:100E600000D079C083F000016C51800AE30FD8B044
:100E700006D0FF0E00017C6F9C0E7B6F08D0000136
:100E80006C5100017B6F7C6B7BBF7C0700D07BC00B
:100E90006CF083C06DF0070E00016E6F00016D35C0
:100EA0006D3300016E2FFAD700016D5100016F6F95
:100EB000706B6FBF700700016FB116D083C06DF00B
:100EC00000016E6B6DBF6E0700016D1F6E1F6D4BD5
:100ED0006E2B640E00016D2500017D6F000E000178
:100EE0006E2100017E6F2AD0000183BF08D000016F
:100EF000835100017F6F806B7FBF80071AD0000194
:100F000083510001606F616B60BF6107000E0001DB
:100F1000636F010E626F09EC92F00001601F000127
:100F2000611F0001604B612B60C07FF061C080F0E9
:100F300000D07FC07DF080C07EF000D07DC083F007
:100F40006CC06DF0070E00016E6F00016D356D33E2
:100F500000016E2FFAD700016D5100016F6F706BA9
:100F60006FBF700700016FB108D000016C51000124
:100F7000816F826B81BF82070ED0640E00016C25E9
:100F80000001816FE86AD8B0E82A00016CBFE8066A
:100F90000001826F00D081C06CF00001835100011C
:100FA000606F616B60BF6107000E0001636FD00E60
:100FB000626F09EC92F060C064F061C065F0000EF1
:100FC0000001676F640E666F86EC8CF064C071F090
:100FD00065C072F000016C510001606F616B60BF11
:100FE0006107000E0001636FD00E626F09EC92F092
:100FF00060C064F061C065F0000E0001676F640EB0
:10100000666F86EC8CF064C073F065C074F073C0DA
:1010100020F074C021F053EC91F071C020F072C048
:1010200021F02FEC91F01200C8C070F0C9C071F02F
:10103000CAC072F0CBC073F00001701F711F721F25
:10104000731F702B000E712372237323D9EC92F05F
:10105000000170510001602500018A6F000171518B
:101060000001612100018B6F0001725100016221BA
:1010700000018C6F000173510001632100018D6F2D
:1010800000018DBF10D000018D5100018C1108E1CD
:10109000DD0E00018A5D050E00018B59D8A003D03A
:1010A00075EC91F000D0D1C070F00001716B726BE3
:1010B000736B0001705100018A5D000171510001E4
:1010C0008B590001725100018C5900018D51800A29
:1010D0000001746F00017351800A00017459D8B087
:1010E0002AD08AC070F08BC071F08CC072F08DC0B5
:1010F00073F00001701F711F721F731F702B000EA1
:101100007123722373230001D15100017025000166
:10111000646F000E000171210001656F000E000177
:1011200072210001666F000E000173210001676FDC
:101130000AEC91F000D0CCC0CEF0CDC0CFF08584C9
:10114000858A859C040E0001606F000E616F000EA1
:10115000626F000E636F97EC91F020EED2F010EE0C
:1011600081F0080EDBCFE3FFE806FCE220EEBCF0E6
:1011700010EE75F00B0EDBCFE3FFE806FCE2000E8D
:1011800000018F6F000E8E6F00018FBF0AD000012B
:101190008F5120E1090E00018E5DD8B01BD001D027
:1011A00019D0A70E00018E25D96E000E00018F21E7
:1011B000DA6E810E00018E25E16E000E00018F2196
:1011C000E26EE75057EC8EF0DF6E00018E4B8F2BF6
:1011D000DBD700D0790E0001A819D8A435D0000EB5
:1011E0000001916F000E906F000191BF0AD00001C5
:1011F00091512AE10C0E0001905DD8B025D001D0AC
:1012000023D0090E000190250001706F000E00012F
:1012100091210001716FA70E00017025D96E000E9B
:1012200000017121DA6E750E00019025E16E000E4D
:1012300000019121E26EE75057EC8EF0DF6E000165
:10124000904B912BD1D700D0858C20EEAAF0DECF29
:10125000CCF0DDCFCDF0D9EC92F060C0C8F061C029
:10126000C9F062C0CAF063C0CBF012006F0E00017B
:10127000716F000E0001726FB9D0250E0001771951
:10128000D8B40AD06BC0D9FF6CC0DAFF77C0DFFFDB
:1012900000016B4B6C2BAAD0000E0001736F04D0C1
:1012A000B7D019D0A3D017D06DC0F6FF6EC0F7FF2E
:1012B00000016D4B6E2B000EF86E0800F5CF77F035
:1012C00000017751000AD8B4A3D0640AD8B403D07F
:1012D0000D0AD8A48BD071C0D9FF72C0DAFFDECF5F
:1012E00075F0DDCF76F0020E00017127000E72233B
:1012F000000176AF09D0030E000173130001756D74
:10130000761FD8B0762B00D0010E0001776F050E46
:1013100000017719D8B41DD001D01BD0000177513E
:10132000020D170EF324F66EFF0EF420F76EF86A26
:10133000000EF8220900F5500001755D0900F55016
:1013400000017659D8A005D001D003D00001772B39
:10135000DED773C021F0030E2116D8B40AD06BC0BB
:10136000D9FF6CC0DAFF2D0EDF6E00016B4B6C2BCA
:1013700000D077C074F032D000017451020D170E06
:10138000F324F66EFF0EF420F76EF86A000EF822D2
:101390000900F5CF62F00A00F5CF63F075C060F088
:1013A00076C061F076EC8FF060C067F061C068F0E5
:1013B000000E00016A6F0A0E696FA6EC90F0000142
:1013C0006751300F0001776F6BC0D9FF6CC0DAFF37
:1013D00077C0DFFF00016B4B6C2B00D0000174075E
:1013E00000017429D8B402D0C7D700D06DC0F6FF71
:1013F0006EC0F7FF00016D4B6E2B000EF86E0800FB
:10140000F5CF77F000017751D8B402D036D700D0AD
:101410006BC0D9FF6CC0DAFF000EDF6E1200120045
:1014200097949786979A979C8584858A14EC88F080
:1014300014EC88F0410E0001A819D8B40CD0730E3A
:101440000001A819D8B407D0790E0001A819D8B4A2
:1014500002D0010E1200010E0001D16F000E00013A
:101460009C6F000E9B6F00019CBF0AD000019C5135
:1014700006E10B0E00019B5DD8B08ED001D08CD060
:10148000F60E0001686F000E0001696F050E000185
:101490006A6F6EEC90F0040E0001606F000E616FD9
:1014A000000E626F000E636F97EC91F08584858A61
:1014B000859C040E0001606F000E616F000E626F6C
:1014C000000E636F97EC91F0000E00019E6F000E0E
:1014D0009D6F00019EBF0AD000019E5125E1090EBB
:1014E00000019D5DD8B020D001D01ED0920E000129
:1014F0009D25D96E000E00019E21DA6EDB0E0001E3
:101500009D25E16E000E00019E21E26EE75057EC32
:101510008EF0DF6E00019D4B9E2B00019EBFE6D733
:1015200000019E5101E1DBD7858C95C0D0F0ED0E16
:101530000001686F000E0001696F090E00016A6FFB
:101540006EEC90F0E40E0001686F000E0001696F10
:10155000090E00016A6F6EEC90F014EC88F0730EC7
:101560000001A819D8B418D001D016D00A0E000175
:101570009B1900019C11D8A402D0020E1200000198
:10158000D12B00019B4B9C2B00019CBF79D7000104
:101590009C5102E16ED700D0000E12001200000E26
:1015A0000001786FB00E0001796FFF0E00017A6FB5
:1015B000000E00EC80F010EC8AF01DD0000E00014F
:1015C000786F560E0001796FFF0E00017A6FA5C08B
:1015D0007BF000017C6B000E00EC80F0F40E00014B
:1015E000646F010E656F000E666F000E676F0AEC88
:1015F00091F010EC8AF00001A56F00D00001A55118
:101600000001D8A4DBD7D4EC91F00001A46F000E48
:101610000001786FD10E0001796FFF0E00017A6F23
:10162000070EC2EC92F000019F6F00019F51000174
:101630007B6F7C6BA4C07DF000017E6B000E00EC24
:1016400080F000D014EC88F0080EC2EC92F000019B
:101650009F6F00019F51780DF3CF64F0F4CF65F0D8
:10166000000E0001676F666986EC8CF0C40E000105
:1016700064250001A06FFF0E000165210001A16F2C
:10168000060EC2EC92F000019F6F00019F51780D91
:10169000F3CF64F0F4CF65F0000E0001676F666968
:1016A00086EC8CF0C40E000164250001A26FFF0ED1
:1016B000000165210001A36FA0C06CF00001A251E0
:1016C000BEEC86F0320E0001646F000E656F000EF6
:1016D000666F000E676F0AEC91F0B4D7120000013C
:1016E000646F030E0001676F00016405D8A43DD04C
:1016F000699CC58060C0C9FF00D0C7B4FED7000197
:101700006707C5AC05D0000167510001D8A4F2D726
:10171000C5BC27D0000E0001656F19D000016551CE
:10172000010DF35000016125D96EF45000016221D2
:10173000DA6EDF50C96E00D0C7B4FED7C5AC04D096
:10174000C584698CFE0E12000001652B00D00001DB
:1017500063510001655DD8A0E1D7C584698C000E96
:101760001200C584698CFF0E12000F01399D0F0114
:10177000188160C003FF00D00F011AB5FDD700012A
:1017800067070F0118AD05D0000167510001D8A40B
:10179000F0D70F0118BD2ED0000E0001666F1ED0CD
:1017A00000016651010DF35000016125D96EF4501E
:1017B00000016221DA6EDF500F01036F00D00F01CC
:1017C0001AB5FDD70F0118AD06D00F0118850F010E
:1017D000398DFE0E12000001662B00D0000163510E
:1017E0000001665DD8A0DCD70F0118850F01398D87
:1017F000000E12000F0118850F01398DFF0E120027
:101800001200669CF60E0E012D17F10E0E011D132F
:10181000F40E0E012C172F0E0E011713F60E0E01EB
:101820002A173F0E0E011813668CF28EF28C220ED0
:10183000AF6E000E0F01306FAC94679E6786679C99
:10184000679AAC98AB8EAB9CAB88AC8AAC9C9D98ED
:101850009D8A220E0F011F6F000E0F01206F0F01D6
:1018600032950F01319F0F0131870F01319D0F011B
:10187000319B0F0132990F01338F0F01339D0F01FF
:1018800033890F01328B0F01329DA398A38A220E58
:101890000F012B6F000E0F012C6F0F012E950F0102
:1018A0002D9F0F012D870F012D9D0F012D9B0F01E6
:1018B0002E990F012F8F0F012F9D0F012F890F01DF
:1018C0002E8B0F012E9D6198618A95889594220E2A
:1018D0000E01FB6F000E0E01FC6F0E01FE950E0156
:1018E000FD9F0E01FD870E01FD9D0E01FD9B0E016A
:1018F000FE990E01FF8F0E01FF9D0E01FF890E0163
:10190000FE8B0E01FE9D619C618E1200000E000197
:10191000696F000167AF09D00001666D671FD8B01D
:10192000672B010E0001696F00D0000165AF09D07F
:101930000001646D651FD8B0652B010E0001691BA5
:1019400000D0000E00016B6F000E6A6F000166513F
:1019500000016711D8B431D0010E0001686F07D0C3
:101960000001D890663767370001682B00D000016E
:1019700067BF02D0F5D700D00001D8906A376B3727
:10198000000166510001645D000167510001655965
:10199000D8A00BD0000166510001645F00016751BF
:1019A0000001655B00016A8100D00001D8906733B7
:1019B00066330001682FE0D700D0000169510001B3
:1019C000D8B406D000016A6D6B1FD8B06B2B00D065
:1019D0006AC064F06BC065F012001200EACF15F027
:1019E000E1CF16F0E2CF17F0D9CF18F0DACF19F027
:1019F000F3CF1AF0F4CF1BF0F6CF1CF0F7CF1DF0A9
:101A0000F8CF1EF0F5CF1FF0F2A408D0C10ED66EAD
:101A1000F294F28A00EC93F02CD000D09EAA0CD065
:101A20003450010D000EF324D96E010EF420DA6E4D
:101A3000AECFDFFF342A00D0A450A6AA0CD0355078
:101A4000010DC80EF324D96E030EF420DA6E2ACFEE
:101A5000DFFF352A00D0A6AE0CD03750010DBC0EEA
:101A6000F324D96E050EF420DA6EFACEDFFF372AA2
:101A700000D01FC0F5FF1EC0F8FF1DC0F7FF1CC03F
:101A8000F6FF1BC0F4FF1AC0F3FF19C0DAFF18C03D
:101A9000D9FF17C0E2FF16C0E1FF15C0EAFF14C06E
:101AA000E9FF13C0FBFF12C0FAFF110003EEC8F0FC
:101AB00013EEE8F0EE6AE550E150FCE1E250FAE1A5
:101AC00003EE00F0C80EEE6AE806FDE102EE00F05B
:101AD000B20EEE6AE806FDE101EE00F0C60EEE6A17
:101AE000E806FDE100EEA7F02B0EEE6AE806FDE148
:101AF00000EE22F0180EEE6AE806FDE1230EF66E07
:101B0000250EF76E010EF86E01EEC6F010EE29F00C
:101B10000900F5CFEEFFE550E150FAE1FA0EF66E5E
:101B2000240EF76E010EF86E00EED2F010EE29F0E2
:101B30000900F5CFEEFFE550E150FAE10E0EF66E2A
:101B4000260EF76E010EF86E00EE3AF010EE07F07A
:101B50000900F5CFEEFFE550E150FAE10001A7EFF3
:101B60008EF00001616F000E0001606F3F0E0001FA
:101B70006113FC0E20120F014951C00900016115CB
:101B80000F01496F0F0149510F0920140F01496FCF
:101B9000050EF66E000EF76E300EF86E08000001AE
:101BA000F5A203D00001606904D0000E0001606F4F
:101BB00000D03F0E00016119D8A402D09890120005
:101BC000BF0E00016119D8A40AD09890000160519D
:101BD0000001D8B402D096981200999A12007F0E94
:101BE00000016119D8B404D000016129D8A4120001
:101BF0009890000160510001D8B403D09698969651
:101C000002D0999A99989896120012000001616F7B
:101C1000000E0001606F3F0E00016113FC0E2012E8
:101C2000B950C00900016115B96EB9500F092014EF
:101C3000B96E050EF66E000EF76E300EF86E0800E7
:101C40000001F5A203D00001606904D0000E00017C
:101C5000606F00D03F0E00016119D8A402D09494A7
:101C60001200BF0E00016119D8A40AD0949400019B
:101C700060510001D8B402D0969C1200999E1200C7
:101C80007F0E00016119D8B404D000016129D8A4E5
:101C900012009494000160510001D8B403D0969CC6
:101CA000969A02D0999E999C989812001200000171
:101CB000646F000E0001656F000E0001666F33D087
:101CC00036D066C020F0010E216E202A02D0D890B6
:101CD0002136202EFCD72150000164150009D8B40C
:101CE00002D0858401D08594859A050E0001606F2D
:101CF000000E616F000E626F000E636F97EC91F043
:101D000085A60ED066C020F0010E216E202A02D0DA
:101D1000D8902136202EFCD721500001651300D029
:101D2000858A0001662B070E00016665CAD7858487
:101D3000040E0001606F000E616F000E626F000EF6
:101D4000636F97EC91F00001655112001200000ED4
:101D50000001A66FD08E53EC92F0F7EC8FF00001EB
:101D6000A66F0001A6510001D8A40DD0000E0001FD
:101D7000786F8C0E0001796FFF0E00017A6F000EF4
:101D800000EC80F00DD0000E0001786F7A0E00019B
:101D9000796FFF0E00017A6F000E00EC80F000D02A
:101DA000EAEC92F00009D8B4FBD7F9EC92F0E8061F
:101DB000D8A403D0EFEC91F000D0F2EC92F0E8065A
:101DC000D8A403D0A6EC92F000D0E2EC92F0E806A2
:101DD000D8B4B4EC92F0CFEC8AF07BEF00F00001C5
:101DE000606F0C0E0F01496F3F0E0F01361720C0B8
:101DF00021F0300E2116D8902136D89021340F01D1
:101E0000361336CF21F0C00E2116D8A405D0CA94BF
:101E100060C0CBFFCA8412000F013651C00B400ACC
:101E2000D8A407D00F01049560C005FF0F010485F9
:101E300012000F013651C00B800AD8A407D00F0141
:101E40003D9560C03EFF0F013D8512000F013651E8
:101E5000C00BC00AD8A412000F013A9560C03BFF26
:101E60000F013A8512001200669CF80E0E01231332
:101E7000969C4F0E0E012113969E668C0E01E691E4
:101E80000E01E9930F0104850F0104830F013D85C5
:101E90000F013D83AF0E206E330EB7EC8FF0000EB6
:101EA000216E000E206E53EC91F0FC0E206E3F0E62
:101EB00006EC8EF00C0EB96E490E0F01366FEF0E68
:101EC000206E330EEFEC8EF0000E216E000E206EB1
:101ED0002FEC91F0FC0E206E3F0EB1EC8DF0000E59
:101EE00000016C6F000EBEEC86F01200000E0001C7
:101EF000666F000E656F0001625100016311D8B476
:101F000031D0010E0001646F07D00001D890623714
:101F100063370001642B00D0000163BF02D0F5D706
:101F200000D00001D890653766370001625100018A
:101F3000605D0001635100016159D8A00BD0000120
:101F400062510001605F000163510001615B0001AB
:101F5000658100D00001D890633362330001642FA3
:101F6000E0D700D065C060F066C061F012000001EB
:101F7000606F0C0EB96EFC0E0F0136172038E84664
:101F80001F0B030B0F01361336CF21F0070E21165E
:101F9000D8A405D0CA9460C0CBFFCA8412000F0138
:101FA0003651070BE806D8A407D00F01049560C08E
:101FB00005FF0F01048512000F013651070B020ABD
:101FC000D8A407D00F013D9560C03EFF0F013D85AD
:101FD00012000F013651070B030AD8A412000F019B
:101FE0003A9560C03BFF0F013A8512001200030EC4
:101FF00000016E6FC9CF6CF000D03AC068F03BC0F2
:1020000069F03CC06AF03DC06BF03C0E0001606FAF
:10201000680E0001616F000E0001626F040E000186
:10202000636F010E6FEC8BF000016D6FFD0E000110
:102030006D19D8A402D0C69E00D000016E07000121
:102040006D510001D8B407D000016E510001D8B421
:1020500002D0D3D700D000016E510001D8A402D025
:10206000FF0E1200000E12001200200E0E01456F2E
:10207000000E0E01826F000E0E01836F000E0E0126
:10208000846F000E0E01856F0E01838D0E01869107
:102090000E0186830E0186850E0186870E018699C4
:1020A0000E01869B0E01869D0E01869F0E018C916E
:1020B0000E018B8F0E01458DC18EC1840E018D8561
:1020C000C180C192C0840E018D9D0E018D9F0E01B5
:1020D0008D9B0E018D870E018D951200859C000E43
:1020E00000016F6F000E6E6F11D000016E51000184
:1020F0006825D96E00016F5100016921DA6EDF5049
:1021000057EC8EF000016E4B6F2B00D000016A512E
:1021100000016B6F6C6B00016B5100016E5D000183
:102120006F51800A00016D6F00016C51800A00013F
:102130006D59D8A0DAD7858C0001D1510001646FA8
:10214000656B666B676B0AEC91F0120000016951D8
:1021500000016A11D8B428D0010E206E06D000010B
:10216000D89069376A37202A00D000016ABF02D0B0
:10217000F6D700D0000169510001675D00016A5186
:1021800000016859D8A009D0000169510001675FBA
:1021900000016A510001685B00D00001D8906A33E9
:1021A0006933202EE7D700D067C067F068C068F0B9
:1021B000120060C020F061C021F003D0204A212A23
:1021C00000D020C0D9FF21C0DAFFDF50D8B408D03A
:1021D000F5D706D0204A212A0001624B632B00D09C
:1021E00062C0F6FF63C0F7FF000EF86E20C0D9FF93
:1021F00021C0DAFF0D0EF76403D00800F55005D0BA
:10220000F6CFE9FFF7CFEAFFEF50DF6EDF50D8A43B
:10221000E1D712000BD0E80E0001606F030E616F72
:10222000000E626F000E636F97EC91F0FF0E0001DD
:102230006427FF0E6523FF0E6623FF0E672300D081
:10224000000167BF12000001675100016611000123
:102250006511E1E100016405D8B0DDD7120020C0AE
:1022600060F021C061F0060ED89000016037613740
:10227000E82EFAD760C062F061C063F063C04AFF25
:1022800062C060F00001D89060330001D8906033E4
:10229000300E000160170F014951CF0B0001601192
:1022A0000F01496F120020C060F021C061F0060EDE
:1022B000D890000160376137E82EFAD760C062F02D
:1022C00061C063F063C0BAFF62C060F00001D890E3
:1022D00060330001D8906033300E00016017B950B0
:1022E000CF0B00016011B96E1200F60E0001686F8D
:1022F000000E0001696F050E00016A6F6EEC90F030
:10230000ED0E0001686F000E0001696F090E0001FB
:102310006A6F6EEC90F0E40E0001686F000E000131
:10232000696F090E00016A6F6EEC90F01200FD0EED
:1023300005D0050EE82EFED700F0FE0E0001602746
:10234000FF0E6123FF0E6223FF0E632300D0000106
:1023500063BF1200000163510001621100016111AD
:10236000E8E100016005D8B0E4D71200206E200437
:10237000D8A40AD0800EC76E080EC66E400E696ED5
:102380009F0EC86EC68A1200800E0F011A6F080ECB
:102390000F01196F400E0F01396F9F0E0F01026F71
:1023A0000F01198B12001200030E0001D019D8A4DE
:1023B00003D0010E12000FD00001D005D8A403D025
:1023C000020E120008D00C0E0001D019D8A403D0C0
:1023D000030E120000D00001D05112001200000EB6
:1023E0000001786F9E0E0001796FFF0E00017A6F79
:1023F000000E00EC80F000D0EAEC92F00009D8A4C6
:1024000002D0FAD700D0EAEC92F0E806D8B4FBD7B5
:1024100012000001605100016203F3CF20F0F4CFFD
:1024200021F00001605100016303F35021260001F7
:10243000615100016203F350212620C060F021C0E9
:1024400061F01200120032043310D8B4120001D02F
:102450001200B18CB18EB198B19AB18EA092B180B8
:10246000000E336E010E326ED70ED56EF184F294EB
:10247000F28AC10ED66E12000F01539F000E0E019C
:10248000476F000E0E01466F988098829884988658
:1024900098880E01E6830E01E6850E01E687110E8F
:1024A0000F01546F12003CEC92F035EC90F034ECDC
:1024B0008FF061EC83F001EC8CF068EC92F0010E8F
:1024C000B6EC91F0010EB6EC91F0CEEC92F0120069
:1024D0009380938293849386669CF20E0E01371745
:1024E000F10E0E013817668CF18AF09CF090F086A0
:1024F000F186F192F094F08A12000142000000008F
:102500000000000145005A5A5A5A5A5A0143000025
:102510005A5A5A5A5A01440001030000000001436C
:10252000000100303030303030303030303030303A
:10253000303030303030300041540D0A4F4B0D0AEE
:10254000000000000000000000000000000E00017C
:10255000786F680E0001796FFF0E00017A6F000E30
:1025600000EC80F0FFD71200000E0001786FC10E62
:102570000001796FFF0E00017A6F000E00EC80F011
:10258000FFD71200206E2050010DA70EF324D96E44
:10259000000EF420DA6EDF5012001200C10ED66E6B
:1025A000000E266E000E276E000E286E000E296E9D
:1025B000120026C060F027C061F028C062F029C078
:1025C00063F01200000E0E01E4B3010E206E2050E5
:1025D00012001200000E0E01E4B7010E206E205012
:1025E00012001200000E86B4010E206E2050120060
:1025F0001200000E86B0010E206E20501200120054
:10260000010E2626000E2722282229221200005021
:0626100020002569000016
:10FFF000A0F701F023F0FFF7FBFFFFFC1DF0F8F383
:00000001FF
