:020000041400E6
:10000000F0790020D900001400F002F800F08AF81E
:100010000AA090E8000C82448344AAF10107DA4563
:1000200001D100F07FF8AFF2090EBAE80F0013F02B
:10003000010F18BFFB1A43F001031847F40000003A
:10004000240100000A444FF0000C10F8013B13F0AB
:10005000070408BF10F8014B1D1108BF10F8015B21
:10006000641E05D010F8016B641E01F8016BF9D114
:1000700013F0080F1EBF10F8014BAD1C0C1B09D16B
:100080006D1E58BF01F801CBFAD505E014F8016BDD
:1000900001F8016B6D1EF9D59142D6D3704700006F
:1000A000103A24BF78C878C1FAD8520724BF30C8A4
:1000B00030C144BF04680C60704700000023002476
:1000C00000250026103A28BF78C1FBD8520728BF68
:1000D00030C148BF0B607047DFF82C00016841F465
:1000E0007001016009480047FEE7FEE7FEE7FEE712
:1000F000FEE7FEE7FEE7FEE7FEE7FEE70448054908
:10010000054A064B7047000088ED00E00900001426
:10011000F00B0020F0790020F0730020F073002035
:100120007046704740F2DF1CC1F2000C60470000CF
:100130006001001400000010A0840100A000001461
:100140000086011400000020BC01000044000014DF
:100150004C860114BC01002034780000BC0000145F
:10016000F0790020D9000014E9000014EB0000141D
:10017000ED000014EF000014F10000145A5A5A5A0E
:10018000000000000000000000000000F300001468
:10019000F500001400000000F7000014F90000143E
:1001A000FB00001491B00010FB000014FB000014D1
:1001B000FB000014FB000014FB000014FB00001403
:1001C000E9BA0010FB000014FB000014FB0000144F
:1001D000FB000014FB000014FB000014FB000014E3
:1001E000FB000014FB00001489560010FB000014F3
:1001F000FB000014FB000014FB000014415C001025
:1002000029600010FB000014FB000014FB00001428
:10021000FB000014FB000014FB000014FB000014A2
:10022000FB000014FB000014FB000014FB00001492
:10023000FB000014FB000014FB000014FB00001482
:10024000FB000014FB000014FB000014FB00001472
:1002500000000000FB000014FB000014FB00001471
:1002600000000000FB000014FB000014FB00001461
:10027000FB0000146E2909F01D83702909F05F84CA
:10028000662913F0B680652913F0B380672913F04F
:10029000B0806129AFF3008003681B0A28BF41F0DA
:1002A0008001692908F00E87642908F00B877529F9
:1002B00008F008876F2909F0ED83782909F02B846D
:1002C000E92909F08783E42909F08483F52909F0F5
:1002D0008183EF2909F0EA83F82909F02A84036869
:1002E000DB0928BF41F08001632909F0E186732909
:1002F00009F0E686E32909F0F186F32909F0F6868C
:10030000002070471FB513F056F89DE8030009F070
:10031000D5F909F07BFF04000020002112F07CF9E0
:10032000401C60600020002112F060F9E06009F0DC
:100330007DF91FBD10B5002010F03AFA10BD09F08C
:1003400038FF1146FFF7DEFF00F01AF80AF014F844
:1003500003B4FFF7EFFF03BC09F01CFC30B58DB010
:1003600004460D462B46224630A101A808F094FE13
:10037000E0B201AA4FF47F0111F07EFF0DB030BD55
:100380008AB041F27C622F492F480EF07FFA2F4845
:10039000006800F0D3F905F0CDFB2C48006800F0B0
:1003A0000CFE00212A4800F037FE01F044FC002139
:1003B000284800F031FE0121274800F02DFE0025DD
:1003C000002617E0002007AB08AA09A9009023A087
:1003D0000EF0CFF80446002C0BDBBDF824000228F9
:1003E00007D1BDF8200020B9BDF81C00092800D1B4
:1003F000761C6D1C192DE5DB0EB90CF0CDFE00202E
:1004000009210222CDE90202009213460192CDE9B0
:10041000041014A2012111A00EF02CF8032005F005
:10042000F1FA01E006F0C5FAFCE7000072656365C9
:1004300069766564207369676E616C3A2025642073
:1004400025640A009632011000800020FC00002084
:1004500030000020580000204800002066777665B4
:1004600072000000000000000146FB4A08681060AE
:100470000020704730B58BB0012417E02246F7A169
:1004800002A808F009FE002301AA0AA902A80EF09A
:1004900070F80546002D02DA28460BB030BDE1B2F7
:1004A000F148019A006804F0F4FA641C072CE5DDB9
:1004B000ED48006804F005FBEC48006804F01FFC00
:1004C0000020EAE770B504460D462078532809D18C
:1004D000A07A3038C6B23146E3482A68006804F092
:1004E0007BFB07E020784D2804D1DF4829680068AD
:1004F00003F07EFE00F09AFF28B1DB48006804F0AC
:10050000E0FA00F09CFF70BD38B504460D460022AD
:100510006946D7A00EF02DF8D3480099006804F082
:1005200068FB38BD38B504460D460022D749D8A02F
:100530000EF01FF8D5480088009068460DF0BEFC0C
:1005400038BD10B5B6B02DA80EF000FB01243CE07C
:100550002246C2A125A808F09FFD2246D0A10CA8E2
:1005600008F09AFD00202DA920228123CDE9002149
:1005700002900CAA012125A80DF07CFF2246CDA1F6
:1005800025A808F089FD2246CF490CA808F084FD73
:10059000002001460290CD4814230CAACDE900109A
:1005A000811525A80DF066FF00220BA925A80DF0E6
:1005B000E0FFE1B2AC480B9A006804F00DFBAFF22B
:1005C000FB0125A80DF088FD641C072CC0DD002070
:1005D0004FF020410290BE481423BE4ACDE90010DE
:1005E0004FF48071BCA00DF045FFAFF22711BAA007
:1005F0000DF072FD00204FF040410290BA481423E4
:10060000BA4ACDE900100021B9A00DF033FF002057
:1006100001210B46BC4ACDE900100146BBA00DF0FC
:1006200029FF00204FF4FA610423BC4ACDE90010F1
:1006300099018FA00DF01EFFAFF233118CA00DF0C9
:100640004BFD002040F2EE210223B54ACDE9001017
:10065000D9018FA00DF00EFFAFF237118CA00DF075
:100660003BFD00204FF47A710223AE4ACDE9001021
:100670000146ADA00DF0FEFE00204FF47A7102237A
:10068000AC4ACDE900100146ABA00DF0F3FE00200E
:1006900014210423AF4ACDE900100146AEA00DF0AD
:1006A000E9FE002209A9A0A00DF063FF002208A91D
:1006B000A1A00DF05EFF002207A9A7A00DF059FF31
:1006C00000220AA991A00DF054FF002205A982A0E2
:1006D0000DF04FFF002204A985A00DF04AFF002273
:1006E00006A963A00DF045FF0022684968A00DF03F
:1006F00040FF9DF828000090BDF82020BDF8241090
:100700005948079B006803F0CDFB574805990068DE
:1007100003F06EFD54480499006804F06DFA5248E5
:100720000699006804F065FA58480088359035A8A5
:100730000DF0C4FBFFF79EFE36B010BD70B5054648
:1007400004200FF073FF060004D0304604F064FA72
:10075000064600E00020454908604FF424700FF081
:1007600065FF040007D0804A40480168204602F037
:1007700083F9044600E000203B4908607B49284695
:100780000EF09DFF00227AA17C4800680FF05DF911
:100790007B4908800846B0F90000002802DA4FF0D3
:1007A000FF3070BDFFF7CDFE0020FAE72DE9F04FD6
:1007B00095B006460C4617469846DDE91FABDDF8B6
:1007C00078900BA83988B8F80020B9F80030BAF84A
:1007D00000C0018042808380A0F806C000BF20785E
:1007E000012802DB2078072804DD4FF0FF3015B028
:1007F000BDE8F08F6348006828B963A00DF090FD54
:100800006FF00100F3E723780BAA5E4916480068F1
:1008100003F0DAFE21781448006804F02FF9054649
:100820003068E8610BAA574902A803F0E6FB0021F3
:1008300002A803F0A9FCA861227808A10DA808F07D
:100840002BFC00202B462022812100900DA80DF0CA
:10085000BFFEFFF70FFEA5E00C0000207369676E76
:10086000617475726525640004000020000000209A
:100870005369676E61747572652074656163682081
:100880007468726573686F6C640000000800002073
:100890004C4544206272696768746E65737300002A
:1008A000436F6C6F72207369676E61747572652037
:1008B000256400005369676E617475726520256454
:1008C0002072616E67650000945E011000000440B4
:1008D0009999B93F345E01104D696E206272696763
:1008E00068746E6573730000CCCCFC3FEC5E011045
:1008F000436F6C6F7220636F6465206D756C7469F3
:10090000706C696572000000D05D0110436F6C6F00
:100910007220636F6465206D6F6465002C5C01104C
:100920002C5D0110E45B01104D617820626C6F63F7
:100930006B730000845B01104D617820626C6F6303
:100940006B7320706572207369676E617475726570
:1009500000000000B85C01104D696E20626C6F638E
:100960006B206172656100000010091014490110CC
:10097000676574524C534672616D6500000100203A
:1009800010000020100100204E6F20726177206659
:1009900072616D6520696E206D656D6F7279210AD7
:1009A00000000000F9A00DF0BBFC0121584600F04A
:1009B00050FD00201BE72DE9F04F8FB004460F4695
:1009C00090461D46DFF8D49315B90FB0BDE8F08FFF
:1009D0000020B222CDE90A020C900D9002200021E5
:1009E000CDE90610CDE90810CDE90210CDE90410DB
:1009F000412064234FF49032CDE900104946284647
:100A00000FF0E6FB064600BF20684FEA800AA068A8
:100A1000834609EB06005246594608F002FD00BF26
:100A2000206880004FEA500AB2200221CDE90B0A6B
:100A3000CDE909180846C8210222CDE90707CDE90A
:100A400005214FF4A07141231898CDE90130CDE97B
:100A50000321D34864234FF490324946009028463E
:100A60000FF0B6FB00BF206806EB800A52464946ED
:100A700028460FF0C0FB00BFA7E72DE9F04F97B065
:100A800007460C4690469946DDF880A00BAD4FF026
:100A9000000B002028600BF1100068606868C14AF4
:100AA0000146019004200FF078FEA86000BF207876
:100AB000012802DB2078072807DD0BA811F052FE81
:100AC0004FF0FF3017B0BDE8F08FB748006848B965
:100AD000AFF24C100DF024FC0BA811F043FE6FF0A8
:100AE0000100EFE716A8B8F8003019B2B9F80030E5
:100AF0001AB20180428000BF054620780BAB2A461F
:100B0000A9490090A948006803F089FF2178A74807
:100B1000006803F0B3FF06463868F0610BAAA249EB
:100B200002A803F088FA002102A803F02DFBB061AF
:100B3000032053460422114600900BA8FFF73BFF09
:100B40002278AFF2E8210EA808F0A6FA002033467A
:100B50002022812100900EA80DF03AFDFFF78AFCBB
:100B60008AA00DF0DDFB0121504600F072FC0BA8BD
:100B700011F0F8FD0020A5E770B592B004460D46CF
:100B800002A80DF0E3FF2078012802DB2078072877
:100B900003DD4FF0FF3012B070BD202102A808F035
:100BA000D9FC2278AFF24C310AA808F075FA00207F
:100BB00002AB2022812100900AA80DF009FD064613
:100BC000FFF758FCFFF756FC0121284600F041FCD6
:100BD0003046E0E770B592B0064602A80DF0B6FFC9
:100BE000202102A808F0B6FC012415E02246AFF24D
:100BF00094310AA808F050FA002002AB202281218B
:100C000000900AA80DF0E4FC0546002D02DA284603
:100C100012B070BD601CC4B2072CE7DDFFF72AFCE0
:100C20000121304600F015FC0020F1E7F0B589B055
:100C300004460D4616464FF0FF30079001200890FD
:100C400008A80CF0C9FB071E02DA384609B0F0BD4F
:100C5000A6B1002007AACDE9030205900690042062
:100C60000346CDE9010500945148B0F90020002168
:100C7000504800680EF0C4FE0798E7E70020042201
:100C8000CDE902501346CDE9004204904848B0F93E
:100C900000200121474800680EF0B2FE0020D5E791
:100CA0002DE9F04F8BB082460F4643480A90DFF89B
:100CB0000C81DFF8E8904846A8EB00050020B1223F
:100CC000CDE906020890099002200021CDE902102A
:100CD000CDE90410412064232A46CDE9001049469D
:100CE00050460FF075FA04463548006804F007F8DE
:100CF000012240460A99FFF799FF83462D1BED0814
:100D000009EB04012A462E48006803F0B8FF0646A6
:100D10000121284800680EF021FF0021F000B122D7
:100D2000C823CDE90632CDE9080102204FF4A071B5
:100D3000CDE90270CDE904104120224964232A46FE
:100D4000CDE90010494650460FF042FA04EBC602C6
:100D5000494650460FF04FFA58460BB0BDE8F08FA9
:100D600010B5044601212046FFF79AFF10BD30B5AB
:100D700004460B462568002102E0505C6854491C7B
:100D800018688842F9D8186830BD00005369676E4A
:100D9000617475726520736574210A000000081083
:100DA000424C54310D0301101001002004000020BA
:100DB00010000020000100200010091000000910A0
:100DC0000000002043435132F0B58BB007460C467B
:100DD00015461E46002105EB850020F00040CDE9B8
:100DE00008410A9107908220C82142224FF4A07343
:100DF000CDE90332CDE9051041215E4BCDE9016219
:100E000000916422002138460EF066FF00200BB0EE
:100E1000F0BD2DE9F0438FB007460C4615461E463F
:100E2000DDE91689002108EB480080004008CDE983
:100E30000B610D910A90822105EB850020F00040A6
:100E4000CDE90610C820CDE9084142214FF4A07237
:100E5000CDE90212CDE904104120474B6422002164
:100E6000CDE9000938460EF037FF00200FB0BDE88D
:100E7000F0832DE9F0410546280244F62061B0FBDD
:100E8000F1F414B90120BDE8F081204612F024FAF3
:100E90008046404611F034F90746384912F03CFAD2
:100EA000064612F00BFA0446FF2C01D9FF2401E09C
:100EB00004B90124E0B2E6E7F0B587B0002130487C
:100EC000006802F07BFF0446002C4BD020880728E6
:100ED0000ADC2088401E00EB800129480068E030D1
:100EE00000EB8100066901E026480668A088618859
:100EF000401A2189E288891A00FB01F73846FFF77A
:100F0000B8FF054604AB05AA06A9304605F0C1FCAA
:100F1000049820B104986843000A401C00E00020B7
:100F20000490059820B105986843000A401C00E031
:100F300000200590069820B106986843000A401CDE
:100F400000E0002006900698C0B203900598C0B259
:100F500002900498C0B201AA02A9019003A80CF063
:100F600005F905E00020039003A80DF0F3F900BF98
:100F700007B0F0BD43434231434342320000484290
:100F800004000020BC4901101CB500200090012382
:100F9000E94A01460190E9A00DF06CFA00200090AA
:100FA0000123EAA201460190F8A00DF063FA0022A5
:100FB000F849F6A00DF0DDFA1CBD70B504460C2012
:100FC0000FF034FB050004D0284601F04CF805462C
:100FD00000E00020F0490860F04920460EF06FFB69
:100FE0000022EFA1EF4800680EF02FFDEE490880C7
:100FF0000022EEA1EB4800680EF027FDED490880C5
:101000000022EDA1E74800680EF01FFDEC490880C2
:10101000FFF7BAFF002070BD02460B4613B1E94846
:10102000C2610FE0002105E0082902DB4FF0FF302C
:101030007047491CE34850F821000028F4D1E148EA
:1010400040F821200020F3E7DF48007810B1DE48A7
:1010500000787047DD48007808B10220F9E70020E9
:10106000F7E70020DA49087070470120D849087076
:10107000D54908700020704738B50446207858B12B
:101080002078082805DC2078401ECE4951F8200041
:1010900010B94FF0FF3038BD0020CE4908602078ED
:1010A000D8B900226946A5A00DF063FA9DF80000AA
:1010B00018B19DF80000082802DD0020C64908701C
:1010C0009DF80000401EBF4951F8200020B19DF856
:1010D0000000401EC049087003E02078401EBE4951
:1010E0000870FFF7C2FFD6E770B506460C463046DB
:1010F000FFF7C2FF0546002D01DA284670BDB5494D
:10110000206808600020F9E710B500240CE0AD4825
:1011100050F824004368AB4850F82400611C026872
:10112000AEA00DF0FDF8641CA64850F8240000287D
:10113000EDD110BD10B586B00446AB4903C9CDE969
:10114000040154B1002004AACDE900200623822224
:101150000146029020460EF0BFFD002006B010BDF3
:101160007FB504460D4612262088B04203DB4FF0BF
:10117000FF3004B070BD9DB1002120889B4B03EB74
:10118000C0004068A123CDE90101009303912088AC
:10119000964951F83030A122002128460EF09CFDDE
:1011A0000020E6E710B586B00446002005AACDE988
:1011B000010203900123009404907B48B0F90020C1
:1011C0000021784800680EF01BFC894804700598DF
:1011D00006B010BD1FB5002003AACDE900200346CC
:1011E00002907748B0F9002000216E4800680EF0A8
:1011F00007FC039804B010BD1FB5002003AACDE979
:101200000020034602906B48B0F900200021654899
:1012100000680EF0F5FB0398C0B204B010BD10B525
:10122000FFF78FF904F045FC0CF062FB0CF078FC42
:1012300000F001FDFFF7A8FE10BD10B50DF0FAFAA1
:101240005548006800F0CAFF604908700DF056FC70
:1012500008B1FFF7E4FF10BD38B5002401E0601CC1
:10126000C4B2584850F824000028F8D121464A4812
:10127000006801F09BF8C0B200906846FFF7FCFEE2
:1012800038BD08B500250026FFF7E6FFCDE0594838
:1012900000680EF01FFF0446FFF7CFFF052D49D26F
:1012A000DFE805F003193A3FAC005348007828B94D
:1012B0000020009068460DF04DF800BF4149464AB5
:1012C000127851F8221088688047002801DA032537
:1012D00000E00125A7E03D48007818B1FFF77AFF4C
:1012E000022518E03A48007840B136493A4A127867
:1012F00051F82210C8688047002801DA03250AE067
:101300004EB144B90CF062FD002000906846FFF732
:10131000B3FE002500BF86E02C48007800B9002508
:1013200081E000202A49087027490870FFF752FF22
:10133000042578E075E000009C6601104465666154
:10134000756C742070726F6772616D004063204528
:1013500078706572742053657473207468652064B6
:1013600065627567206C6576656C20666F722074A7
:101370006865206669726D776172652E20286465E4
:101380006661756C74203029000000004465627548
:10139000670000001C00002028000020DC4901102C
:1013A00072756E00000100201E00002072756E6EC6
:1013B000696E67002000002073746F7000000000E9
:1013C00022000020BC010020140000201700002093
:1013D00015000020180000201600002025643A2087
:1013E00025732C2025730A00444B0110B44A0110C8
:1013F00024000020FC0000202C0000201D48007864
:1014000018B1FFF732FE00250AE014B11A4800783F
:1014100030B9002000906846FFF72EFE002500BF7F
:1014200001E0032500BF00BF264630E710B5FFF7F7
:10143000E3FE04460CB1FFF7CDFE204610BD10B50B
:101440000E48006803F05BFC0D480078FFF7AAFE29
:1014500010BD3EB504460D4654B100200421094B91
:101460006422CDE900150290182120460EF034FCCC
:101470003EBD000015000020DB0000200000002021
:1014800024000020455654311CB50120019001A8CC
:101490000BF0A2FF8248006803F013FB814800684C
:1014A00003F02DFC0020FFF77DFE00BF04F058FB89
:1014B0000446006801226946836820469847002850
:1014C000F4D1794908701CBD30B587B004F048FBF1
:1014D0000446002597E07448007820B1012809D01F
:1014E00002287DD121E0FF207049087001206E495B
:1014F000087085E02068012206A983682046984785
:1015000090B16A480078000269490880084600885E
:101510009DF818100843664908809DF81800634933
:1015200008700220604908706AE061480088FF285E
:1015300021D12068C1682046884704285BDB2068E9
:10154000022205A98368204698472068022204A940
:10155000836820469847002005A9039003A80BF054
:10156000E7FE012004A9039003A80BF0E1FE002090
:101570004D4908703FE04E480088FE280DD1206894
:10158000012206A983682046984750B306A80CF0AC
:1015900067FC0020444908702DE045480088FD287C
:1015A00026D12068C16820468847032823DB2068AD
:1015B000012203A98368204698472068012202A9D6
:1015C0008368204698472068012201A98368204645
:1015D000984701AA02A903A80BF0C8FD012001E069
:1015E0000AE008E03349087000202F49087002E043
:1015F00001202D49087003E000202B49087000BF2E
:1016000000BF681CC5B20A2DFFF665AF07B030BD3C
:1016100010B586B02248006802F097F900280EDA6B
:101620002548007840B1254801680068401C234BDC
:10163000186023A00CF074FE002006B010BDFFF768
:1016400043FF02A804AB03AA05A900901448006850
:1016500002F019FC01200299CDE900101B48DDE9D8
:10166000032305990068FFF7D4FB04F079FA0446D8
:1016700000680169204688470E48007808B9FFF7DE
:101680001BFC01E0FFF720FF064908680168898814
:101690000268D288891A0029F4D00020CDE7000022
:1016A00004000020000000202D0000204200002047
:1016B000400000202C0000201C00002044000020DE
:1016C00064726F702025640A00000000FC00002096
:1016D000002070472DE9F04F8DB00646FE4F642084
:1016E0000C900CA80CF0BCFBFC48006801287DD1D4
:1016F00000204FF47A41B122C823CDE90632CDE96A
:10170000081002204FF4A071CDE90260CDE9041069
:101710004120F34964234FF49032CDE9001039465B
:10172000F04800680EF054FD0546C8204FF4A07143
:101730000022CDE900210290C5F5903178191346B9
:1017400021220BF035FF38462C180320BAE1411C4A
:101750008AB2411E1FFA81FC0321ADE101F1010AA9
:101760001FFA8AF3A1F1010A1FFA8AF84FF0000A62
:10177000CDF828A000EB800A03EB8A1A14F80AB00F
:1017800002EB820A03EB8A1A0AF1010A14F80AA092
:10179000DA4402EB820B03EB8B1B14F80BB000EB6B
:1017A000800E03EB8E1E0EF1010E14F80EE0F344D2
:1017B000CDF800B00BEBDB7B0AEB6B0ACDF824A075
:1017C00000EB800A08EB8A1A14F80AA002EB820BDD
:1017D00001EB8B1B14F80BB0DA4402EB820B08EB25
:1017E0008B1B14F80BB000EB800E00E07FE101EBE7
:1017F0008E1E14F80EE0F344CDF800B00BEBDB7B4B
:101800000AEB6B0ACDF820A002EB820A01EB8A1AE0
:1018100014F80AB002F1010A0AEB8A0A03EB8A1AE9
:1018200014F80AA0DA4402F1010B0BEB8B0B01EB6D
:101830008B1B14F80BB002EB820E03EB8E1E14F818
:101840000EE0F344CDF800B00BEBDB7B0AEB6B0A48
:10185000CDF81CA002EB820A03EB8A1A14F80AB036
:1018600002F1010A0AEB8A0A03EB8A1A0AF1010A59
:1018700014F80AA0DA4402F1010B0BEB8B0B03EB1B
:101880008B1B14F80BB002EB820E03EB8E1E0EF1D5
:10189000010E14F80EE0F344CDF800B00BEBDB7B47
:1018A0000AEB6B0902EB820A08EB8A1A14F80AB0F9
:1018B00002F1010A0AEB8A0A01EB8A1A14F80AA05B
:1018C000DA4402F1010B0BEB8B0B08EB8B1B14F8CA
:1018D0000BB002EB820E01EB8E1E14F80EE0F34407
:1018E000CDF800B00BEBDB7B0AEB6B0ACDF818A050
:1018F0000CEB8C0A01EB8A1A14F80AA000EB800B9F
:1019000003EB8B1B14F80BB0DA4400EB800B01EBFC
:101910008B1B14F80BB00CEB8C0E03EB8E1E14F823
:101920000EE0F344CDF800B00BEBDB7B0AEB6B0A67
:10193000CDF814A00CEB8C0A03EB8A1A14F80AB049
:1019400000EB800A03EB8A1A0AF1010A14F80AA0D4
:10195000DA4400EB800B03EB8B1B14F80BB00CEBA1
:101960008C0E03EB8E1E0EF1010E14F80EE0F34404
:10197000CDF800B00BEBDB7B0AEB6B0ACDF810A0C7
:101980000CEB8C0A08EB8A1A14F80AA000EB800B07
:1019900001EB8B1B14F80BB0DA4400EB800B08EB67
:1019A0008B1B14F80BB00CEB8C0E01EB8E1E14F895
:1019B0000EE0F344CDF800B00BEBDB7B0AEB6B0AD7
:1019C000CDF80CA0DDE908EBABEB0E0B0BEB090E31
:1019D000DDF818B0AEEB0B0EDDF810B0DE44DDF82C
:1019E0000CB0AEEB0B0ABAF1000F01DBD34601E0FD
:1019F000CAF1000B1FFA8BFBCDF808B0DDF814E03C
:101A0000DDF81CB0ABEB0E0B0BEB090EDDF810B0E4
:101A1000AEEB0B0EDDF818B0DE44DDF80CB0AEEB2B
:101A20000B0ABAF1000F01DBD34601E0CAF1000B4B
:101A30001FFA8BFBCDF804B0DDE901BADA441FFAD6
:101A40008AFACDF828A088421AD14FF0FF0A0CEB91
:101A50008C0B08EB8B1B04F80BA000EB800B08EB46
:101A60008B1B04F80BA00CEB8C0B01EB8B1B04F80D
:101A70000BA000EB800B01EB8B1B04F80BA019E013
:101A80004FF0000A0CEB8C0B08EB8B1B04F80BA03F
:101A900000EB800B08EB8B1B04F80BA00CEB8C0B02
:101AA00001EB8B1B04F80BA000EB800B01EB8B1BF5
:101AB00004F80BA08B1C99B2B1F59F7FFFF64EAED8
:101AC000811C88B2C628FFF642AE05F57A42394637
:101AD0000448006808E0000000000810180000201A
:101AE000434D5632FC0000200EF085FB6AE047486B
:101AF0000068642850DB45480068C8284CDA434831
:101B00000068642190FBF1F201FB12000A21B0FB96
:101B1000F1F0303045F6450141EA00413B480068AC
:101B20000A2290FBF2F302FB1300303041EA00601E
:101B30000B9000204FF47A41B122C823CDE9063240
:101B4000CDE9081002204FF4A071CDE90260CDE983
:101B5000041041210B9864234FF49032CDE9000129
:101B600039462B4800680EF033FB0546C8204FF479
:101B7000A0710022CDE900210290C5F590317819BD
:101B8000134621220BF014FD05F57A423946204810
:101B900000680EF030FB15E021200A90002009902B
:101BA00008904FF4A0700790C8200690184800686D
:101BB00006A907AB08AACDE9001009A90AA80CF0EC
:101BC0003BF900BF0DB0BDE8F08F00B587B00F48FE
:101BD0000068A8B9212006900020059004904FF4D9
:101BE000A0700390C82002900948006802A903ABC6
:101BF00004AACDE9001005A906A80CF01DF902E021
:101C00000120FFF767FD002007B000BD180000208D
:101C1000FC00002038B504464FF4FA70206020889C
:101C200080B26946009004F108000BF081FB38BDDA
:101C3000C160026170471FB500204FF4AF710423EB
:101C400077A2CDE90010802184A00CF013FC0020C5
:101C50004FF41671042384A2CDE90010802190A0D6
:101C60000CF008FC00204FF4FA7104238FA2CDE998
:101C7000001080219CA00CF0FDFB00204FF42F7180
:101C800004239CA2CDE900108021A9A00CF0F2FB56
:101C9000002203A971A00CF06CFC002202A980A014
:101CA0000CF067FCA548DDE90221FFF7C1FF002227
:101CB00003A98DA00CF05DFC002202A99CA00CF0F1
:101CC00058FC9F48DDE90221FFF7B2FF1FBD08B5B0
:101CD0000120009068460BF07FFBFFF7ACFF9748B0
:101CE000FFF798FF9648FFF795FF9648006808B100
:101CF000FEF7C0FB9448006803F001F80020FFF7EE
:101D000051FA002008BDF8B504460D466068B0F1F0
:101D1000004F22D06068281A21694843E16805FB1A
:101D200001004FF47A7190FBF1F620683044206096
:101D30002068B0F57A7F02DD0846206004E0206864
:101D4000002801DA00202060208880B269460090D7
:101D500004F108000BF0ECFA00BF6560F8BD2DE956
:101D6000F04186B07948006801F0EFFD0021774826
:101D7000006802F023F80446E4B1A1886288881A5A
:101D800000EBD07102EB61018FB22189E288881AE1
:101D900000EBD07102EB61011FFA81F8C7F1A005D9
:101DA000A8F1640629466548FFF7ADFF314664484F
:101DB000FFF7A9FF02A804AB03AA05A90090634896
:101DC000006802F060F801200299CDE90010604837
:101DD000DDE9032305990068FFF71BF8FFF76CF8AE
:101DE000002006B0BDE8F08110B54FF4FA7404602D
:101DF0000172C26003616407446010BD00B54FF416
:101E000048734FF4FA7200214C48FFF7EDFF4FF48E
:101E100061734FF42F7201214948FFF7E5FF00BDC0
:101E200040632050616E2F74696C745F44656D6F00
:101E30002050616E20617869732070726F706F72CC
:101E400074696F6E616C206761696E2028646566D5
:101E500061756C74203335302900000050616E20AC
:101E600050206761696E000040632050616E2F74DE
:101E7000696C745F44656D6F2050616E2061786994
:101E8000732064657269766174697665206761693B
:101E90006E202864656661756C74203630302900C8
:101EA00050616E2044206761696E000040632050DD
:101EB000616E2F74696C745F44656D6F2054696C3A
:101EC0007420617869732070726F706F7274696FBB
:101ED0006E616C206761696E202864656661756C4F
:101EE000742035303029000054696C74205020670C
:101EF00061696E0040632050616E2F74696C745F7D
:101F000044656D6F2054696C742061786973206436
:101F1000657269766174697665206761696E2028EB
:101F200064656661756C74203730302900000000EC
:101F300054696C742044206761696E00DC010020E4
:101F4000F00100201001002000000020040000200B
:101F5000FC0000202DE9FF4F85B01E46DDE905019C
:101F6000884201D2059800E006980446079884420A
:101F700001D2204600E007980446DDE905018842C9
:101F800001D9059800E0069807460798874201D9CD
:101F9000384600E0079807460599091B4943069A09
:101FA000121B069B1B1B02FB0311079A121B079BAC
:101FB0001B1B02FB031011F08FF98146484610F0FD
:101FC00083F9804611F07AF905461E2D00D91E25A9
:101FD0000A2D02D20020019012E0284611F07CF96F
:101FE0008246304611F078F98346FB4911F094F9A6
:101FF0008146514611F090F9804611F05FF9019049
:102000000198B0F57A6F02D94FF47A60019001A877
:102010000BF054FF05A807C804F02CFC814604F01F
:102020005AFC804607AB06AA05A904F032FC0598C5
:10203000C0B204900698C0B203900798C0B202AA3A
:1020400003A9029004A80BF091F809B0BDE8F08F45
:1020500038B5044600202072009068460CF07AF9EA
:102060000020207038BD10B504462046FFF7F0FF71
:10207000204610BD704738B505460C46684610F03E
:10208000F5F800BF009810F033F8A042FAD30CF036
:10209000D1FB38BDF8B504460D46002615E00020FA
:1020A000009068460CF056F94EF660212046FFF786
:1020B000E2FF6178C94A02EB81000CF04BF94EF661
:1020C00060212046FFF7D7FF761CAE42E7DBF8BD64
:1020D0007FB5044600200390A02002906420019068
:1020E000002001AB02AA611C009003A8FEF7C5FC0A
:1020F0000546002D00DA7FBD0121B9480068FFF7D1
:10210000A8F904212046FFF7C5FF00BFF3E738B563
:1021100004466078072800DD38BD0020009068463E
:102120000CF018F94EF660212046FFF7A4FF617805
:10213000AA4A02EB81000CF00DF900BFECE72DE993
:10214000F04194B0074610AC00250020206005F156
:1021500010006060A34AD4F80480414604200EF0C9
:102160001CFBA06000BF0FA80021817041700170AE
:1021700000BF13A8A02164220180428000BF044652
:1021800010AB224698499948006802F070FB032082
:102190000090934804221146036810A8FEF70BFC38
:1021A00010AA914902A801F046FF0BA902A801F06C
:1021B000EBFF06460CAB0DAA0EA9304604F069FBF6
:1021C000DDE90B32DDE90D10FFF7C4FE10ACA068AD
:1021D0000EF01BFA00BF14B0BDE8F08130B589B035
:1021E00004460FF011FE0546207AD0B12120089058
:1021F0000020079006904FF4A0700590C82004902E
:1022000000207749096804AA05ABCDE900210290B6
:1022100006AA07A908A80BF0A5FF2046FFF78FFF25
:1022200019E02078B8B1212008900020079006908E
:102230004FF4A0700590C8200490012068490968F7
:1022400004AA05ABCDE90021029006AA07A908A8B7
:102250000BF088FF00BF207806287AD2DFE800F074
:102260000316315B6C9585B1201D0FF0FFFF6048B0
:102270000088089008A80BF021FE012020700020A3
:10228000089008A80CF066F800BF87E015B9002098
:10229000207015E060680FF02BFF564988420FD977
:1022A0000AF07AFE10B10120607001E00020607039
:1022B000201D0FF0DBFF2046FFF729FF02202070D2
:1022C0006CE09DB903212046FFF7E4FE201D0FF0CE
:1022D000CDFF607828B90120089008A80AF0ACFE6C
:1022E00001E0012020720320207013E060680FF0ED
:1022F000FFFE414988420DD9201D0FF0B7FF6078DD
:10230000401C60706078082801D100206070204671
:10231000FFF7FDFE42E02DB1201D0FF0A7FF0420C6
:10232000207008E060680FF0E3FE3449884202D96B
:102330002046FFF78DFE31E09DB9607850B900204E
:10234000089008A80AF078FE04212046FFF7A2FEB4
:1023500003E01FE02046FFF7BBFE2046FFF778FEB4
:1023600012E060680FF0C4FE224988420CD9607800
:1023700028B90020089008A80AF05EFE00BF204699
:10238000FFF766FE0520207008E015B92046FFF72C
:102390005FFE03E02046FFF75BFE00BF00BF207832
:1023A00010B1012009B030BD0020FBE72DE9F0415C
:1023B00004460D46012D02DC0020BDE8F0816AE0F4
:1023C0000FF022FD06460CF035FA2078C0B1012846
:1023D0001FD002285AD138E08FC2753CBC49011089
:1023E000FC0000200D03011010010020040000205B
:1023F00008000020D012130040420F000087930312
:10240000201D0FF033FF012020702046FFF77FFED4
:1024100040E056B1201D0FF029FF012060702046DA
:10242000FFF775FE022020700EE060680FF060FE7E
:102430001949884208D904212046FFF72BFE20467F
:10244000FFF706FE0020B8E724E04EB967780421C4
:102450002046FFF71FFE2046FFF7FAFD3846ACE79F
:1024600060680FF045FE0D4988420ED9201D0FF01F
:10247000FDFE6078401C60706178681C814201D16B
:10248000012060702046FFF742FE03E02046FFF780
:10249000DFFD00BF00BF93E760E3160040420F007E
:1024A00070B5044600BF0020206200BF401EA0821D
:1024B000400C608220828111A08861F3CB00A08053
:1024C000608961F3CB00608105E0A569A868A0611F
:1024D00028460EF09EF8A0690028F6D104F11800F5
:1024E000E06170BD10B504460020A06104F1180041
:1024F000E0612046FFF7D4FF204610BD10B504462A
:102500002046FFF7CDFF204610BD4189C1F3C80129
:1025100040F2FF12914208D0D0F80A104160C18900
:102520000181418962F3CB014181704710B5B0F957
:1025300010408C4201DD0CB20482B0F9124094428A
:1025400001DD14B24482B0F914409C4201DA1CB29D
:10255000848210BDF8B504460D46A888C0F309036F
:102560002888C0F3C8026888C0F309012046FFF735
:10257000DDFF6089C0F3C80040F2FF11884205D139
:102580002868C4F80A00A888E08103E0A888C0F39E
:102590000900E08100BF6A88C2F30902501EAA88C0
:1025A000C2F309010A1A009200BF694604F1200033
:1025B0000EF026F8FE480078D8B1FE490C200EF047
:1025C00049F8060009D0304629680160A988818051
:1025D0000021816000BF064600E00020E16908603C
:1025E000E069006800B9F8BDE06900680830E061A2
:1025F00000BF00BFF7E770B505460C4604F12001A7
:1026000005F120000DF0FCFFB4F91430B4F91220EC
:10261000B4F910102846FFF789FF2089C0F309019B
:102620002889C0F30900814203DD2089C0F3090035
:102630002881DF48007848B1A069E9690860E0694D
:10264000E8610020A06104F11800E06170BD002184
:10265000016181604160011DC1604FF0FF31018067
:102660000121818200218161704770B50446606854
:1026700000B905E04FF4EA72CFA1D5A006F022FE22
:102680000020A060401E20800020A0610BE0206997
:102690000568206928B12069FFF730FF06460DF074
:1026A000B8FF256100BF20690028F0D170BD10B5CA
:1026B00003460BE05868FFF728FF5868046859681C
:1026C00018690860586818615C6000BF5868002885
:1026D000F0D110BD10B504462046FFF7E8FF2046B4
:1026E000FFF7C3FF204610BD2DE9FF4105460E460A
:1026F00031E034682046FFF708FFB5F90000A188F3
:10270000C1F3C801401AB5F91410884220DD2068D1
:1027100030606846218A0391618A0291A18A019101
:10272000A188C1F3C801018000BFBDF90000BDF957
:102730000810401A012803DD286920602C6109E097
:1027400044B12046FFF7DAFE07460DF062FF01E0D4
:10275000BDE8FF8100BF30680028CAD100BFF7E79D
:1027600010B50446A068E060E0680068A060A0685A
:1027700018B12046A168FFF7B7FF10BD10B5044699
:10278000211D2046FFF7B0FF201DE060E0680068D3
:10279000A060A06818B12046A168FFF7A5FF10BD92
:1027A0002DE9F04704460D462888C0F3C800B4F967
:1027B0000010884206D02888C0F3C8002080204638
:1027C000FFF7DCFF40E06888C0F30901A0680089DA
:1027D000C0F30900814203DD2046FFF7C1FF33E06B
:1027E000A888C0F30901A068C088C0F3090081422D
:1027F00000DA2CE02946A068FFF7ACFE14E0A068E0
:1028000007683868A16808603946A068FFF7F3FEDA
:102810002FB13846FFF772FE81460DF0FAFE2046D2
:10282000A168FFF761FF00BFA068006848B1A888F1
:10283000C0F30901A0680068C088C0F309008142A4
:10284000DDDA0020BDE8F087A0680028BBD100BF1A
:10285000584924200DF0FEFE5FEA000804D04046EF
:10286000FFF740FE804600E0002006464EB95C4877
:10287000007818B15BA0A1690BF052FD4FF0FF305A
:10288000E0E7A069401CA061A0683060E0680660D5
:10289000E66029463046FFF75DFE0020D2E702469B
:1028A000002001E0401C09680029FBD1704770B589
:1028B000054614461960216008461A4608E0066875
:1028C00006B906E000681268066806B901E000680B
:1028D000F5E700BF16681E600026166070BDF0B5F3
:1028E0000646059D2C46284638E034B30F6827B3CA
:1028F000B0B11768A7B117683F6AD1F800C0DCF81B
:1029000020C067450CDD1768D3F800C0CCF8007014
:102910001F683F681F601F683F681760401E1DE00A
:102920000F68D3F800C0CCF800701F683F681F60C4
:102930001F683F680F60641E10E070B1176867B1D0
:102940001768D3F800C0CCF800701F683F681F609C
:102950001F683F681760401E00E0F0BDC5E730B556
:1029600087B00446206908B907B030BD05AB06AA98
:1029700020462169FFF79BFF012549E000200490D4
:10298000039004A8029003A801900DE002AB05AAF1
:1029900006A920460095FFF7A2FF01AB05AA06A9EC
:1029A00020460095FFF79BFF06980028EED123E014
:1029B00070000020215701102E2E5C2E2E5C636FBC
:1029C0006D6D6F6E5C626C6F622E637070000000E4
:1029D00021616374697665426C6F62730000000068
:1029E0001C000020626C6F62732025640A686561B8
:1029F000702066756C6C000005980028C6D101999E
:102A000008600299086004980690039805906D008C
:102A100005980028B2D10698206100BFA4E770B5E0
:102A20000646306900B970BD35692C680DE0286A2A
:102A3000216A884200DB06E040F2CD12AFF2880145
:102A400004A006F03FFC25462C68002CEFD100BF07
:102A5000E9E70000692D3E6D6F6D656E74732E6140
:102A6000726561203E3D206A2D3E6D6F6D656E740E
:102A7000732E6172656100002DE9F04104460E4637
:102A800017463946204601F0DEFB044607231C2288
:102A9000FE4904F5D2700DF06EFEA0F5D274002050
:102AA00004F51674A0771420A062642020841420FA
:102AB00060840520A0850020606344F8B86C06207F
:102AC000E085002084F830004FF47A700DF0A5FD09
:102AD00020610020A082A084E084A4F51674002563
:102AE00008E0C5EBC50204F5D27101EB8200FFF7E7
:102AF000BCFD6D1C072DF4DB2046BDE8F08110B550
:102B00000446D4F868020DF080FD07231C22E0493A
:102B100004F5D27006F09CFD204601F0CBFB044684
:102B2000204610BDF0B506460B4614460025002190
:102B30000022002022E033F811702FB90AB903EB0C
:102B40004102471CB8B215E09AB133F811701780F2
:102B50004F1C33F8177057808F1C33F8177097800D
:102B6000CF1C33F81770D7800F1D33F817701781FB
:102B70000A3200BF6F1CBDB24F1DB9B2A542DADBED
:102B8000F0BD2DE9FE4F0C461546A18862888818D5
:102B900000EBD0714E102189E288881800EBD071CB
:102BA0004F10A9886A88881800EBD0714FEA610835
:102BB0002989EA88881800EBD0714FEA6109A7EBF0
:102BC000090010F082FB0090A8EB060010F07DFBDE
:102BD0000190DDE900010FF00DF98346AD4910F0D9
:102BE0009BFBAD49029010F059FB8246504610F015
:102BF0005EFB00B2BDE8FE8F2DE9F0418AB00646CB
:102C000000200024002521E051F82080274604F10F
:102C1000010C1FFA8CF44DF82780431C10E051F88A
:102C200023703F7807F0070751F820C09CF800C0D8
:102C30000CF0070C674501D1012500E004E05B1CA6
:102C4000B2F900709F42EADC00BF1846B2F900708A
:102C5000874201DD0A2CD7DB55B1002004E05DF886
:102C6000207041F82070401CA042F8DB27B217808A
:102C70000AB0BDE8F0812DE9F04106461C469CB142
:102C80008F88B1F802C007EB0C0505EBD5777F10F4
:102C9000B2F804C0B2F802800CEB080000EBD07C64
:102CA000A7EB6C073BB212E00F89B1F806C007EB47
:102CB0000C0505EBD5777F10B2F808C0B2F8068096
:102CC0000CEB080000EBD07CA7EB6C073BB2002BB1
:102CD00003DA584200B2BDE8F0811846FBE72DE95F
:102CE000F04F85B082460D4616461F4600240BE085
:102CF00055F82420394650460E9BFFF7BCFF80B2A2
:102D00002DF81400601C84B2B44201DA0A2CEFDB07
:102D100028E00124A3461DE0601E3DF810003DF8A8
:102D20001410884214DD3DF81480601E3DF8100038
:102D30002DF81400601E2DF8108055F8249055F8D9
:102D4000200045F82400601E45F820904FF0000B4D
:102D5000601C84B2B44201DA0A2CDDDBBBF1000F47
:102D600000D000E0D5E700BF05B0BDE8F08F2DE949
:102D7000F04F8CB0144600208246CDF828A0CDF844
:102D80002CA05CE051F820A0BAF804A051F820B0C3
:102D9000BBF802B0AAEB0B0A51F820B0BBF808B0A0
:102DA00051F820E0BEF806E0ABEB0E0B0AFB0BF28D
:102DB0004FF0640A02FB0AFA4FF4FA7BBAFBFBF706
:102DC0004FF4C87A02FB0AFA4FF0640BBAFBFBFA25
:102DD0000AEB020C0023002622E0984200D11EE0FC
:102DE00051F823A0BAF804A051F823B0BBF802B000
:102DF000AAEB0B0A51F823B0BBF808B051F823E056
:102E0000BEF806E0ABEB0E0B0AFB0BF8474505D806
:102E1000E04503D806F1010A1FFA8AF600BF5B1CE1
:102E2000B4F900A09A45D8DCDDF828A0564505DDA8
:102E30000A9691464FF0010ACDF82CA0401CB4F937
:102E400000A082459EDCDDF82CA0BAF1000F03D172
:102E50004FF0000AA4F800A0002000253EE051F841
:102E600020A0BAF804A051F820B0BBF802B0AAEB39
:102E70000B0A51F820B0BBF808B051F820E0BEF8BA
:102E800006E0ABEB0E0B0AFB0BF207E0EF240010A1
:102E90007525001000003443560E49404FF0640A77
:102EA00002FB0AFA4FF4FA7BBAFBFBF74FF4C87A3D
:102EB00002FB0AFA4FF0640BBAFBFBFA0AEB020CB6
:102EC0004F450AD8E14508D851F820B0AA4605F187
:102ED000010E1FFA8EF54DF82AB0401CB4F900A07F
:102EE000824501DD0A2DBADB002004E05DF820A058
:102EF00041F820A0401CA842F8DB0FFA85FAA4F89C
:102F000000A00CB0BDE8F08F70B503460C46D3F8B6
:102F10006812002013E000EB800531F8155025F011
:102F2000070595420AD100EB800511F8155005F010
:102F30000705254300EB800621F81650401CB3F826
:102F40006C528542E7DC70BD2DE9F04782460D46A4
:102F50001646688801B2A88807B2E88802B22889B4
:102F60000FFA80FC708803B2B0880FFA80F8F088FE
:102F700004B230890FFA80F999420EDBA24201DCDB
:102F8000644505DD4A4508DCE14501DD944204DC89
:102F9000A1EB080000B2BDE8F0878B420CDBA24237
:102FA00001DC644505DD4A4506DCE14501DD94426E
:102FB00002DCD81B00B2EEE7A2420DDB994201DC35
:102FC000BB4205DD414507DCB84501DD8B4203DC32
:102FD000A2EB090000B2DEE794420DDB994201DC6E
:102FE000BB4205DD414507DCB84501DD8B4203DC12
:102FF000A4EB0C0000B2CEE747F6FF70CBE770B54C
:1030000004460D461646288828B1308818B128880D
:103010003188884201D1002070BD94F888020228CE
:1030200007D0287800F00701204601F0E8FD0128CC
:103030000BD194F88802022809D0307800F00701FB
:10304000204601F0DCFD012801D00020E4E73246F3
:1030500029462046FFF778FFB4F88612884201DC43
:103060000120D9E70020D7E72DE9F04F99B00746B6
:1030700000201690B7F86C1201EB8101D7F86802B6
:1030800000EB410AD7F868423FE004F10A0639E054
:10309000324621463846FFF7B2FF20B32088072882
:1030A00014DC3088072811DC1698401C80B216907A
:1030B0004FF6FF71169801EAC009208840EA09001E
:1030C0002080308840EA090030801AE020880728F4
:1030D0000ADD3088072807DC208820F007093088BF
:1030E00040EA090030800CE03088072809DD20889C
:1030F000072806DC308820F00709208840EA09000C
:1031000020800A365645C3D30A345445BDD3D7F878
:10311000684225E02088072800DC20E0208820F095
:10312000070904F10A0617E03088072800DC12E0DE
:10313000308820F007001790179881450AD0324652
:1031400021463846FFF75BFF20B149463846179ABB
:10315000FFF7DAFE00BF0A365645E5D300BF0A3452
:103160005445D7D3D7F8680200F577700B904FF02D
:10317000010BD7F870820020A7F8740257E14FF6D0
:10318000FF7000EACB0900201890D7F868420EE0E3
:10319000208820F00700484508D1BDF9601088B2AA
:1031A000401C00B2189001A840F821400A34544550
:1031B00003D2BDF960000A28EADB18AA01A9384643
:1031C000FFF7D5FDBDF96000022800DA2BE10025EC
:1031D00000200C900D90129013901490159045E0E3
:1031E00001A9159851F82000408851F82510498808
:1031F000884200DD159501A9139851F82000C08878
:1032000051F82510C988884200DD139501A914984A
:1032100051F82000808851F825108988884200DA0A
:10322000149501A9129851F82000008951F8251031
:103230000989884200DA129501A850F82500808893
:1032400001A951F825104988411A0D9808440D909C
:1032500001A850F82500008901A951F82510C98856
:10326000411A0C9808440C90681C05B2BDF9600026
:103270008542B5DBBDF960100D9890FBF1F00D9023
:10328000BDF960100C9890FBF1F00C9001A9159815
:1032900051F820004088A8F80200149851F8200046
:1032A0008088A8F80400139851F82000C088A8F876
:1032B0000600129851F820000089A8F80800149818
:1032C00051F82000818801AA159852F82000408802
:1032D000081A642148430F900D990F9890FBF1F064
:1032E0000F9001A9129851F820000189139852F803
:1032F0002000C088081A642148430E900C990E984B
:1033000090FBF1F00E90DDE90E1088420CDD0120FB
:1033100001A90090159851F82030BDF8600082B2E4
:103320003846FFF7DCFC0BE0002001A90090139861
:1033300051F82030BDF8600082B23846FFF7CFFC6C
:1033400018AA01A93846FFF757FCBDF9600002280A
:1033500000DA68E0BDF96000052801DD052018905D
:1033600000250020119010E04FF6FF71119801EA3E
:10337000C000119001A850F82500007800F0070067
:10338000119908431190681C05B2BDF9600085428F
:10339000EADBBDF86000401E05B20020109015E089
:1033A0004FF6FF71109801EAC000109001A850F884
:1033B0002500007800F007001099084310900020C5
:1033C00001A951F825100880681E05B2002DE7DA22
:1033D000DDE9101088420FDA1198A8F80000BDF955
:1033E0006000401E01AB53F8202038460199FFF7DA
:1033F000C8FBA8F80A000EE01098A8F80000BDF974
:103400006000401E01AB53F820103846019AFFF7C8
:10341000B8FBA8F80A0008F10C08B7F87402401CC1
:10342000A7F8740200BF0BF101000FFA80FB169899
:10343000834503DC0B988045FFF4A1AED7F86842C2
:1034400019E097F88802032805D12088072811DDA4
:10345000002020800EE02088072809DC97F88802E9
:10346000022805D02178384601F0C9FB012801D196
:10347000002020800A345445E3D319B0BDE8F08F12
:103480002DE9FC4F9646002400220020009053E0D6
:1034900031F8120000B94BE0501C31F81050901C6C
:1034A00031F81060D01C31F81070101D31F810C0C8
:1034B000601C80B20190501D83B235E031F81300DA
:1034C00000B92BE0581C31F81080981C31F810908E
:1034D000D81C31F810A0181D31F810B045450DDC8E
:1034E0004E450BDB574509DCDC4507DB002021F8A6
:1034F00013000098401C80B200900EE0A8450CDC40
:10350000B1450ADBBA4508DCE34506DB002021F8BB
:1035100012000098401C80B2009000BF0198401C2F
:1035200080B20190581D83B201987045C6DB00BF80
:10353000601C84B2501D82B27445A9DB0098BDE8BE
:10354000FC8F2DE9F74F83B08246002002900023C4
:103550000090A5E031F8130000B99BE0581C31F849
:1035600010C0981C31F81080D81C31F81090181D2C
:1035700031F810B00298401C80B20190581D82B200
:1035800081E031F8120000B977E0501C31F81040AA
:10359000901C31F81050D01C31F81060101D31F81B
:1035A0001070644518DCACEB0500BAF884E2704595
:1035B00012DCB14501DC5E4503DDB9450CDC5F453D
:1035C0000ADC581C21F81040002021F81200009855
:1035D000401C80B200904FE0454518DBA4EB08008A
:1035E000BAF884E2704512DCB14501DC5E4503DDCA
:1035F000B9450CDC5F450ADC981C21F8105000200E
:1036000021F812000098401C80B2009034E04E4532
:1036100018DCA9EB0700BAF884E2704512DCA44577
:1036200001DC444503DDAC450CDC45450ADCD81C17
:1036300021F81060002021F812000098401C80B290
:10364000009019E05F4517DBA6EB0B00BAF884E2A7
:10365000704511DCA44501DC444503DDAC450BDCC1
:10366000454509DC181D21F81070002021F81200D2
:103670000098401C80B2009000BF0198401C80B2AE
:103680000190501D82B2DDF814E001987045FFF6FC
:1036900078AF00BF0298401C80B20290581D83B2E0
:1036A000DDF814E002987045FFF654AF009806B0BC
:1036B000BDE8F08F70B50546002410E0C4EBC402ED
:1036C00005F5D27101EB8200FEF7F1FFC4EBC402F5
:1036D00005F5D27101EB8200FFF741F9641C072C5C
:1036E000ECDB70BD2DE9FC4106460C4617461D4635
:1036F000DDF820809DF8000064F302008DF80000E2
:10370000BDF8000067F3CB00ADF80000A8B2ADF83B
:10371000020005EB080080B2ADF80400611EC1EBA9
:10372000C10206F5D27101EB82006946FFF738F855
:10373000BDE8FC812DE9F04F8BB006464FF0FF3815
:1037400000200A90002506A800210180C180418048
:10375000818000BF00200590E5E000BF06A9D6F8F3
:10376000A00101F064FA0028F8D0BDF818004FF667
:10377000FE71884200DBD7E00598002800DAD2E02D
:10378000BDF8180018BB4FF6FF7008900020099094
:1037900075B1AAEB0700401C80B20090781E83B27E
:1037A0001FFA88F2E9B23046FFF79CFF059000252A
:1037B00008F101080A98411C0A91052806D1012147
:1037C000FE4800680CF0CAF900200A90ABE0BDF892
:1037D000180000F00704BDF91C000490BDF91A00A0
:1037E00003900498C00304900398C0030390BDF8AD
:1037F0001E000290029808B90120029002990498D4
:1038000090FBF1F00490DDE9021090FBF1F00390E1
:10381000601E00EB800106F1E00050F821100498D2
:1038200081426FDA601E00EB800106F1E00000EBE0
:10383000810041680498814264DD601E00EB8001D4
:1038400006F1E00000EB810081680398814259DABB
:10385000601E00EB800106F1E00000EB8100C16812
:10386000039881424EDDD6F86C110298814249DC02
:10387000BDF81800C010ADF81800BDF818900898F1
:10388000A9EB0000052804D80998A04201D1012025
:1038900000E0002083462DB9BBF1000F02D0254681
:1038A000089F14E09DB1A54202D1BBF1000F0ED1DB
:1038B000AAEB0700401C80B20090781E83B21FFA6A
:1038C00088F2E9B23046FFF70DFF0590002525B1DB
:1038D000BBF1000F01D0CA460FE075B9BBF1000F74
:1038E0000BD102200090A9F1010083B21FFA88F2E7
:1038F000E1B23046FFF7F6FE05900994CDF820902E
:1039000010E0FFE775B1AAEB0700401C80B2009001
:10391000781E83B21FFA88F2E9B23046FFF7E2FE62
:103920000590002500BF18E700BF3046FFF7C2FE34
:10393000BDF818004FF6FE71884204D14FF0FF30F9
:103940000BB0BDE8F08F0020FAE72DE9F04F87B00B
:1039500004462046FFF7EEFE002815DA002508E0B1
:10396000C5EBC50204F5D27101EB8200FEF77DFEC6
:103970006D1C072DF4D30020A4F86C02A4F8740287
:10398000401E07B0BDE8F08F4FF00009012084F819
:1039900076020020C4F88C020025A4F86C02A4F87A
:1039A000740295E094F88802022806D0681CC1B21F
:1039B000204601F024F9012801D1012000E0002077
:1039C0008246B4F86C0200EB80064FF0000BD4F88E
:1039D000680200EB46000690B4F86C020590C5EB57
:1039E000C50104F5D27000EB810007694CE0BAF123
:1039F000000F03D000BF386A0A2808DBBAF1000FB5
:103A000006D100BF386AD4F88012884200DA38E064
:103A100001A8398A0491798A0391B98A0291B988F7
:103A2000C1F3C801018000BFBDF80400BDF80C104F
:103A3000401A012800DC24E0681C04F51A7421688F
:103A400021F81600BDF81010701C226822F8101022
:103A5000BDF80810B01C226822F81010BDF80C1038
:103A6000F01C226822F81010BDF80410301D2268E6
:103A700022F81010A088401CA080A4F51A74761DAE
:103A800000BF3F680BF1010B4FB1B4F86C02B4F802
:103A90007812884203DAB4F87A025845A7D8BAF106
:103AA000000F14D111E0B4F86C120598081A82B214
:103AB00020460699FFF745FD8046B8F1000F00D17A
:103AC00004E009EB08001FFA80F9ECE700BF6D1C69
:103AD000072DFFF467AFB4F86C222046D4F86812C3
:103AE000FFF7CEFC48441FFA80F994F8880260B1D1
:103AF000B4F86C1201EB8101D4F8680200EB4100CC
:103B0000C4F870022046FFF7AFFAB9F1000F02D1F6
:103B100094F8880268B1B4F86C222046D4F8681290
:103B2000FFF700F88046B4F86C02A0EB0800A4F898
:103B30006C020020A4F87C02A4F87E0284F87602CD
:103B4000002508E0C5EBC50204F5D27101EB820047
:103B5000FEF78BFD6D1C072DF4D3002011E72DE936
:103B6000F04703468C46904661460827B8F1120F8D
:103B700002D20020BDE8F08793F8760228B9B3F8A6
:103B80007E02B3F87492484501DB0020F2E7B3F8F7
:103B90007C0240B9B3F87E0228B94AF65520088065
:103BA000781C87B2891C4AF65620088003F51C73DE
:103BB000B3F80E9009EB4909186801E0FC000020F9
:103BC00030F8292014468A80B3F80E9009EB490991
:103BD000186800EB89008088B3F80EA00AEB4A0A47
:103BE000D3F8009009EB8A09B9F80290A0EB09001C
:103BF00085B2601984B24D81B3F80E9009EB490982
:103C0000186800EB89000089B3F80EA00AEB4A0A95
:103C1000D3F8009009EB8A09B9F80690A0EB0900E7
:103C200086B2A01984B28E81B3F80EA00AEB4A0ABC
:103C3000D3F8009009EB8A09B9F80290284605EB01
:103C4000D07A09EB6A091FFA89F2A01884B2CA80F7
:103C5000B3F80EA00AEB4A0AD3F8009009EB8A09E0
:103C6000B9F80690304606EBD07A09EB6A091FFADC
:103C700089F2A01884B20A81B3F80E9009EB4909C1
:103C8000186800EB8900408982B2A01884B2CA810A
:103C90004C80D889401CD881A3F51C734FF6FF7067
:103CA00000EA470066E72DE9F74F0446019D4FF013
:103CB000070BB4F87C0200EB80070298102802D2B0
:103CC0000020BDE8FE8FB4F87C02B4F86C12884284
:103CD00008DB94F8880228B12046DDE90112FFF7DD
:103CE0003EFFEEE794F8760228B9B4F87C02B4F807
:103CF0006C12884201DB0020E3E7B4F87C0238B99B
:103D00004AF6552028800BF101001FFA80FBAD1CFC
:103D10004AF65520288004F51A74206830F8176098
:103D2000B046AE80B81C216831F81010781C2268AB
:103D300032F81000081A1FFA80F908EB09001FFA80
:103D400080F8A5F80A90381D216831F81010F81C89
:103D5000226832F81000081A1FFA80FA08EB0A00ED
:103D60001FFA80F8A5F80CA0791C226832F811100F
:103D7000484609EBD07201EB62018EB208EB0600F7
:103D80001FFA80F8EE80F91C226832F811105046B4
:103D90000AEBD07201EB62018EB208EB06001FFA4B
:103DA00080F82E81A5F80280A08A401CA082A4F58C
:103DB0001A744FF6FF7000EA4B0082E72DE9F043DA
:103DC00002460F46002F48D1D2F88C0218B1D2F823
:103DD0008C02BDE8F08300218C4618E001EB8108DD
:103DE000D2F8680200EB48039888B3F80280A0EB91
:103DF0000800B3F80880B3F80690A8EB090800FBA8
:103E000008F6664502D9B446C2F88C32491CB2F8AD
:103E10006C028842E2DC002118E001EB4108D2F894
:103E2000700200EB8804A088B4F80280A0EB0800C0
:103E3000B4F80880B4F80690A8EB090800FB08F66F
:103E4000664502D9B446C2F88C42491CB2F87402E5
:103E50008842E2DCD2F88C02BBE7002100250CE0AE
:103E6000D2F8680230F81500B84204D1D2F86802DE
:103E700000EB4500ADE7491C6D1DB2F86C028842AD
:103E8000EEDC0020A5E730B5039CD0F868520D6049
:103E9000B0F86C521560D0F870521D60B0F87452D2
:103EA000256030BD30B50446039D642902DCA4F8CA
:103EB000781202E06420A4F87802A4F87A22C4F808
:103EC000803284F88852002030BD2DE9FF4F83B046
:103ED0000D4692461E46DDF840B000200190804617
:103EE00047F6FF70009044E000243CE04FF00009EA
:103EF0000020029018E055F8290056F82410884256
:103F00000BD055F82900007800F0070056F824106F
:103F1000097801F00701884202D10120029005E0F2
:103F200009F101000FFA80F9D145E4DB00BF0298E6
:103F300000B116E056F8242055F828100398FFF732
:103F400003F8074600998F420ADA009755F82810BF
:103F50001198016056F82410129801600120019018
:103F600000BF601C04B25C45C0DB08F101000FFA21
:103F700080F8D045B8DB019807B0BDE8F08F7047F6
:103F8000FEB504460D460DB100202062E069F8B18F
:103F9000E0690168206A81421BDDD4E907010EF067
:103FA0002EFC408886B2D4E907010EF028FC008878
:103FB00087B20420034632463946009001A80CF02F
:103FC000B5F90168A1604068E060206A401C206289
:103FD00001E00020FEBD002060612061608940F0AA
:103FE0000100B4F90420216800FB0210218941F08E
:103FF00001010844A0610120ECE770B504460D46BC
:10400000164620460CF09FF9044604F108000CF017
:1040100094F9A0F10804D5E90001C4E90001306871
:10402000A0607068E0600020E06101212046FFF799
:10403000A7FF204670BD70B504460D4616462046C3
:104040000CF081F9044604F108000CF076F9A0F1B7
:104050000804D5E90001C4E90001E6610121204618
:10406000FFF78EFF204670BD2DE9F04F03460D4649
:104070004FF0260A66E09889D3F810B083450BD339
:10408000002018615869801C5861B3F90400D3F806
:1040900018B00BEB40009861D889D3F814B0834571
:1040A00002D30020BDE8F08FD3F810B0986910F863
:1040B0000B101869401ED3F818B01BF80060B3F954
:1040C00004004042D3F810B05844D3F818B01BF89D
:1040D0000070B3F904004042D3F810B05844401EB9
:1040E000D3F818B01BF8004042B11170F01900EB82
:1040F000D07BCBF3470B82F801B09470EDB18819F7
:1041000000EB040CD44503DA1869801C186119E02F
:10411000881BC00390FBFCF8C81900EB040CD445C5
:1041200003DA1869801C18610CE0E01BC00390FBE7
:10413000FCF9C5F80080C5F804901869801C186166
:104140000120AFE797E770B504460D461646E069D3
:10415000A0B1324629462046FFF786FF08B101206C
:1041600070BD00212046FFF70BFF28B132462946DB
:104170002046FFF779FFF3E70020F1E732462946B2
:104180002046FFF771FFEBE72DE9F84381460D4626
:104190006846002181704170017000BF01214846CE
:1041A000FFF7EEFE0020044680460746064609E07B
:1041B0009DF8000006449DF8010007449DF80200A8
:1041C0008044641C6A4600214846FFF7BCFF002873
:1041D000EED1B6FBF4F6B7FBF4F7B8FBF4F805B193
:1041E0002C60300440EA072040EA0800BDE8F8836C
:1041F00070B504460D462946FA480FF08DF806467C
:104200000FF05CF8C4F86C01D4F86C0110B901200F
:10421000C4F86C0170BD10B5024600200FE021B952
:104220000023D2F87041235408E0D2F870311B5CAF
:104230008B4203D10023D2F870412354401CB0F5C7
:10424000805FECDB10BD70B504460E4607232022CC
:10425000E54920460CF08FFA0446C4F87061E0216D
:10426000204605F077F98C2104F1E00005F072F9A1
:1042700000212046FFF7CFFFDC492046FFF7B8FFBB
:104280004FF07A50C4F87C01C014C4F87401D848C7
:10429000C4F878014FF07F50C4F88001002505E094
:1042A000D44904F5C27040F825106D1C072DF7DBCA
:1042B000204670BD70472DE9F04705460C46012C9D
:1042C00001DB072C01DDBDE8F087601EC4B205EB01
:1042D0004410C069012809D105F5C27252F82400C2
:1042E000D5F880110FF018F8064603E005F5C27006
:1042F00050F8246005EB4411096805EB44129268FC
:10430000881A0EF0E2FF824631460FF005F880462B
:1043100005EB441188680EF0D8FF814641460EF047
:10432000A8FF07460EF0C3FF04EB840205F1E0018D
:1043300041F8220005EB4411496805EB44129268EC
:10434000881A0EF0C2FF824631460EF0E5FF804625
:1043500005EB441188680EF0B8FF814641460EF027
:1043600088FF07460EF0A3FF04EB840205F1E0018D
:1043700001EB8201486005EB4411C96805EB44126A
:104380005269881A0EF0A1FF824631460EF0C4FF32
:10439000804605EB441148690EF097FF814641467F
:1043A0000EF067FF07460EF082FF04EB840205F172
:1043B000E00101EB8201886005EB4411096905EB1E
:1043C00044125269881A0EF080FF824631460EF080
:1043D000A3FF804605EB441148690EF076FF814645
:1043E00041460EF046FF07460EF061FF04EB8402E3
:1043F00005F1E00101EB8201C86005EB4411886919
:1044000002F069FA04EB840205F1E00101EB82019C
:10441000086100BF57E72DE9F04F89B08B4614467D
:104420009A4607A80CF0E8F84FF0000900210D4665
:104430000E460F4688460020069005900490039093
:1044400001215846FFF79CFD25E007982168884226
:1044500002DD0398401C039007986168884202DAE5
:104460000498401C04900898E168884202DD059891
:10447000401C059008982169884202DA0698401C81
:1044800006900798451946EBE0760898C71948EB5F
:10449000E07809F101094FF0000207A95846FFF73B
:1044A00052FE0028D1D148460EF016FF0290039824
:1044B0000EF012FF019002990EF0F0FECAF8000013
:1044C00048460EF009FF029004980EF005FF019097
:1044D00002990EF0E3FECAF8040048460EF0FCFE16
:1044E000029005980EF0F8FE019002990EF0D6FEAB
:1044F000CAF8080048460EF0EFFE029006980EF04B
:10450000EBFE019002990EF0C9FECAF80C004A4673
:1045100000232846314604F088FDA0604A46002367
:104520003846414604F081FD606109B0BDE8F08F76
:104530002DE9FF4106460F4614464FF08045002006
:104540002061E060606020603AE06B4622463946B8
:104550003046FFF760FFD6F8781100980EF035FF6F
:1045600003D220682844206002E02068401B2060BD
:10457000D6F8781101980EF028FF03D26068401B2E
:10458000606002E0606828446060D6F878110298A4
:104590000EF01BFF03D2E0682844E06002E0E06810
:1045A000401BE060D6F8781103980EF00EFF03D29E
:1045B0002069401B206102E02069284420616D10C1
:1045C000002DC2D1BDE8FF81F0B589B005460E4689
:1045D00017461C46012C01DB072C0DDD4FF0FF3088
:1045E00009B0F0BD00403F44EDE90010CDCCCC3D1A
:1045F0006666663F000020403A4631466846FFF74F
:10460000FCFC05EB4410A0F1200269462846FFF7A8
:104610008FFF0021601E05EB4010C1612146284636
:10462000FFF749FE0020DBE730B504465BB9088898
:10463000042806DB0888001F08808888001D888001
:104640002EE0012030BD012B0BD14888042806DB69
:104650004888001F4880C888001DC88020E00120CD
:10466000F0E7022B0DD108888D882844001DB2F98F
:104670000450A84201DD0120E4E78888001D8880FD
:104680000EE0032B0CD14888CD882844001DB2F9D8
:104690000650A84201DD0120D4E7C888001DC8806B
:1046A0000020CFE72DE9F04F8BB08A46934699461C
:1046B00009A80BF0A1FF0024524659466846FFF7AF
:1046C0009CFC00210D460E460F46884609E00998DD
:1046D000451946EBE0760A98C71948EBE07804F1F3
:1046E00001044FF0000209A96846FFF72CFD0028DD
:1046F000EDD1224600232846314604F096FCC9F845
:104700000000224600233846414604F08EFCC9F8DA
:1047100004000BB0BDE8F08F2DE9FF4F89B0824651
:104720000D461C46DDF858B007A80BF065FF0420C5
:10473000034600221146009005A80BF0F7FD2888DB
:10474000ADF814006888ADF81600A888E98888429A
:1047500001DD012000E000200490049808B1A88841
:1047600000E0E88803904FF00008C14668E007AB1E
:1047700005A950460B9AFFF795FF2168079A891AF9
:1047800049436268089BD21A6368089E9B1B02FB20
:1047900003100EF09AFD029002980DF095FD074669
:1047A00038460EF08BFDDAF87411884237D200BF1C
:1047B000DBF800000646206880FB06310798C21728
:1047C00018185141CDE90001701CC317024600982A
:1047D00004F02BFC2060606880FB06310898C2174B
:1047E00018185141CDE90001701CC317024600980A
:1047F00004F01BFC6060BDF8160002B2BDF81400A6
:1048000001B202A80BF02FFE0146019058460DF0B0
:104810008DFF002800DA16E009F1010900BF0498B5
:1048200030B1BDF81400001D80B2ADF8140005E0F1
:10483000BDF81600001D80B2ADF8160008F104089E
:104840000398804593D300BF03980EF045FD029076
:1048500048460EF041FD4FF0814101900EF05CFDA5
:10486000064602990EF01AFD0DB0BDE8F08F2DE955
:10487000F04F87B08046894616461F4605A80BF0C4
:104880005CFD03A80BF059FD01A80BF0B5FE002557
:10489000308880B2ADF81400708880B2ADF8160090
:1048A00000234A4605A94046FFF7BEFE10B145F079
:1048B00001050EE0BDF8160002B2BDF8140001B209
:1048C00068460BF0D0FD8346594638460DF02EFF62
:1048D00000BF01234A4605A94046FFF7A5FE10B1D7
:1048E00045F002050EE0BDF8160002B2BDF8140056
:1048F00001B268460BF0B7FD8346594638460DF0C5
:1049000015FF00BF02234A4605A94046FFF78CFE6B
:1049100010B145F004050DE0BDF8160002B2B6F97D
:10492000001068460BF09FFD8346594638460DF04F
:10493000FDFE00BF03234A4605A94046FFF774FE6B
:1049400010B145F0080503E0314638460DF0EEFEA3
:1049500001AB4A4605A94046FFF7A4FE5AE00024F1
:1049600056E0DDE90501CDE903010120A040284022
:1049700000B14BE01CB90020ADF8100020E0012C84
:1049800003D10020ADF812001AE0022C0BD1BDF8C3
:104990000C00BDF81010084480B2ADF80C000020E7
:1049A000ADF810000CE0032C0AD1BDF80E00BDF8E4
:1049B0001210084480B2ADF80E000020ADF81200CD
:1049C00023464A4603A94046FFF72EFE20B10120A8
:1049D000A0402843C5B218E001AB4A4603A94046AF
:1049E0000097FFF799FE82465046D8F87C110EF0EA
:1049F0007BFC04D20120A0402843C5B205E0234639
:104A00004A4605A94046FFF70FFE00BF601CC4B22E
:104A1000042CA6DB0F2DA2D107B0BDE8F08F2DE945
:104A2000F0418AB005460F4690461E46109C012C68
:104A300001DB072C04DD4FF0FF300AB0BDE8F08148
:104A40003346424639462846FFF711FF324639467B
:104A500001A8FFF7F0FA05EB4410A0F1200201A92C
:104A60002846FFF765FD0021601E05EB4010C1617F
:104A700021462846FFF71FFC0020DEE702460129F9
:104A800001DB072901DD0020704702EB41102038CF
:104A9000FAE770B505460C461646012C01DB072CDB
:104AA00002DD4FF0FF3070BD611E05EB411020228A
:104AB000314604F0FBFC21462846FFF7FCFB0020B2
:104AC000F1E72DE9F84F044600212046FFF7A3FB4C
:104AD000002605E0701CC1B22046FFF7ECFB761CF7
:104AE000072EF7DB002672E000276DE04FF000088C
:104AF00066E0F01900EB080BD4F86C01584500DDB6
:104B00005CE0F01BC00390FBFBF9A8EB0700C003BF
:104B100090FBFBFA00254EE004EB4510006820B93D
:104B200004EB4510406800B944E005EB850104F151
:104B3000E00050F8210048453BDA05EB850104F11F
:104B4000E00000EB81004068484532DD05EB85015F
:104B500004F1E00000EB81008068504529DA05EBA4
:104B6000850104F1E00000EB8100C068504520DDC4
:104B7000A6EB07094FEAE90909F03F09A8EB070A84
:104B80004FEAEA0A0AF03F0A0AEB89100090D4F8CB
:104B900070110098085C30B1D4F870110098095C6D
:104BA000681C814205DD681CC1B2D4F870210098F0
:104BB000115400BF6D1C072DAEDB00BF08F10408C7
:104BC000B8F1FF0F95DD3F1DFF2F8FDD361DFF2E46
:104BD0008ADD0020BDE8F88F10B5012901DB072927
:104BE00000DD10BD4B1E00F5C27444F8232000BF49
:104BF000F7E7C0F874117047C0F88011704702469B
:104C0000012901DB072901DD00207047481E02EB66
:104C10004010C069F9E7000010B50446464820601E
:104C20001021206804F074FC204610BD704730B598
:104C30000246106880881468E488001B83B2E3B1E0
:104C400010680488601C156828801068083000EB24
:104C5000C40004680C60406848601068C088401C4C
:104C60001468E0801068008840F27F74A04202D18E
:104C7000002014682080012030BD0020FCE7F0B542
:104C800003460C461E68B6881F68FF88F61BB1B243
:104C900000201E68358817E01E6808362F4605F18B
:104CA000010C1FFA8CF506EBC70604EBC007D6F81B
:104CB00000C0C7F800C076687E6040F27F76B542DB
:104CC00000D10025461CB0B2884201DA9042E3D3FD
:104CD0001E68F6880E441F68FE801E6836880E44E3
:104CE0001F683E801E68368840F27F77BE4205D33B
:104CF0001E683688A6F27F761F683E80F0BD026887
:104D000092880368DB88D21A91B20268D2880A447A
:104D10000368DA80026812880A4403681A8002680D
:104D2000128840F27F739A4205D302681288A2F279
:104D30007F7203681A80704700C000200146F74860
:104D4000814201D100207047F548814201D1012004
:104D5000F9E74FF0FF30F6E7014608208861202090
:104D6000086000BF086800F008000028FAD0202082
:104D70008861486800F0F8007047016801F0200180
:104D800009B12021816110210160082181617047F2
:104D90000246106800F0200008B120209061C8B2DF
:104DA00090600820906100BF106800F008000028A3
:104DB000FAD0506800F0F80070470346012A02D18B
:104DC0000420186001E0042098610820986100BF69
:104DD000186800F008000028FAD098680870586831
:104DE00000F0F800704770B504460D46CB48844289
:104DF00010D11A21092005F0C9FFCA48854204D301
:104E000040F68C40C849086016E040F60800C649E4
:104E1000086011E0C24884420DD11B21092005F031
:104E2000B5FFC120C1490860C149C1F81001C1489E
:104E3000854201D070BDFDE7B5F57A7F00D2F9E774
:104E40006C20A061112005F0E1FFB0FBF5F67008C1
:104E500020612069301A606100BFEBE74021816169
:104E60007047012902D14022026001E040228261A4
:104E7000704770B504460D466DB1A848844203D111
:104E8000122000F0FCFB13E0A548844210D113204F
:104E900000F0F5FB0CE0A148844203D1122000F0A1
:104EA000F9FB05E09E48844202D1132000F0F2FB9A
:104EB00070BD2DE9F04105462846FFF73FFF064645
:104EC0009D4850F83640686800F0F8076762F82F90
:104ED00003D10820A861BDE8F081974800EBC60027
:104EE0004068002857D1202F48D006DC082F0BD06F
:104EF000102F0AD0182F4CD115E0282F14D0302FA6
:104F00003DD0382F45D13FE000BF2020A861606828
:104F100038B1A06828B120684000A8600820A861C6
:104F200000E012E036E000BFD4E9021088420BD264
:104F3000606848B1E1686068405CA860E068401C57
:104F4000E0600820A86118E000BF01207A4901EB69
:104F5000C6014860606958B1206948B1A06830B1A5
:104F6000606820B1202028600C20A86105E031E0B5
:104F7000606A40F4806060628DE00BE000BF606AB0
:104F800040F40070606277E0606A40F480706062B4
:104F900000BF71E08CE0684800EBC6004068012863
:104FA000F8D1402F24D006DC082F0BD0102F0AD0C8
:104FB000382F60D15AE0482F53D0502F25D0582F8A
:104FC00059D13CE000BF2020A861206950B1606940
:104FD00040B100BF0121206801EB4000A86008201B
:104FE000A86104E0606A40F48060606253E05EE0C3
:104FF000D4E90501401E814202D20420286001E06C
:105000000420A8610820A86151E0206950B1D4E9CA
:105010000510884206D2A868A26921698854A0694F
:10502000401CA061D4E90501401E814202D2042047
:10503000286001E00420A8610820A86137E0206909
:1050400050B1D4E90510884206D2A868A269216946
:105050008854A069401CA061606A40F4806060626E
:1050600019E0606A40F40070606205E0606A40F434
:105070008070606200BF00BFD4E90710884209D287
:105080000020E060202028600C20A861206A401CDD
:1050900020620BE000BF00212846FFF7EAFE284609
:1050A000FFF76BFE0120254941F8260000BF00BF35
:1050B00000BF10E72DE9F04104462046FFF73EFE11
:1050C00080461D4850F83850606800F0F806AE6120
:1050D000F82E03D10820A061BDE8F08106F007009A
:1050E00000287CD1F0100C38142878D2DFE800F0CA
:1050F0000F771077283B293C3F5A775B6E7777779D
:105100007777770A042020600820A06173E000BF51
:10511000042020600820A0616DE0000000100A401B
:1051200000000E4040420F00846C08400C610840B3
:1051300000600840801A0600040200201C020020C3
:1051400000BFD5E90410884208D2E86830B1A068F1
:105150006A69E96888546869401C686104202060B5
:105160000820A06147E000BF0820A06143E00021C3
:105170002046FFF77EFE0820A06147030FE020686D
:1051800000F0080020B101212046FFF772FE07E081
:105190007F1E27B9A86940F48060A86120E0EEE78F
:1051A00000BF28E000BFD5E90110884208D2286876
:1051B00030B1A9682868405CA060A868401CA8605D
:1051C000042020600820A06115E008E00420206091
:1051D0000820A061A86940F48060A86100E000BFD9
:1051E00000212046FFF745FE2C20A0610120F84950
:1051F00041F8280000BF00BF00BF6DE72DE9F8436C
:1052000006460C461746D4F80480D4F810900020C7
:10521000E060A0616062002F7ED1206200BFD4F800
:105220000480D4F810900020E060A0610025304692
:10523000FFF792FD0546082D0BD0102D09D0206AEE
:10524000401C2062D4E90710884201D96562ABE0B6
:10525000E5E7A068A0B3606890B320784006010E2F
:105260003046FFF795FD0546182D0BD0206A401CEF
:105270002062D4E90710884203D945F400706062C7
:1052800092E0CCE718E098F800103046FFF780FD78
:105290000546282D0BD0206A401C2062D4E9071057
:1052A000884203D945F4007060627DE0B7E708F1F9
:1052B0000108E068401CE060D4E902108842E2D3B3
:1052C000A068B8B16068A8B1606998B1206988B178
:1052D0003046FFF741FD0546082D0BD0102D09D0B3
:1052E000206A401C2062D4E90710884201D9656217
:1052F0005AE094E76069002850D0206900284DD01A
:105300002078012202EB4000C1B23046FFF740FD99
:105310000546402D0DD000E04BE0206A401C206285
:10532000D4E90710884203D945F4007060623BE07D
:1053300075E72FE0D4E90501401E814211D2012218
:1053400069463046FFF739FD0546502D1BD0206ACF
:10535000401C2062D4E90710884201D9656223E02D
:105360005DE7002269463046FFF727FD0546582DC8
:1053700009D0206A401C2062D4E90710884201D974
:10538000656211E04BE79DF8000009F8010BA06988
:10539000401CA061D4E905108842CBD33046FFF70A
:1053A000ECFC0120BDE8F8833046FFF7E6FC002066
:1053B000F8E7012F28D13046FFF7C0FCC0B20090BB
:1053C00084489DF8001040F83140002081499DF844
:1053D000002001EBC20148600820B061202030604D
:1053E00001213046FFF745FD00BF7B489DF80010C6
:1053F00050F821000128F8D1002077499DF80020BD
:1054000041F822000120CDE70020CBE72DE9F84F3D
:1054100004460D461646D5F80090D5F80CA000209D
:10542000A8606861A861002E75D104202060282042
:10543000A0610020009083466EE0206800F0080024
:1054400000285FD000200090606800F0F80707F0A7
:105450000700002852D1F8100C3814284ED2DFE88B
:1054600000F00F4D104D152716282B324D33444DAB
:105470004D4D4D4D4D0A042020600820A06140E0B4
:1054800000BF042020600820A0613AE000BFD5E9F9
:105490000410884207D2E86828B1A0680AF8010B16
:1054A0006869401C6861042020600820A06128E031
:1054B00000BF0820A06124E00820A0610120009026
:1054C0004FF0000B1DE000BFD5E90110884207D264
:1054D000286828B119F8010BA060A868401CA860D2
:1054E000042020600820A0610BE004202060082038
:1054F000A061012000904FF0000B02E00820A061A5
:1055000013E009E0009838B158460BF1010BB0F5F3
:10551000803F01D901E00DE08FE70420A06147F44E
:105520008060A8610120BDE8F88F0420A061AF6110
:105530000020F8E7012E15D12046FFF7FFFB80463B
:10554000244840F838500120224901EBC801486046
:10555000042020602820A06101212046FFF789FC5B
:105560000120E0E70020DEE710B58B78012B00D1A9
:1055700000E000234C7843EA4403DAB20B7833B1FD
:10558000012B0AD0022B0ED0032B18D111E0C260E0
:10559000CB7803F0FE03036311E00262CB7803F0E3
:1055A000FE0444630BE04262CB7803F0FE048463A4
:1055B00005E08262CB7803F0FE04C46300BF00BF45
:1055C00010BD10B5012A09D1C3690B43C3610AE0BC
:1055D00028020020040200201C020020C3690724C6
:1055E0008C432340C36110BD012908D1C26942F038
:1055F0000102C261042202602822826105E0C269C0
:1056000002F00602C2612C2282610022264B1A603F
:1056100070470146C86AC0B2704730B503460020E3
:1056200008249C61DC6A204D2D684C551E4C246872
:10563000641C1D4D2C602C462468944200D301202C
:1056400030BD70B505462846FFF778FB044617487D
:1056500050F824600020154941F82400304670BD00
:1056600070B505462846FFF769FB0446104850F818
:10567000246000200E4941F82400304670BD00F03F
:105680001F02012191404209920002F1E022C2F87A
:105690000011704700F01F0201219140054A4309A3
:1056A00042F8231070470000740000201C02002004
:1056B0002802002080E100E0F8B50446A0684068B8
:1056C00000F0F80707F00700002872D1F8100C3836
:1056D00014286ED2DFE800F011821282193E1A3FC0
:1056E000404782487B7A82828282820A0420A168B3
:1056F00008600820A168886174E000BF0420A168E8
:1057000008600820A16888616CE000BF04F10C0506
:10571000A0688068C6B200BF28460DF02AF8296844
:10572000081A002800DC0EE0E968481CE860686898
:1057300046542869401C28612968E868884201D1DC
:105740000020E86000BF0420A16808600820A1686C
:10575000886147E000BF00BF0420A16808600820FE
:10576000A16888613EE000BF207920B10020A168D7
:105770008860207123E000BF206B50B9626BD4E9D0
:10578000091090472063206B08B900200BE000202F
:10579000E062E16A481CE062A06A405C0090206B15
:1057A000401E2063012028B19DF80000A168886098
:1057B00005E013E00020A16888600120207104202A
:1057C000A16808600820A16888610BE000BF042080
:1057D000A16808600820A168886103E02C20A16806
:1057E000886100BF00BFF8BD10B578480068FFF7BA
:1057F00063FF10BD38B504460D468DF801500020FA
:105800008DF803008DF800006946A068FFF7ACFE34
:10581000002038BD2DE9F04705460F4690461E464C
:105820006B496C48286005F10C044FF02009C4F85E
:10583000009020680AF0F1FE60600020A060E06047
:105840002061606100BFA4F10C0505F12404C4F8D7
:10585000009020680AF0E1FE60600020A060E06037
:10586000266100BFA4F12405AF605B49A868FFF77B
:10587000BAFA41462846FFF7BDFF1720002100284D
:1058800007DA0A07140E554A00F00F031B1FD45401
:1058900003E00A07130E524A135400BF2846BDE81E
:1058A000F08770B5044638200AF0C0FE054623464E
:1058B00054224C49FFF7AEFF05464448056070BDD1
:1058C000382182689161442182681160704710B567
:1058D00004460023F022032101200CF079FC04236C
:1058E000F022012102200CF073FC0423F02201219C
:1058F00002200CF06DFC0023F022042101200CF0AA
:1059000067FC0423F022002102200CF061FC00203F
:10591000354908602071122001218140420992001E
:1059200002F1E022C2F8001100BF2046FFF7C8FFD5
:10593000002010BD10B501461220012282402B4BE1
:10594000440943F8242000BF002010BD2DE9F04792
:1059500007460E46904600251EE007F10C0406EBB4
:10596000050920460CF005FF002801DC002010E0AE
:10597000A168481CA0606068405C89F8000060690C
:10598000401C60612168A068884201D10020A060AD
:10599000012000B902E06D1C4545DED300BF28465A
:1059A000BDE8F08710B5044604F10C000CF0E1FEF0
:1059B00010BD00B503469868006800F0040010B9F7
:1059C0001846FFF77DFF002000BD00007800002092
:1059D000305B01107C5A0110A086010018ED00E038
:1059E00000E400E000100A401812104080E100E0DE
:1059F00070B504460D462A4621465B480068FEF70E
:105A000052F970BD10B50446052C02DD4FF0FF3091
:105A100010BD5648006830B15448006800684168BD
:105A200052480068884752480470062C2CD2DFE8A0
:105A300004F02C030D1217214E4800684B490860F2
:105A400000214C48006800F0B1F928E04A4800689D
:105A50004649086023E049480068444908601EE060
:105A600001214748006800F0C0F8454800683F49F8
:105A7000086014E000214248006800F0B6F8404891
:105A800000683A4908600AE000BF3A4800683749B0
:105A9000086001213748006800F088F900BF00BFA6
:105AA0003248006800680168304800688847002074
:105AB000AEE700B585B0002000900123314A0146D1
:105AC000019031A008F0D6FC002054210123324A75
:105AD000CDE90010102131A008F0CCFC00204FF4DB
